# 1. Tapyrus core v0.5.2 testnet ノード構築

2023/07/04 Shigeichiro Yamasaki

#### 環境は ubuntu 22.04LTS

事前に必要そうなライブラリをインストールしておくとトラブルを避けることができます

```bash
sudo apt update
sudo apt upgrade -y
sudo apt install -y ssh openssl llvm autoconf gcc clang cmake make curl direnv sqlite3 libsqlite3-dev git nodejs m4 libssl-dev zlib1g-dev cmdtest build-essential wget curl imagemagick libreadline-dev libleveldb-dev
sudo apt autoremove -y
```

### Tapyrus core

githubのサイト
* [https://github.com/chaintope/tapyrus-core](https://github.com/chaintope/tapyrus-core)

Tapyrusの利用方法
* [https://github.com/chaintope/tapyrus-core/blob/master/doc/tapyrus/getting_started.md](https://github.com/chaintope/tapyrus-core/blob/master/doc/tapyrus/getting_started.md)

bitcoin coreからのフォークなので、基本的にbitcoin coreの知識が使えます

#### Tapyrusのインストール関連情報

次のブログが参考になります

* [Tapyrus Coreをdevモードで起動する 〜Ubuntu編〜](https://zenn.dev/shmn7iii/articles/6dbdf6394a44c1)
* [Tapyrusネットワークを構築してみる その①](https://zenn.dev/shmn7iii/articles/ff647417bfdf16)
* [Tapyrus Coreをdevモードで構築する 〜Docker編〜](https://zenn.dev/shmn7iii/articles/53e533e2ac3756)
* [Tapyrus Core v0.5.0を触ってみる](https://zenn.dev/shmn7iii/articles/65318fa90432f0)

#### Tapyurusの特徴

* フェデレーション(連邦)型のブロックチェーン
    用途ごとに新たにブロックチェーンネットワークを生成して利用します
    したがってネットワークごとにジェネシスブロック（0番目の最初のブロック）が存在します。
* ネイティブなカラードコイン（トークン）生成ができる
    bitcoin でも Ethereumでもトークンはスマートコントラクトによるアプリケーションの一つなので、駆動させるためにはネイティブなbitcoinやEtherが必要です。
* Proof of Authrity型のブロックチェーンで、ブロックの生成は signer networkの信頼点の合意の下に実行されます。

##### Tapyrusネットワークのパラメータ

* ネットワークID
   フェデレーション（連邦）型のTapyrusネットワークでネットワークをスタートするために必要な番号です。
   すべてのTapyrusネットワークは、Tapyrusネットワークに生成されたトラフィックの衝突を回避するために、それぞれ異なるネットワークIDを使用します。

* ネットワークマジックバイト
    マジックバイトは、Tapyrusネットワーク上のノード間で送信されるメッセージを識別する方法として使用されます。マジックバイトは、ネットワークIDから導出されます

* ジェネシスブロック
    Tapyrusでは、bitcoin と異なり、ジェネシスブロックはソースコードに埋め込まれていません。（bitcoin では、Satosh Nakamotoがジェネシスブロックを生成し、bitcoin のコードに埋め込んでいます）
    Tapyrusのジェネシスブロックは、Tapyrus-genesisと呼ばれるユーティリティを使用して生成され、さらにTapyrus署名者たちによって署名されて正統化されます。そして外部ファイルとして保管されます。
    Tapyrusネットワークには、それぞれに固有のジェネシスブロックがあります。

* 公開鍵の集約
    ジェネシスブロックには、「集約公開鍵」が含まれています。
    これは、検証可能な秘密共有スキームを使用して、開始時にTapyrus署名者のネットワークによって生成されます。
    この集約公開鍵は、各Tapyrusコアノードがブロックプルーフのしきい値署名を検証し、ブロックを受け入れるために使用されます。

## バイナリからの tapyrus coreのインストール

#### バイナリの入手

taapyrus core v 0.5.2 のx86 64 linux用のバイナリは以下から入手可能です

[v0.5.2 release](https://github.com/chaintope/tapyrus-core/releases/)

#### X86 64 アーキテクチャのマシンへのインストール

```bash
cd ~
wget https://github.com/chaintope/tapyrus-core/releases/download/v0.5.2/tapyrus-core-0.5.2-x86_64-linux-gnu.tar.gz
```

tapyrus core v0.5.2 のx86 64 linuxバイナリが圧縮ファイルでダウンロードされているはずです

```bash
ls
=>
...  tapyrus-core-0.5.2-x86_64-linux-gnu.tar.gz ...
```

tarコマンドによる圧縮ファイルの解凍

```bash
tar xfvz tapyrus-core-0.5.2-x86_64-linux-gnu.tar.gz
```

これで、新しいディレクトリができているはずです

```bash
ls
=>
... tapyrus-core-0.5.2  ...
```

このディレクトリのbinというサブディレクトリに tapyrus coreのバイナリがあります

```bash
cd tapyrus-core-0.5.2
ls
=>
bin  include  lib  share

cd bin
ls
=>
tapyrus-cli  tapyrus-genesis  tapyrus-qt  tapyrus-tx  tapyrusd  test_tapyrus
```

#### ダウンロードしたバイナリにパスを通す

ログインスクリプトで環境変数 PATHにダウンロードしたバイナリへのパスを追加する

```bash
cd ~
nano .bashrc
```

ファイルの最後に次の行を追加して保存

```bash
...
export PATH="$HOME/tapyrus-core-0.5.2/bin:$PATH"
```

ログインスクリプトを評価してパスを有効化する

```bash
source .bashrc
```

#### tapyrusd を起動

tapyrusd （ノードのデーモン）を起動してみる

しかし、すぐに終了してしまいます。

```bash
tapyrusd
=>
2022-03-25T03:03:39Z Tapyrus Core version v0.5.0 (release build)
2022-03-25T03:03:39Z InitParameterInteraction: parameter interaction: -whitelistforcerelay=1 -> setting -whitelistrelay=1
2022-03-25T03:03:39Z Validating signatures for all blocks.
2022-03-25T03:03:39Z Using the 'sse4(1way),sse41(4way)' SHA256 implementation
2022-03-25T03:03:39Z Default data directory /home/yamasaki/.tapyrus
2022-03-25T03:03:39Z Using data directory /home/yamasaki/.tapyrus/prod-1
2022-03-25T03:03:39Z Using config file /home/yamasaki/.tapyrus/tapyrus.conf
2022-03-25T03:03:39Z Using at most 125 automatic connections (1024 file descriptors available)
2022-03-25T03:03:39Z Reading Genesis Block from [/home/yamasaki/.tapyrus/genesis.dat]
Error: ReadGenesisBlock: unable to read genesis file "/home/yamasaki/.tapyrus/genesis.dat"
2022-03-25T03:03:39Z Shutdown: In progress...
2022-03-25T03:03:39Z Shutdown: done
```

tapyurusd の作業ディレクトリ `.tapyrus`  が作成されているはずです

```bash
ls -a
=>
...  .tapyrus...
```

#### 設定ファイル `tapyrus.conf` の作成

```bash
cd ~/.tapyrus
nano tapyrus.conf
```

##### tapyrus.conf の内容

コインを送金するにはfallbackfeeを設定しておく必要がある
fallbackfeeが少ないとトランザクションがブロックに含められなくなるので注意

```
networkid=1939510133
txindex=1
server=1
rest=1
fallbackfee=0.0002
rpcuser="hoge"
rpcpassword="hoge"
rpcbind=0.0.0.0
rpcallowip=128.0.0.1
addseeder=static-seed.tapyrus.dev.chaintope.com
```

### genesisブロックのファイル

```bash
cd ~/.tapyrus
nano genesis.1939510133
```

nano genesis.1939510133 の内容

```bash
01000000000000000000000000000000000000000000000000000000000000000000000044cc181bd0e95c5b999a13d1fc0d193fa8223af97511ad2098217555a841b3518f18ec2536f0bb9d6d4834fcc712e9563840fe9f089db9e8fe890bffb82165849f52ba5e01210366262690cbdf648132ce0c088962c6361112582364ede120f3780ab73438fc4b402b1ed9996920f57a425f6f9797557c0e73d0c9fbafdebcaa796b136e0946ffa98d928f8130b6a572f83da39530b13784eeb7007465b673aa95091619e7ee208501010000000100000000000000000000000000000000000000000000000000000000000000000000000000ffffffff0100f2052a010000002776a92231415132437447336a686f37385372457a4b6533766636647863456b4a74356e7a4188ac00000000
```

### tapyrusd の起動

```bash
tapyrusd &
```

ブロックチェーンの初期同期が完了するまで待つ

### tapyrus クライアントの実行

* help

```bash
tapyrus-cli help
```

* getblockchaininfo

```bash
tapyrus-cli getblockchaininfo
=>
{
  "chain": "1939510133",
  "mode": "prod",
  "blocks": 182928,
  "headers": 182928,
  "bestblockhash": "f5a5b21d578aa61a77254564622ecba7fe10894efa24e0af973cd6a27bf1586a",
  "mediantime": 1648174439,
  "verificationprogress": 1,
  "initialblockdownload": false,
  "size_on_disk": 56917539,
  "pruned": false,
  "aggregatePubkeys": [
    {
      "0366262690cbdf648132ce0c088962c6361112582364ede120f3780ab73438fc4b": 0
    }
  ],
  "warnings": ""
}

```

* networkinfo

```bash
tapyrus-cli getnetworkinfo
=>
{
  "version": 50000,
  "subversion": "/Tapyrus Core:0.5.0/",
  "protocolversion": 10000,
  "localservices": "0000000000000405",
  "localrelay": true,
  "timeoffset": 0,
  "networkactive": true,
  "connections": 3,
  "networks": [
    {
      "name": "ipv4",
      "limited": false,
      "reachable": true,
      "proxy": "",
      "proxy_randomize_credentials": false
    },
    {
      "name": "ipv6",
      "limited": false,
      "reachable": true,
      "proxy": "",
      "proxy_randomize_credentials": false
    },
    {
      "name": "onion",
      "limited": true,
      "reachable": false,
      "proxy": "",
      "proxy_randomize_credentials": false
    }
  ],
  "relayfee": 0.00001000,
  "incrementalfee": 0.00001000,
  "localaddresses": [
  ],
  "warnings": ""
}

```

* ジェネシスブロックの確認

```bash
tapyrus-cli getblockhash 0
=> 
038b114875c2f78f5a2fd7d8549a905f38ea5faee6e29a3d79e547151d6bdd8a

tapyrus-cli getblock 038b114875c2f78f5a2fd7d8549a905f38ea5faee6e29a3d79e547151d6bdd8a
=>
{
  "hash": "038b114875c2f78f5a2fd7d8549a905f38ea5faee6e29a3d79e547151d6bdd8a",
  "confirmations": 182930,
  "strippedsize": 304,
  "size": 304,
  "weight": 1216,
  "height": 0,
  "features": 1,
  "featuresHex": "00000001",
  "merkleroot": "51b341a85575219820ad1175f93a22a83f190dfcd1139a995b5ce9d01b18cc44",
  "immutablemerkleroot": "846521b8ff0b89fee8b99d089ffe403856e912c7fc34486d9dbbf03625ec188f",
  "tx": [
    "846521b8ff0b89fee8b99d089ffe403856e912c7fc34486d9dbbf03625ec188f"
  ],
  "time": 1589269151,
  "mediantime": 1589269151,
  "xfieldType": 1,
  "xfield": "0366262690cbdf648132ce0c088962c6361112582364ede120f3780ab73438fc4b",
  "proof": "2b1ed9996920f57a425f6f9797557c0e73d0c9fbafdebcaa796b136e0946ffa98d928f8130b6a572f83da39530b13784eeb7007465b673aa95091619e7ee2085",
  "nTx": 1,
  "nextblockhash": "53fd2c341e5829672a5c4c4b461ce4f3ec75101d451df2ccef11c5087b8c0381"
}
```


#### 自分のアドレスを生成

```bash
tapyrus-cli getnewaddress alice
tapyrus-cli getnewaddress bob
tapyrus-cli getnewaddress eve

tapyrus-cli listlabels
=>
[
  "alice",
  "bob",
  "eve"
]

tapyrus-cli getaddressesbylabel alice
=>
{
  "182hvvWF7bX5RMwhL1urPr5Qs8BzVsCqpQ": {
    "purpose": "receive"
  }
}

tapyrus-cli getaddressesbylabel bob
=>
{
  "18j7e9zmEiybT45qiTymMX4Bd2eY4HcsBD": {
    "purpose": "receive"
  }
}

tapyrus-cli getaddressesbylabel eve
{
  "1N18NLDMJZZEoUjECVDLQahQ1KY8HaDN72": {
    "purpose": "receive"
  }
}

```

## 代入しておく

```bash
alice="182hvvWF7bX5RMwhL1urPr5Qs8BzVsCqpQ"
bob="18j7e9zmEiybT45qiTymMX4Bd2eY4HcsBD"
eve="1N18NLDMJZZEoUjECVDLQahQ1KY8HaDN72"
```

## testnet のFaucetからコインを得る

[`https://testnet-faucet.tapyrus.dev.chaintope.com`](https://testnet-faucet.tapyrus.dev.chaintope.com)


#### 残高を確認

10分以上経過後

```bash
tapyrus-cli getbalance
=>
0.00060566
```

#### UTXOを確認

```bash
tapyrus-cli listunspent
=>
[
  {
    "txid": "e410782f14ccd6f8974ad308e4e3764e448ae25b7d6b3a5a0af0ab8b87b33877",
    "vout": 1,
    "address": "13dsUJTSCACmpr7PCQsGQiUWN3Ziu38oVA",
    "token": "TPC",
    "amount": 0.00060566,
    "label": "alice",
    "scriptPubKey": "76a9141ce95b6563d49d95b7ff9f0b7345a798ff47f53588ac",
    "confirmations": 7,
    "spendable": true,
    "solvable": true,
    "safe": true
  }
]

```

## 送金

新しいアドレスを生成

```bash
tapyrus-cli getnewaddress alice
=>
1DhWU583X2bnCGtFiZmcUqrqEWm6HoFmLS
```

新しいアドレスへ送金

```bash
tapyrus-cli sendtoaddress 1DhWU583X2bnCGtFiZmcUqrqEWm6HoFmLS 0.0001
=> 
0d11ab3455e5987fbddce23881e9abe246051927cfa3245903a7f51520b00555
```

10分経過後

```bash
 tapyrus-cli gettransaction 0d11ab3455e5987fbddce23881e9abe246051927cfa3245903a7f51520b00555
{
  "token": "TPC",
  "amount": 0.00000000,
  "fee": -0.00000372,
  "confirmations": 0,
  "trusted": true,
  "txid": "0d11ab3455e5987fbddce23881e9abe246051927cfa3245903a7f51520b00555",
  "walletconflicts": [
  ],
  "time": 1651745854,
  "timereceived": 1651745854,
  "bip125-replaceable": "no",
  "details": [
    {
      "address": "1DhWU583X2bnCGtFiZmcUqrqEWm6HoFmLS",
      "category": "send",
      "token": "TPC",
      "amount": -0.01000000,
      "label": "alice",
      "vout": 0,
      "fee": -0.00000372,
      "abandoned": false
    },
    {
      "address": "1DhWU583X2bnCGtFiZmcUqrqEWm6HoFmLS",
      "category": "receive",
      "token": "TPC",
      "amount": 0.01000000,
      "label": "alice",
      "vout": 0
    }
  ],
  "hex": "010000000212eb2658d69052fe76e5ecb2504becc688fffa3469f1e9a4a6f4a9c39a180761010000006a473044022002d7994a5501b6e5401d0d0396be28dc0dc312f03af8e08962bc9d89515d1fc30220180ffefabec75680079f116077c47bc29114ef723df832d99fa551141d581bd2012103dce86b15858284e5f643577919a3ab8f647d4a239fb5dd52a19c71471e882841feffffff95bed96c32c828b3960ed2c7c0e8a95c75da291a089affa1f0b2397aca4b3cca000000006a47304402200b1d5fe8e2cb689ad356c8c441f3cf64c22263a7a02716889e5e8031b36f2d9e022066f4321b53460af88a254894a88424d66283457a515caff0b2c82739c03feff9012103ee54971a182ef9a8c8ffad4904e5e2e0593b580b7bc0a622827afe6ef8b69427feffffff0240420f00000000001976a9148b4abed76e9c0fbe45cf7e3c3d1667b5ee7ad15f88ac05811e00000000001976a91417af6cff814edf79ff2e96d608f1fd48ff42775c88acd3f70200"
}
```

最後の "hex" 部分の解析

```bash
tapyrus-cli decoderawtransaction 010000000212eb2658d69052fe76e5ecb2504becc688fffa3469f1e9a4a6f4a9c39a180761010000006a473044022002d7994a5501b6e5401d0d0396be28dc0dc312f03af8e08962bc9d89515d1fc30220180ffefabec75680079f116077c47bc29114ef723df832d99fa551141d581bd2012103dce86b15858284e5f643577919a3ab8f647d4a239fb5dd52a19c71471e882841feffffff95bed96c32c828b3960ed2c7c0e8a95c75da291a089affa1f0b2397aca4b3cca000000006a47304402200b1d5fe8e2cb689ad356c8c441f3cf64c22263a7a02716889e5e8031b36f2d9e022066f4321b53460af88a254894a88424d66283457a515caff0b2c82739c03feff9012103ee54971a182ef9a8c8ffad4904e5e2e0593b580b7bc0a622827afe6ef8b69427feffffff0240420f00000000001976a9148b4abed76e9c0fbe45cf7e3c3d1667b5ee7ad15f88ac05811e00000000001976a91417af6cff814edf79ff2e96d608f1fd48ff42775c88acd3f70200
=>

{
  "txid": "0d11ab3455e5987fbddce23881e9abe246051927cfa3245903a7f51520b00555",
  "hash": "f0e93a935d5503777f1caf7c9b3c7183d62937fbbc31f95f32983d29a303c323",
  "features": 1,
  "size": 372,
  "locktime": 194515,
  "vin": [
    {
      "txid": "6107189ac3a9f4a6a4e9f16934faff88c6ec4b50b2ece576fe5290d65826eb12",
      "vout": 1,
      "scriptSig": {
        "asm": "3044022002d7994a5501b6e5401d0d0396be28dc0dc312f03af8e08962bc9d89515d1fc30220180ffefabec75680079f116077c47bc29114ef723df832d99fa551141d581bd2[ALL] 03dce86b15858284e5f643577919a3ab8f647d4a239fb5dd52a19c71471e882841",
        "hex": "473044022002d7994a5501b6e5401d0d0396be28dc0dc312f03af8e08962bc9d89515d1fc30220180ffefabec75680079f116077c47bc29114ef723df832d99fa551141d581bd2012103dce86b15858284e5f643577919a3ab8f647d4a239fb5dd52a19c71471e882841"
      },
      "sequence": 4294967294
    },
    {
      "txid": "ca3c4bca7a39b2f0a1ff9a081a29da755ca9e8c0c7d20e96b328c8326cd9be95",
      "vout": 0,
      "scriptSig": {
        "asm": "304402200b1d5fe8e2cb689ad356c8c441f3cf64c22263a7a02716889e5e8031b36f2d9e022066f4321b53460af88a254894a88424d66283457a515caff0b2c82739c03feff9[ALL] 03ee54971a182ef9a8c8ffad4904e5e2e0593b580b7bc0a622827afe6ef8b69427",
        "hex": "47304402200b1d5fe8e2cb689ad356c8c441f3cf64c22263a7a02716889e5e8031b36f2d9e022066f4321b53460af88a254894a88424d66283457a515caff0b2c82739c03feff9012103ee54971a182ef9a8c8ffad4904e5e2e0593b580b7bc0a622827afe6ef8b69427"
      },
      "sequence": 4294967294
    }
  ],
  "vout": [
    {
      "token": "TPC",
      "value": 0.01000000,
      "n": 0,
      "scriptPubKey": {
        "asm": "OP_DUP OP_HASH160 8b4abed76e9c0fbe45cf7e3c3d1667b5ee7ad15f OP_EQUALVERIFY OP_CHECKSIG",
        "hex": "76a9148b4abed76e9c0fbe45cf7e3c3d1667b5ee7ad15f88ac",
        "reqSigs": 1,
        "type": "pubkeyhash",
        "addresses": [
          "1DhWU583X2bnCGtFiZmcUqrqEWm6HoFmLS"
        ]
      }
    },
    {
      "token": "TPC",
      "value": 0.01999109,
      "n": 1,
      "scriptPubKey": {
        "asm": "OP_DUP OP_HASH160 17af6cff814edf79ff2e96d608f1fd48ff42775c OP_EQUALVERIFY OP_CHECKSIG",
        "hex": "76a91417af6cff814edf79ff2e96d608f1fd48ff42775c88ac",
        "reqSigs": 1,
        "type": "pubkeyhash",
        "addresses": [
          "13AEhD6XhAFh5exhtX1oTwi4XFCPv88bz2"
        ]
      }
    }
  ]
}
```

## トークン

tapyrusには、BCHのOP_GROUP オペコードに類似したカラードコイン機能があります

[Tapyrusのトークンの仕様](https://github.com/chaintope/tapyrus-core/blob/master/doc/tapyrus/colored_coin_ja.md)

トークンの発行、移転、焼却の基本機能があります。

[Tapyrus上でTPC（tapyrus）以外のトークンをサポートするための仕様](https://gist.github.com/azuchi/8fff51de048c6fced31531544583fff2)

### トークン発行の準備

トークンの発行には、UTXOが必要です。
また、トークンを発行するアカウントは手数料を支払う能力が必要です。

例えば、トークン発行のためにネイティブトークンを 0.0001 TPC 使い、手数料に 0.00001 TPC 使うためには、そのアカウントには、最低でも２つのUTXOが必要です。

* トークン生成アドレス

```bash
tapyrus-cli getnewaddress eve
=>
1JKJcqi7FR6r4QViN1xKcBGrSm1G734ydw
```

* トークン生成アドレスへのUTXOの作成

```bash
tx1=`tapyrus-cli sendtoaddress $alice 0.0001`

tx2=`tapyrus-cli sendtoaddress $bob 0.0001`

tx3=`tapyrus-cli sendtoaddress $eve 0.0001`
```

10分経過後にUTXOを確認

```bash
tapyrus-cli listunspent
=>

[
  {
    "txid": "8f3717217b7c31c9104cf3d17b93f7ea66f7164215a12fe4789fd5116ccde321",
    "vout": 0,
    "address": "1JKJcqi7FR6r4QViN1xKcBGrSm1G734ydw",
    "token": "TPC",
    "amount": 0.0001000000,
    "label": "eve",
    "scriptPubKey": "76a914bdf055145ad04f0e6fe3aaad39b14b24b13e95c688ac",
    "confirmations": 1,
    "spendable": true,
    "solvable": true,
    "safe": true
  },
  {
    "txid": "3c3e3de9655f13abecde3a547af85bd02c13392d56e5399cae8907ef8783cfbe",
    "vout": 0,
    "address": "1JKJcqi7FR6r4QViN1xKcBGrSm1G734ydw",
    "token": "TPC",
    "amount": 0.0001000000,
    "label": "eve",
    "scriptPubKey": "76a914bdf055145ad04f0e6fe3aaad39b14b24b13e95c688ac",
    "confirmations": 1,
    "spendable": true,
    "solvable": true,
    "safe": true
  },
  {
    "txid": "77bfc5ba9d7189a08ff219a7500174f5beb64df402e22dfb5786efedf2ce33e8",
    "vout": 0,
    "address": "1JKJcqi7FR6r4QViN1xKcBGrSm1G734ydw",
    "token": "TPC",
    "amount": 0.0001000000,
    "label": "eve",
    "scriptPubKey": "76a914bdf055145ad04f0e6fe3aaad39b14b24b13e95c688ac",
    "confirmations": 1,
    "spendable": true,
    "solvable": true,
    "safe": true
  },
  {
    "txid": "ec3adb85a3f71ba2351d473b22e3b04ef31c0487249f340cf904589fbb6866fd",
    "vout": 0,
    "address": "1JKJcqi7FR6r4QViN1xKcBGrSm1G734ydw",
    "token": "TPC",
    "amount": 0.0001000000,
    "label": "eve",
    "scriptPubKey": "76a914bdf055145ad04f0e6fe3aaad39b14b24b13e95c688ac",
    "confirmations": 1,
    "spendable": true,
    "solvable": true,
    "safe": true
  },
  {
    "txid": "ec3adb85a3f71ba2351d473b22e3b04ef31c0487249f340cf904589fbb6866fd",
    "vout": 1,
    "address": "19htQ3PQBopCB3KUYPqaYGdUdfVgbNQF86",
    "token": "TPC",
    "amount": 0.66999100,
    "scriptPubKey": "76a9145f7c8c8c39deefdf9d6e8a0cf0a6590808d4931f88ac",
    "confirmations": 1,
    "spendable": true,
    "solvable": true,
    "safe": true
  }
]
```

### トークンの発行

`issuetoken <token_type> <amount> <txid> <index>`

<token_type>は Reissuable Token は 1, Non-Reissuable Tokenは 2, NFTは 3 です。
<amount>はトークンの発行枚数。
<txid> <index>は、発行のために使用するUTXO

ただし、Reissuable Tokenの場合は、scriptPubKey

#### Non-Reissuable Token の発行

```bash
tapyrus-cli issuetoken 2 1000 $tx1 0
=>
{
  "color": "c27613e6895e1ffd1ccddab76f09a07017d3dc9b7ff4803c9120f988fd4b9024bf",
  "txid": "9dbdfc75e4b447f810a35195c126cdb77ca77da7c231916a77abce5fb2b63d06"
}

color1="c27613e6895e1ffd1ccddab76f09a07017d3dc9b7ff4803c9120f988fd4b9024bf"
tx11="9dbdfc75e4b447f810a35195c126cdb77ca77da7c231916a77abce5fb2b63d06"
```

#### トークン発行ランザクションの解析

"token" の部分に color が入っていることを確認する

```bash
tapyrus-cli gettransaction $tx11

=>
{
  "token": "TPC",
  "amount": 0.00000000,
  "fee": -0.00005160,
  "confirmations": 1,
  "blockhash": "ccf1e52db1581e6c8aee761e5c2e7f82fcfc198ff70567de7c821bfc917d1b37",
  "blockindex": 1,
  "blocktime": 1688552166,
  "txid": "9dbdfc75e4b447f810a35195c126cdb77ca77da7c231916a77abce5fb2b63d06",
  "walletconflicts": [
  ],
  "time": 1688552159,
  "timereceived": 1688552159,
  "bip125-replaceable": "no",
  "details": [
    {
      "address": "4Zqzd6LJGLQhqnqXCNWx8WrinHea4MvPcVUr4zak4iBgXAZKGijxeheJX59BpGCZGxHjjdV47yAzb3z",
      "category": "receive",
      "token": "c27613e6895e1ffd1ccddab76f09a07017d3dc9b7ff4803c9120f988fd4b9024bf",
      "amount": 1000,
      "vout": 0
    }
  ],
  "hex": "0100000001f8d762e0d6b6e10c1ebbd4ebeb4fc2d7a4b9733b8d7c4e8e3e20df940d3a9a63000000006a473044022059beaf595ae21cf2e6d483b8767e3958994e040f3c7e8e806429bf9005ad2fc902205c683f3dd58eb2976aa366be0005be4e3d45e9946f603744f0a6f00c9d3e0d36012102a8540f85d159c63f06eced0034acdca27bf0139fb64a480fe66047f118863138feffffff02e8030000000000003a21c27613e6895e1ffd1ccddab76f09a07017d3dc9b7ff4803c9120f988fd4b9024bfbca914dcc645211ed9f97a6a676a40c8218e9be9baefed8778720100000000001976a91451c5703d5a3e636252cbbcec0c6819dfcea6587888ac0ae40400"
}
```

hex 部分を解析

```bash
tapyrus-cli decoderawtransaction 010000000121e3cd6c11d59f78e42fa1154216f766eaf7937bd1f34c10c9317c7b2117378f000000006a47304402200d4ca5504b5dcc74415678d7159ea31438acb1c3cff83f2bf68acf8a3503cbc80220535b3c821ac882e9cd571fe7c51cd8fd09a8e8884e8b4a73b3a9422443ecae4f0121038f1f998e823cff73891ce8658610f2f8d5c57f54ff7778ec06fbeb839715bfeafeffffff02e8030000000000003a21c2817d8d753eef94af68195867d3625aacc219903e9640043af5de0cdb48c4d948bca91484fbc964f27a00f2441e7a43b1c0f009db5044a2873e410f00000000001976a9143409635ae773f6eed7ebd623d4009b6aa0f9f8e388acd6f70200
=>

{
  "txid": "9dbdfc75e4b447f810a35195c126cdb77ca77da7c231916a77abce5fb2b63d06",
  "hash": "c2da36f333e3b13bff8aadb825eb91b3e211004a1ad3d735396fe137310e589f",
  "features": 1,
  "size": 258,
  "locktime": 320522,
  "vin": [
    {
      "txid": "639a3a0d94df203e8e4e7c8d3b73b9a4d7c24febebd4bb1e0ce1b6d6e062d7f8",
      "vout": 0,
      "scriptSig": {
        "asm": "3044022059beaf595ae21cf2e6d483b8767e3958994e040f3c7e8e806429bf9005ad2fc902205c683f3dd58eb2976aa366be0005be4e3d45e9946f603744f0a6f00c9d3e0d36[ALL] 02a8540f85d159c63f06eced0034acdca27bf0139fb64a480fe66047f118863138",
        "hex": "473044022059beaf595ae21cf2e6d483b8767e3958994e040f3c7e8e806429bf9005ad2fc902205c683f3dd58eb2976aa366be0005be4e3d45e9946f603744f0a6f00c9d3e0d36012102a8540f85d159c63f06eced0034acdca27bf0139fb64a480fe66047f118863138"
      },
      "sequence": 4294967294
    }
  ],
  "vout": [
    {
      "token": "c27613e6895e1ffd1ccddab76f09a07017d3dc9b7ff4803c9120f988fd4b9024bf",
      "value": 1000,
      "n": 0,
      "scriptPubKey": {
        "asm": "c27613e6895e1ffd1ccddab76f09a07017d3dc9b7ff4803c9120f988fd4b9024bf OP_COLOR OP_HASH160 dcc645211ed9f97a6a676a40c8218e9be9baefed OP_EQUAL",
        "hex": "21c27613e6895e1ffd1ccddab76f09a07017d3dc9b7ff4803c9120f988fd4b9024bfbca914dcc645211ed9f97a6a676a40c8218e9be9baefed87",
        "reqSigs": 1,
        "type": "coloredscripthash",
        "addresses": [
          "4Zqzd6LJGLQhqnqXCNWx8WrinHea4MvPcVUr4zak4iBgXAZKGijxeheJX59BpGCZGxHjjdV47yAzb3z"
        ]
      }
    },
    {
      "token": "TPC",
      "value": 0.00094840,
      "n": 1,
      "scriptPubKey": {
        "asm": "OP_DUP OP_HASH160 51c5703d5a3e636252cbbcec0c6819dfcea65878 OP_EQUALVERIFY OP_CHECKSIG",
        "hex": "76a91451c5703d5a3e636252cbbcec0c6819dfcea6587888ac",
        "reqSigs": 1,
        "type": "pubkeyhash",
        "addresses": [
          "18TNFoUbRfiWhc8fTuYzU9FPzkf79Ma2Mx"
        ]
      }
    }
  ]
}
```

#### NFTの発行

```bash
tapyrus-cli issuetoken 3 1 $tx2 2
=>
{
  "color": "c3106aacf82e725a38c45734e65a7f02d29ebd20dda44d16d07c292516fff4b331",
  "txid": "2345f54d4824214bfd9f6858cd31c7e9642aecf3d5e11298446d5943ae10e81c"
}
```

発行前と発行後の残高の差

`0.12946080 - 0.12945564 = 0.00000515`

#### Reissuable Token の発行

使用するUTXOは、TXID index ではなく scriptPubKey を利用

```bash
tapyrus-cli issuetoken 1 1000 $tx3
=>
{
  "color": "c18052819dfb017498f89e82cb233073c4b6fabf20605e2ab9ef021eb008a15fd5",
  "txids": [
    "7f1b5d92b33c0a848b77fcbdf0566b8c5a739059790ccf60e71692528a3f87e4",
    "9f814c2d569f003aeb83f539600c62f7499a51a327376cc623c4f1ad3a92c694"
  ]
}
```

発行前と発行後の残高の差
`0.12946080-0.12944598 = 0.00001295`


## トークンを送付する

#### カラー付きアドレス

トークンの送付先は、同じカラーであることを識別するために、カラー付きアドレスが必要になります。

カラー付きアドレスには、 CP2PKH と CP2SH　があります

`CP2PKH: <Color Identifier(33 bytes)>|<Pubkey Hash(20 bytes)>`
`CP2SH: <Color Identifier(33 bytes)>|<Script Hash(20 bytes)>`

カラー付きアドレスは53バイトの長さになります。


* カラー付きアドレス（CP2PKH)の生成

文法

```
getnewaddress <ラベル>, <カラーID>
```

* 実行例(non-reissuable tokens)

```bash
tapyrus-cli getnewaddress franc c2b2ca2005cb28fba871e586011e7f0b6381baa0018dc2acfd932804f065fb7d2d
=>
vscgz9BC1hbeyGCrV3GMxERsLtGQbrS5SpJatKVhCWz4BvCtGxedbkMB7dUD3vZwCScPNZxw7pkt3v
```

* 実行例(NFT)

```
tapyrus-cli getnewaddress george c3106aacf82e725a38c45734e65a7f02d29ebd20dda44d16d07c292516fff4b331
=>
vv9kacRkT75gmgMhWb98wPGQUj969eVA6mdYUwpkxc2rrY5SEmjfDNcLVRt5S9ATE9aMRH9yjrnU6X
```

* 実行例(reissuable tokens)

```
tapyrus-cli getnewaddress helen c18052819dfb017498f89e82cb233073c4b6fabf20605e2ab9ef021eb008a15fd5
=>
vjKKHtL6S8AYJw63bGMrEmz5GzCb3gtPSZvtKgDmXYQ8hazChKWW5fZmfi61SsLMzyDWZWyVVLAFxU
```

#### トークンの送付

文法

```
transfertoken <カラー付きアドレス> <トークンのvalue>
```

* 実行例(non-reissuable tokens)

```bash
tapyrus-cli transfertoken vscgz9BC1hbeyGCrV3GMxERsLtGQbrS5SpJatKVhCWz4BvCtGxedbkMB7dUD3vZwCScPNZxw7pkt3v 50
=>
9b87b8859f722e8bfbe0efd8769e570819cd5a6db80495418a714bf67a09b3b7
```

* 実行例(NFT)

```bash
tapyrus-cli transfertoken vv9kacRkT75gmgMhWb98wPGQUj969eVA6mdYUwpkxc2rrY5SEmjfDNcLVRt5S9ATE9aMRH9yjrnU6X 1
=>
00eb0f5cd88b65fc02e99f4ae6994aee7b1db10583c9771d41f07e380734f0bf
```

* 実行例(reissuable tokens)

```bash
tapyrus-cli transfertoken vjKKHtL6S8AYJw63bGMrEmz5GzCb3gtPSZvtKgDmXYQ8hazChKWW5fZmfi61SsLMzyDWZWyVVLAFxU 30
=>
1034a582fc8defb044ad2e7bffecd119718d0b9cd4bca5054c55ab447a6aab3c
```


#### トークン送付の手数料

* non-reissuable tokens

`0.12927548-0.12926596 = 0.00000952


### トークンの焼却

* 文法

```
burntoken <カラー> <value>
```


* 実行例(non-reissuable tokens)

```bash
tapyrus-cli burntoken c2b2ca2005cb28fba871e586011e7f0b6381baa0018dc2acfd932804f065fb7d2d 10
=>
90ac29c622613d84951d4f403842fc3fee2aa6986568ccd9585189d785b8fbd0
```

* 実行例(NFT)

```bash
tapyrus-cli burntoken c3106aacf82e725a38c45734e65a7f02d29ebd20dda44d16d07c292516fff4b331 1
=>
7f4a08feae322c5c9937b9e6cf81b7c0e586bde42e7f0ba26f6791c959d38b40
```

* 実行例(reissuable tokens)

```bash
tapyrus-cli burntoken c18052819dfb017498f89e82cb233073c4b6fabf20605e2ab9ef021eb008a15fd5 5
=>
6aa1847f589745b0b15729dd92c7069c1a25493d669cca9c3d1f9a4cb5c38bef
```

#### 焼却トランザクションの確認

```bash
tapyrus-cli getrawtransaction 7f4a08feae322c5c9937b9e6cf81b7c0e586bde42e7f0ba26f6791c959d38b40
=>
0100000002bff03407387ef0411d77c98305b11d7bee4a99e64a9fe902fc658bd85c0feb00000000006a47304402206a235a4af4128733a2f7d307699c43646cd67a638c030f16e1543cf262faf40102202d7754fefbd5af8cca4248540787c5e9c8c797f3418400d54438eaeb1fe991ba0121036d938240f4b22cf5d61f4790ff1c546d81025ccdedf094439c4a2d6662484bb3feffffffbecf8387ef0789ae9c39e5562d39132cd05bf87a543adeecab135f65e93d3e3c010000006a47304402201b0e04e1eb33c55329216ea973f936bfdd6cfa438c3abc0e3fd975844085eac902202b3f394fcc3f2bb4d8182bc7907b938ed88622dc43ba106cc7da9d2f642179e501210330dad807ab2a475d544f04759481542c22b2fa253353297e21cd39f8f74c6d95feffffff013f7e1e00000000001976a91479b5d8b43a0964035b440d83122dcc85a59f030688ac30f90200
```

トランザクションの解析

```bash
tapyrus-cli decoderawtransaction 0100000002bff03407387ef0411d77c98305b11d7bee4a99e64a9fe902fc658bd85c0feb00000000006a47304402206a235a4af4128733a2f7d307699c43646cd67a638c030f16e1543cf262faf40102202d7754fefbd5af8cca4248540787c5e9c8c797f3418400d54438eaeb1fe991ba0121036d938240f4b22cf5d61f4790ff1c546d81025ccdedf094439c4a2d6662484bb3feffffffbecf8387ef0789ae9c39e5562d39132cd05bf87a543adeecab135f65e93d3e3c010000006a47304402201b0e04e1eb33c55329216ea973f936bfdd6cfa438c3abc0e3fd975844085eac902202b3f394fcc3f2bb4d8182bc7907b938ed88622dc43ba106cc7da9d2f642179e501210330dad807ab2a475d544f04759481542c22b2fa253353297e21cd39f8f74c6d95feffffff013f7e1e00000000001976a91479b5d8b43a0964035b440d83122dcc85a59f030688ac30f90200
=>

{
  "txid": "7f4a08feae322c5c9937b9e6cf81b7c0e586bde42e7f0ba26f6791c959d38b40",
  "hash": "bf3eb54b2f36dd1c979f2b978c5ff4a64a511346efd493c9c984260a880d6967",
  "features": 1,
  "size": 338,
  "locktime": 194864,
  "vin": [
    {
      "txid": "00eb0f5cd88b65fc02e99f4ae6994aee7b1db10583c9771d41f07e380734f0bf",
      "vout": 0,
      "scriptSig": {
        "asm": "304402206a235a4af4128733a2f7d307699c43646cd67a638c030f16e1543cf262faf40102202d7754fefbd5af8cca4248540787c5e9c8c797f3418400d54438eaeb1fe991ba[ALL] 036d938240f4b22cf5d61f4790ff1c546d81025ccdedf094439c4a2d6662484bb3",
        "hex": "47304402206a235a4af4128733a2f7d307699c43646cd67a638c030f16e1543cf262faf40102202d7754fefbd5af8cca4248540787c5e9c8c797f3418400d54438eaeb1fe991ba0121036d938240f4b22cf5d61f4790ff1c546d81025ccdedf094439c4a2d6662484bb3"
      },
      "sequence": 4294967294
    },
    {
      "txid": "3c3e3de9655f13abecde3a547af85bd02c13392d56e5399cae8907ef8783cfbe",
      "vout": 1,
      "scriptSig": {
        "asm": "304402201b0e04e1eb33c55329216ea973f936bfdd6cfa438c3abc0e3fd975844085eac902202b3f394fcc3f2bb4d8182bc7907b938ed88622dc43ba106cc7da9d2f642179e5[ALL] 0330dad807ab2a475d544f04759481542c22b2fa253353297e21cd39f8f74c6d95",
        "hex": "47304402201b0e04e1eb33c55329216ea973f936bfdd6cfa438c3abc0e3fd975844085eac902202b3f394fcc3f2bb4d8182bc7907b938ed88622dc43ba106cc7da9d2f642179e501210330dad807ab2a475d544f04759481542c22b2fa253353297e21cd39f8f74c6d95"
      },
      "sequence": 4294967294
    }
  ],
  "vout": [
    {
      "token": "TPC",
      "value": 0.01998399,
      "n": 0,
      "scriptPubKey": {
        "asm": "OP_DUP OP_HASH160 79b5d8b43a0964035b440d83122dcc85a59f0306 OP_EQUALVERIFY OP_CHECKSIG",
        "hex": "76a91479b5d8b43a0964035b440d83122dcc85a59f030688ac",
        "reqSigs": 1,
        "type": "pubkeyhash",
        "addresses": [
          "1C6Yc8QwzbHmZ1xuLWEYTcjHZMcbxsGqXJ"
        ]
      }
    }
  ]
}

```
