# 2. bitcoin core の詳細

2024/11/15
  更新 Shigeichiro Yamasaki

* [BIP](https://github.com/bitcoin/bips)

## インストールすべきツール

## 各種トランザクションの構成を一連の流れで演習します

以下のように，合計で８個のトランザクションを作成します．

ubuntu で snap を使って bitcoin core をインストールした環境を前提にしますが，MacOS で HomeBrew でインストールした場合や bitcoin-qt のコンソールからの場合は適宜コマンドなどを読み替えてください．

1.  5種類のoutput (P2PKH, P2SH, P2WPKH, P2WSH, P2TR)を持つトランザクション TX1 をブロードキャストする

```
(UTXOの資金)--> TX1 -+-->0.0002 BTC VOUT:1 -->TX3(P2PKH) --> 0.00018 BTC
                    +-->0.0002 BTC VOUT:2 -->TX4(P2SH)  --> 0.00018 BTC
                    +-->0.0002 BTC VOUT:3 -->TX5(P2WPKH)--> 0.00018 BTC
                    +-->0.0002 BTC VOUT:4 -->TX6(P2WSH) --> 0.00018 BTC
                    +-->0.0002 BTC VOUT:5 -->TX7(P2TR)  --> 0.00018 BTC
                    +-->おつり
```
2. 5種類タイプの異なるUTXOをinputとするトランザクション (TX3 ~ TX7) を作成するしてブロードキャストする


## 目次

* [descriptor ワレットの作成](#DESC)
* [6種類のアドレスの生成](#ADDR)
* [TX1: 7つのUTXOを生成するトランザクションの送信](#TX1)
* [次の演習への準備](#PREP)



##  <a id="DESC"> </a>descriptor ワレットの作成

### UTXOの所有と discriptor

当初，ブロックチェーン上のデジタル資産であるUTXOの所有の概念は，主体の秘密鍵による計算能力の証明（デジタル署名など）中心に構成されていました．

しかし P2SH などのスクリプトへの送金の概念の登場によって秘密鍵だけでは所有の概念を表現できなくなりました．

そこで，自分が所有するUTXOを定義するために [BIP380](https://github.com/bitcoin/bips/blob/master/bip-0380.mediawiki) で output script descriptor という言語が提案されました．

### output script descriptor

output script descriptorは，Scirpt Experession、Key Expression，チェックサムの３要素で構成されています．

```
function([derivation-path]key)#checksum
```

* Script Expression

    Bitcoinのスクリプトに直接対応する式。これらの式は関数として記述され、引数を取る

* Key Expression

    HD ウォレットのどの部分がエクスポートされるかを説明します。この場合、それは指紋を持つシードでありd6043800、そのシードの 0 番目の子の 0 番目の子の 18 番目の子 ( 0'/0'/18') 

    Script Expressionの引数としてよく使われる式に、Key Expressionがある。これは公開鍵または秘密鍵と、オプションとしてその鍵のオリジンに関する情報を表す

* チェックサム

  * hexエンコードされた公開鍵
  * WIFエンコードされた秘密鍵
  * xpubエンコードされた拡張公開鍵、もしくはxprvエンコードされた拡張秘密鍵

### descriptor の例

* 2-of-3 多重署名でロックされた P2SHタイプの output を表現する Descriptor の例

```json
sh(multi(2,037032106297741808e66c947dab836f3f3c28189596331e48861304674e2583d0,0210c7796ac91075ff6d4708319094707a976d265263cac42cc535104803439f84,0359ee82a3b3ec86bc8c29c149cacde7af2e00cd8952ee5767d6c221a2807c4094))#c968pfza
```

* 2-of-3 多重署名でロックされた P2WSHタイプの output を表現する Descriptor の例

```json
wsh(multi(2,037032106297741808e66c947dab836f3f3c28189596331e48861304674e2583d0,0210c7796ac91075ff6d4708319094707a976d265263cac42cc535104803439f84,0359ee82a3b3ec86bc8c29c149cacde7af2e00cd8952ee5767d6c221a2807c4094))#04tn9tty
```

### descriptor ワレットの作成

```
bitcoin-core.cli createwallet <ワレット名> <秘密鍵の無効化> <空ワレット> <パスフレーズ> <再利用禁止> <descripterの有効化> <起動時にロード> <外部署名の許可>
```

```bash
bitcoin-core.cli createwallet eve
bitcoin-core.cli createwallet alice 
```

```bash
bitcoin-core.cli listwallets

[
  "alice",
  "eve"
]
```

ワレットのアンロード

```bash
bitcoin-core.cli unloadwallet alice

bitcoin-core.cli listwallets

[
  "eve"
]

```

ワレットの情報

```bash
bitcoin-core.cli getwalletinfo
{
  "walletname": "eve",
  "walletversion": 169900,
  "format": "sqlite",
  "balance": 0.00000000,
  "unconfirmed_balance": 0.00000000,
  "immature_balance": 0.00000000,
  "txcount": 0,
  "keypoolsize": 4000,
  "keypoolsize_hd_internal": 4000,
  "paytxfee": 0.00000000,
  "private_keys_enabled": true,
  "avoid_reuse": false,
  "scanning": false,
  "descriptors": true,
  "external_signer": false,
  "blank": false,
  "birthtime": 1716908333,
  "lastprocessedblock": {
    "hash": "000000139bf3a0de1ae4acd7a7c0fc0fd02258f0665220eb2556d1b3ff9108b0",
    "height": 197570
  }
}

```

### 最初のアドレス（最初のUTXOの所有者）の生成

```bash
TARO=`bitcoin-core.cli getnewaddress taro`

#確認
echo $TARO
tb1qv99t3v4pck374la9k24namcetmk626sj4rmrsd
```

### faucet から taroに入金

[signet faucet](https://signetfaucet.com/)

* signet faucetのページは，ブラウザを閉じると無効になってしまうので緑色のメッセージが表示された状態のまま送金完了まで待ってください．
* 送金完了まで 10分以上かかります（20分以上かかることもあります）
* 待ち時間がもったいないので，コインの受領完了を待たずに，以下の「６種類のビットコインアドレスの生成」などをすすめてください．

ちなみにコインが受領されると以下のような状態になります．

```bash
bitcoin-core.cli getbalance

0.01000000
```

## <a id="ADDR">6種類のビットコインアドレスの生成 </a>

6種類の outputのタイプへの送金には、それぞれ対応するアドレスタイプを持つ送金先アドレスが必要です。

以下に P2PK, P2PKH, P2SH, P2WPKH, P2WSH, P2TR の6タイプのアドレスを生成します．

#### getnewaddress コマンド

```bash
getnewaddress <ラベル> <アドレスタイプ>
```

アドレスタイプ

* legacy (base52アドレス）このタイプにさらに P2PKHとP2SHがあります
* bech32 (Bech32アドレス）このタイプにさらにP2WPKHとP2WSHがありあす
* p2sh-segwit (後方互換のため，Bech32アドレスをP2SHでラップしたアドレス)
* P2PK では、送金先の公開鍵がそのまま送金先アドレスになります

### P2PKアドレス

最も初期のアドレス形式です．

特別なアドレスフォーマットはなく，当事者の公開鍵がそのままアドレスになります

#### 公開鍵の確認方法

コマンドの文法

```
getaddressinfo <（自分のワレットの）ビットコインアドレス>
```


ここでは，P2WPKH として生成されたアドレスの情報から公開鍵を抜き出します．

```bash
BOB=`bitcoin-core.cli getnewaddress bob`

#確認
echo $BOB
=>
tb1qc8yk8jz3jx4j6gpx55qrnjm54qrhexcaachwpd


bitcoin-core.cli getaddressinfo $BOB

{
  "address": "tb1qc8yk8jz3jx4j6gpx55qrnjm54qrhexcaachwpd",
  "scriptPubKey": "0014c1c963c85191ab2d2026a50039cb74a8077c9b1d",
  "ismine": true,
  "solvable": true,
  "desc": "wpkh([c4317781/84h/1h/0h/0/8]027dfa02138b7c86ad0901b4fb08718653f97e801df90110ddff322697cb107712)#npc0rxhz",
  "parent_desc": "wpkh([c4317781/84h/1h/0h]tpubDDThUseTsE7BrL9L7K6cNLBfSjLa8zdMVuqEfsiDjgv8WtkG3VScT9HJ8sKAfcWG8NoXD25bd5h8rNwGSep2frEdVtGfQm4n8mQYPjh2DHh/0/*)#w9yrknfc",
  "iswatchonly": false,
  "isscript": false,
  "iswitness": true,
  "witness_version": 0,
  "witness_program": "c1c963c85191ab2d2026a50039cb74a8077c9b1d",
  "pubkey": "027dfa02138b7c86ad0901b4fb08718653f97e801df90110ddff322697cb107712",
  "ischange": false,
  "timestamp": 1716908333,
  "hdkeypath": "m/84h/1h/0h/0/8",
  "hdseedid": "0000000000000000000000000000000000000000",
  "hdmasterfingerprint": "c4317781",
  "labels": [
    "bob"
  ]
}
```

公開鍵は  pubkey の部分です．

この公開鍵の情報を [jq コマンド](https://www.karakaram.com/notes-on-jq-command/) を利用して P2PK アドレスとしてシェル変数 P2PK_ADDR に代入しておきます

```bash
P2PK_ADDR=`bitcoin-core.cli getaddressinfo $BOB|jq -r '.pubkey'`

#確認
echo $P2PK_ADDR
=>
027dfa02138b7c86ad0901b4fb08718653f97e801df90110ddff322697cb107712
```

### P2PKHアドレス

当事者の公開鍵のハッシュ値から生成され base52 エンコードしたアドレスです

シェル変数 P2PKH_ADDRに代入しておきます．

```bash
P2PKH_ADDR=`bitcoin-core.cli getnewaddress pkh_user legacy`

#確認
echo $P2PKH_ADDR
=>
mhAg6CF3VSE1htcQV2ShxRTsMgb2VCvqU4
```

### P2SHアドレス

当事者の公開鍵ではなく，bitcoin スクリプトのハッシュ値から生成されたアドレスです．

その典型例がマルチシグ（多重署名）用アドレスです。

#### マルチシグ用公開鍵のリストの作成

 
アドレスの生成には、n人の署名者たちの公開鍵が必要です。

ここでは P2PK と同様の方法で３人の公開鍵を生成し，シェル変数 PUBKEY1, PUBKEY2, PUBKEY3 に代入します．

```bash
SIGNER1=`bitcoin-core.cli getnewaddress signer1`
SIGNER2=`bitcoin-core.cli getnewaddress signer2`
SIGNER3=`bitcoin-core.cli getnewaddress signer3`

#確認
echo $SIGNER1
=>
tb1qvd9dl3hvtap455l74f4l2fhw0sflwjduljz33n
echo $SIGNER2
=>
tb1qwyxcedp2rjt4uxpvs6nrp62la8rsx2rk7u5gfl
echo $SIGNER3
=>
tb1qd5d453dkaqh4kjs5xq574y4pq0pk8w8n7du8a6

PUBKEY1=`bitcoin-core.cli getaddressinfo $SIGNER1|jq -r '.pubkey'`
PUBKEY2=`bitcoin-core.cli getaddressinfo $SIGNER2|jq -r '.pubkey'`
PUBKEY3=`bitcoin-core.cli getaddressinfo $SIGNER3|jq -r '.pubkey'`

#確認
echo $PUBKEY1
=> 
0222e8217169108c253501bbc0c12b1afdf7d90f7ffcab3c977ccd0720b396bfe6
echo $PUBKEY2
=>
03db5794dee648c57f6bc4eecac49328c57541737767ad066fd2149aaa5dd50280
echo $PUBKEY3
=>
02fed05b945310ab915bec26e8a8ef4489ccea88af9cb111a46d2be9aeb027e7da
```

#### マルチシグアドレスの生成

 m of n マルチシグ（n人の公開鍵の中でm人の署名があれば成功する署名）のためのアドレス生成です。
 
コマンドの文法

```
createmultisig <必要署名数 m> '[<公開鍵1>,<公開鍵2>,...,<公開鍵n>]' <アドレスタイプ>
```

 <アドレスタイプ> の指定によって　P2SH　と　P2WSH　が区別されます。

アドレスタイプ:  P2SH＝"legacy", P2SHのSegWitラップ="p2sh-segwit", P2WSH="bech32"

マルチシグアドレス生成結果

```json
{                            (json object)
  "address" : "str",         (string) The value of the new multisig address.
  "redeemScript" : "hex",    (string) The string value of the hex-encoded redemption script.
  "descriptor" : "str"       (string) The descriptor for this multisig
}
```

2 of 3 の場合

```bash
P2SH=`bitcoin-core.cli createmultisig 2 "[\"$PUBKEY1\",\"$PUBKEY2\",\"$PUBKEY3\"]" legacy`

#確認
echo $P2SH
=>
{ "address": "2NFV3cvYv7Lo9LRdwaWmC2Anusn81G4cLvZ", "redeemScript": "52210222e8217169108c253501bbc0c12b1afdf7d90f7ffcab3c977ccd0720b396bfe62103db5794dee648c57f6bc4eecac49328c57541737767ad066fd2149aaa5dd502802102fed05b945310ab915bec26e8a8ef4489ccea88af9cb111a46d2be9aeb027e7da53ae", "descriptor": "sh(multi(2,0222e8217169108c253501bbc0c12b1afdf7d90f7ffcab3c977ccd0720b396bfe6,03db5794dee648c57f6bc4eecac49328c57541737767ad066fd2149aaa5dd50280,02fed05b945310ab915bec26e8a8ef4489ccea88af9cb111a46d2be9aeb027e7da))#qvpxamev" }
```

ここでは，シェル変数 P2SH_ADDRに生成したアドレスを代入しておきます

```bash
P2SH_ADDR=`echo $P2SH|jq -r '.address'`

#確認
echo $P2SH_ADDR
=>
2NFV3cvYv7Lo9LRdwaWmC2Anusn81G4cLvZ
```

#### P2SH redeemScript

P2SHのアウトプットをアンロックするには、redeemScriptが必要です

上記のマルチシグアドレス生成時に対応する redeemscriptも生成されています．

シェル変数 P2SH_REDEEMSCRIPT にその内容を代入しておきます

```bash
P2SH_REDEEMSCRIPT=`echo $P2SH|jq -r '.redeemScript'`

#確認
echo $P2SH_REDEEMSCRIPT
=>
52210222e8217169108c253501bbc0c12b1afdf7d90f7ffcab3c977ccd0720b396bfe62103db5794dee648c57f6bc4eecac49328c57541737767ad066fd2149aaa5dd502802102fed05b945310ab915bec26e8a8ef4489ccea88af9cb111a46d2be9aeb027e7da53ae
```

#### P2SH descriptor

* P2SH でロックされているUTXOをアンロックするためには，まず第１段階として redeemscript とそのハッシュ値が必要です．

* 第２段階で，マルチシグの実際の署名を行う場所は署名者それぞれのワレットで， redeemScript に沿ってそれぞれの秘密鍵を使って署名を行います。

* それを可能にするためには、それぞれの署名者のワレットに redeemScript などの必要な情報を組み込む必要があります。

* descriptor　は、ワレットにマルチシグ署名のための情報を組み込むためのデータです。

ここでは，シェル変数 P2SH_DESCRIPTOR にその内容を代入しておきます．

```bash
P2SH_DESCRIPTOR=`echo $P2SH|jq -r '.descriptor'`

#確認
echo $P2SH_DESCRIPTOR
=>
sh(multi(2,0222e8217169108c253501bbc0c12b1afdf7d90f7ffcab3c977ccd0720b396bfe6,03db5794dee648c57f6bc4eecac49328c57541737767ad066fd2149aaa5dd50280,02fed05b945310ab915bec26e8a8ef4489ccea88af9cb111a46d2be9aeb027e7da))#qvpxamev
```

##### マルチシグアドレス生成の実際と公開鍵の提示

ここでの例では、複数のアドレスを一つのワレットで生成していますが、実際は複数の人のワレットで生成します。

上記のように、マルチシグアドレスの生成には公開鍵が必要です。

しかし、アドレスごとの公開鍵は非公開情報です。したがって、実際にマルチシグに参加する当事者がそれぞれ自分で自分の公開鍵を確認し、信頼できる第三者であるマルチシグアドレス生成者に提示する必要があります。


### P2WPKHアドレス 

Bech32アドレスの生成（受領者の公開鍵ハッシュの場合）

ここでは，シェル変数 P2WPKH_ADDR にアドレスを代入しておきます．

```bash
P2WPKH_ADDR=`bitcoin-core.cli getnewaddress wpkh_user bech32`

#確認
echo $P2WPKH_ADDR

=>
tb1q6zy2jxjry280wq64m2gvl9sfnvhvy4t3w05ljv
```

### P2WSHアドレス

基本的にP2SHと同じです。


2 of 3 の場合

```bash
P2WSH=`bitcoin-core.cli createmultisig 2 "[\"$PUBKEY1\",\"$PUBKEY2\",\"$PUBKEY3\"]" bech32`

# 確認
echo $P2WSH
=>
{ "address": "tb1q4d6dwjfuklrkc3qh4u6np5shtl57rxkdmej4n8c4sarggh992cas33t5p0", "redeemScript": "52210222e8217169108c253501bbc0c12b1afdf7d90f7ffcab3c977ccd0720b396bfe62103db5794dee648c57f6bc4eecac49328c57541737767ad066fd2149aaa5dd502802102fed05b945310ab915bec26e8a8ef4489ccea88af9cb111a46d2be9aeb027e7da53ae", "descriptor": "wsh(multi(2,0222e8217169108c253501bbc0c12b1afdf7d90f7ffcab3c977ccd0720b396bfe6,03db5794dee648c57f6bc4eecac49328c57541737767ad066fd2149aaa5dd50280,02fed05b945310ab915bec26e8a8ef4489ccea88af9cb111a46d2be9aeb027e7da))#lfmqcn4l" }

```

ここではシェル変数 P2WSH_ADDR に内容を代入しておきます

```bash
P2WSH_ADDR=`echo $P2WSH|jq -r '.address'`

#確認
echo $P2WSH_ADDR
=>
tb1q4d6dwjfuklrkc3qh4u6np5shtl57rxkdmej4n8c4sarggh992cas33t5p0
```


#### P2WSH redeemScript

ここではシェル変数 P2WSH_REDEEMSCRIPT にその内容を代入しておきます

```bash
P2WSH_REDEEMSCRIPT=`echo $P2WSH|jq -r '.redeemScript'`

#確認
echo $P2WSH_REDEEMSCRIPT
=>
52210222e8217169108c253501bbc0c12b1afdf7d90f7ffcab3c977ccd0720b396bfe62103db5794dee648c57f6bc4eecac49328c57541737767ad066fd2149aaa5dd502802102fed05b945310ab915bec26e8a8ef4489ccea88af9cb111a46d2be9aeb027e7da53ae
```

#### P2SH descriptor

ここでは，シェル変数 P2WSH_DESCRIPTOR にその内容を代入しておきます．

```bash
P2WSH_DESCRIPTOR=`echo $P2WSH|jq -r '.descriptor'`

#確認
echo $P2WSH_DESCRIPTOR
=>
wsh(multi(2,0222e8217169108c253501bbc0c12b1afdf7d90f7ffcab3c977ccd0720b396bfe6,03db5794dee648c57f6bc4eecac49328c57541737767ad066fd2149aaa5dd50280,02fed05b945310ab915bec26e8a8ef4489ccea88af9cb111a46d2be9aeb027e7da))#lfmqcn4l
```

### P2TRアドレス


Bech32m アドレスの生成（受領者の公開鍵）

ここでは，シェル変数 P2TR_ADDR にアドレスを代入しておきます．

getnewaddress コマンドでラベルの設定が必要です

```bash
P2TR_ADDR=`bitcoin-core.cli getnewaddress tr_user bech32m`

#確認
echo $P2TR_ADDR
=>
tb1prg0ygugk6wmqlmd5hvl46nywmmckqhu6eqdymttxt2tt8s238sqssm7krw
```

## <a id="TX1"> </a>7つのUTXOを生成するトランザクションの送信


### 使用するUTXOを確認する

この例では、"amount": 0.0100000　を持つUTXOを利用しますが，以下では自分が所持している bitcoin の金額でトランザクションを作成してください．

使用する"txid" と "vout"と "amount" と "address" の値をメモしてください

#### UTXOの例

自分のUTXOを確認してください

★★（以下は例です，必ず自分のUTXOのものをチェックしてください！）


UTXOを複数所持している場合は，amount が 0.01 以上あるものを一つ選んでください．


★★ （ここではUTXOの 金額を 0.01 BTC にしていますが，それよりも多い場合は必ずおつりの計算を間違えないようにしてください！！）

★★ （おつりの計算を間違えると，失った所持金はマイナーの報酬になり，戻ってきません）


```bash
bitcoin-core.cli listunspent

# ここでの例
=>
[
  {
    "txid": "f616dfaa244b162530003c6f33e25223cf4d6a573a47b390b3f12348a56ed82e",
    "vout": 0,
    "address": "tb1qd3la0q64a5qt5l4aka00jq495ry7d7gws84kf8",
    "label": "taro",
    "scriptPubKey": "00146c7fd78355ed00ba7ebdb75ef902a5a0c9e6f90e",
    "amount": 0.01000000,
    "confirmations": 3,
    "spendable": true,
    "solvable": true,
    "desc": "wpkh([c4317781/84h/1h/0h/0/31]035701c8785279c4ca4eb9e792428404e609b2f6a07f2b7e13b781c2d02c752def)#glp2qarz",
    "parent_descs": [
      "wpkh(tpubD6NzVbkrYhZ4WMdAbdLz46exTnUp5Q3K7voVX1AZ26FqvuHfGfKZ6XdreuQzvhzoCCX4ayjsSx7xSXVaxn1pxr1qbix2SYYMLNxbgtifkMT/84h/1h/0h/0/*)#w3yerj76"
    ],
    "safe": true
  },
  
  ...
]

```

この例では，UTXOの配列の1番目（インデックス0）のUTXOの "amount" が 0.01 BTC なので，これを使うことにします．

シェル変数への代入を使う場合は以下のようになります


```bash
UTXOS=`bitcoin-core.cli listunspent`
UTXO=`echo $UTXOS | jq -r '.[0]'`

# 確認
echo $UTXO

=>
{ "txid": "f616dfaa244b162530003c6f33e25223cf4d6a573a47b390b3f12348a56ed82e", "vout": 0, "address": "tb1qd3la0q64a5qt5l4aka00jq495ry7d7gws84kf8", "label": "taro", "scriptPubKey": "00146c7fd78355ed00ba7ebdb75ef902a5a0c9e6f90e", "amount": 0.01000000, "confirmations": 3, "spendable": true, "solvable": true, "desc": "wpkh([c4317781/84h/1h/0h/0/31]035701c8785279c4ca4eb9e792428404e609b2f6a07f2b7e13b781c2d02c752def)#glp2qarz", "parent_descs": [ "wpkh(tpubD6NzVbkrYhZ4WMdAbdLz46exTnUp5Q3K7voVX1AZ26FqvuHfGfKZ6XdreuQzvhzoCCX4ayjsSx7xSXVaxn1pxr1qbix2SYYMLNxbgtifkMT/84h/1h/0h/0/*)#w3yerj76" ], "safe": true }
```

自分のUTXOの txid , vout, address をシェル変数に代入します

```
TXID="<txidの内容>"
VOUT="<voutの内容>"
ADDRESS="<addressの内容>"
```

上記の例の場合
★（必ず自分のUTXOのものに置き換えてください）

```bash
TXID=`echo $UTXO|jq -r '.txid'`
VOUT=`echo $UTXO|jq -r '.vout'`
CHANGE_ADDRESS=`echo $UTXO|jq -r '.address'`

# 確認
echo $TXID
=>
f616dfaa244b162530003c6f33e25223cf4d6a573a47b390b3f12348a56ed82e

echo $VOUT
=>
0

echo $CHANGE_ADDRESS
=>
tb1qd3la0q64a5qt5l4aka00jq495ry7d7gws84kf8
```

★ この CHANGE_ADDRESS に指定するアドレスは，UTXOを所有している自分のアドレスで，おつりとして取り戻すためのアドレスです．

### 6+1 個のoutputを持つトランザクションを作成する

* input として使用するUTXOの txid と vout
* output は、生成した5つのアドレスです
* 6つの送金先アドレスへの送金金額は，それぞれ 0.0002 とします．
* outputにはおつり用のアドレスがさらに一つ必要です．ここではUTXOの所有者にします．

#### おつりの計算

ここではトランザクション手数料は 0.00002 とします．

UTXOの資金を 0.01 BTC とすると

```
0.01 - (0.0002)*6 - 0.00002 =  0.00878
```

### 5種類のアウトプットを持つ未署名トランザクションの作成

JSON形式で input と output を作成し，未署名のトランザクションを作成します

P2PKH, P2SH, P2WPKH, P2WSH, P2TR の５種類です．
P2PKは別途

実行結果は 16進数形式です．

```bash
UNSIGNED_TX=`bitcoin-core.cli createrawtransaction "[{\"txid\":\"$TXID\",\"vout\":$VOUT}]" "[{\"$P2PKH_ADDR\":0.0002},{\"$P2SH_ADDR\":0.0002},{\"$P2WPKH_ADDR\":0.0002},{\"$P2WSH_ADDR\":0.0002},{\"$P2TR_ADDR\":0.0002},{\"$CHANGE_ADDRESS\":0.00878}]"`

# 確認
echo $UNSIGNED_TX
=>
02000000012ed86ea54823f1b390b3473a576a4dcf2352e2336f3c003025164b24aadf16f60000000000fdffffff06204e0000000000001976a914ee4c59a05db9e4f2449346061a064f90dd59239688ac204e00000000000017a914f3efef8aa6faf6e9bea495d8eb27767e7bd333d487204e000000000000160014d088a91a43228ef70355da90cf96099b2ec25571204e000000000000220020ab74d7493cb7c76c4417af3530d2175fe9e19acdde65599f158746845ca5563b204e0000000000002251201a1e447116d3b60fedb4bb3f5d4c8edef1605f9ac81a4dad665a96b3c1513c01b0650d00000000001600146c7fd78355ed00ba7ebdb75ef902a5a0c9e6f90e00000000
```

作成したトランザクションの確認

```bash
bitcoin-core.cli decoderawtransaction $UNSIGNED_TX

=>
{
  "txid": "557adafc853f70a405a9e271ab4b5e8b308049ba18792361d2d82c0317271c33",
  "hash": "557adafc853f70a405a9e271ab4b5e8b308049ba18792361d2d82c0317271c33",
  "version": 2,
  "size": 265,
  "vsize": 265,
  "weight": 1060,
  "locktime": 0,
  "vin": [
    {
      "txid": "f616dfaa244b162530003c6f33e25223cf4d6a573a47b390b3f12348a56ed82e",
      "vout": 0,
      "scriptSig": {
        "asm": "",
        "hex": ""
      },
      "sequence": 4294967293
    }
  ],
  "vout": [
    {
      "value": 0.00020000,
      "n": 0,
      "scriptPubKey": {
        "asm": "OP_DUP OP_HASH160 ee4c59a05db9e4f2449346061a064f90dd592396 OP_EQUALVERIFY OP_CHECKSIG",
        "desc": "addr(n3ExacD1dFiMLL37u4j5YsR1SBcqi7qCFA)#wd4jhs2m",
        "hex": "76a914ee4c59a05db9e4f2449346061a064f90dd59239688ac",
        "address": "n3ExacD1dFiMLL37u4j5YsR1SBcqi7qCFA",
        "type": "pubkeyhash"
      }
    },
    {
      "value": 0.00020000,
      "n": 1,
      "scriptPubKey": {
        "asm": "OP_HASH160 f3efef8aa6faf6e9bea495d8eb27767e7bd333d4 OP_EQUAL",
        "desc": "addr(2NFV3cvYv7Lo9LRdwaWmC2Anusn81G4cLvZ)#vmt8yp6l",
        "hex": "a914f3efef8aa6faf6e9bea495d8eb27767e7bd333d487",
        "address": "2NFV3cvYv7Lo9LRdwaWmC2Anusn81G4cLvZ",
        "type": "scripthash"
      }
    },
    {
      "value": 0.00020000,
      "n": 2,
      "scriptPubKey": {
        "asm": "0 d088a91a43228ef70355da90cf96099b2ec25571",
        "desc": "addr(tb1q6zy2jxjry280wq64m2gvl9sfnvhvy4t3w05ljv)#netmrn7s",
        "hex": "0014d088a91a43228ef70355da90cf96099b2ec25571",
        "address": "tb1q6zy2jxjry280wq64m2gvl9sfnvhvy4t3w05ljv",
        "type": "witness_v0_keyhash"
      }
    },
    {
      "value": 0.00020000,
      "n": 3,
      "scriptPubKey": {
        "asm": "0 ab74d7493cb7c76c4417af3530d2175fe9e19acdde65599f158746845ca5563b",
        "desc": "addr(tb1q4d6dwjfuklrkc3qh4u6np5shtl57rxkdmej4n8c4sarggh992cas33t5p0)#r6q3uzzp",
        "hex": "0020ab74d7493cb7c76c4417af3530d2175fe9e19acdde65599f158746845ca5563b",
        "address": "tb1q4d6dwjfuklrkc3qh4u6np5shtl57rxkdmej4n8c4sarggh992cas33t5p0",
        "type": "witness_v0_scripthash"
      }
    },
    {
      "value": 0.00020000,
      "n": 4,
      "scriptPubKey": {
        "asm": "1 1a1e447116d3b60fedb4bb3f5d4c8edef1605f9ac81a4dad665a96b3c1513c01",
        "desc": "rawtr(1a1e447116d3b60fedb4bb3f5d4c8edef1605f9ac81a4dad665a96b3c1513c01)#4h4kr4na",
        "hex": "51201a1e447116d3b60fedb4bb3f5d4c8edef1605f9ac81a4dad665a96b3c1513c01",
        "address": "tb1prg0ygugk6wmqlmd5hvl46nywmmckqhu6eqdymttxt2tt8s238sqssm7krw",
        "type": "witness_v1_taproot"
      }
    },
    {
      "value": 0.00878000,
      "n": 5,
      "scriptPubKey": {
        "asm": "0 6c7fd78355ed00ba7ebdb75ef902a5a0c9e6f90e",
        "desc": "addr(tb1qd3la0q64a5qt5l4aka00jq495ry7d7gws84kf8)#nshaknc2",
        "hex": "00146c7fd78355ed00ba7ebdb75ef902a5a0c9e6f90e",
        "address": "tb1qd3la0q64a5qt5l4aka00jq495ry7d7gws84kf8",
        "type": "witness_v0_keyhash"
      }
    }
  ]
}
```

### 作成したトランザクションに署名する

```bash
SIGNED_TX=`bitcoin-core.cli signrawtransactionwithwallet $UNSIGNED_TX`

# 確認
echo $SIGNED_TX
=>
{ "hex": "020000000001012ed86ea54823f1b390b3473a576a4dcf2352e2336f3c003025164b24aadf16f60000000000fdffffff06204e0000000000001976a914ee4c59a05db9e4f2449346061a064f90dd59239688ac204e00000000000017a914f3efef8aa6faf6e9bea495d8eb27767e7bd333d487204e000000000000160014d088a91a43228ef70355da90cf96099b2ec25571204e000000000000220020ab74d7493cb7c76c4417af3530d2175fe9e19acdde65599f158746845ca5563b204e0000000000002251201a1e447116d3b60fedb4bb3f5d4c8edef1605f9ac81a4dad665a96b3c1513c01b0650d00000000001600146c7fd78355ed00ba7ebdb75ef902a5a0c9e6f90e02473044022036c2b90918a45669bf5ba7795d0515ed5bf39484f4a5cce5da0af8e14b9865e502200e003fe97f4874f2398da6c94d0a0217ad2c8f0946d1c2a3782de01111bdbc840121035701c8785279c4ca4eb9e792428404e609b2f6a07f2b7e13b781c2d02c752def00000000", "complete": true }


```

署名したトランザクションの16進数形式内容の確認（hex の値）

```bash
SIGNED_TX_HEX=`echo $SIGNED_TX|jq -r '.hex'`

# 確認
echo $SIGNED_TX_HEX
=>
020000000001012ed86ea54823f1b390b3473a576a4dcf2352e2336f3c003025164b24aadf16f60000000000fdffffff06204e0000000000001976a914ee4c59a05db9e4f2449346061a064f90dd59239688ac204e00000000000017a914f3efef8aa6faf6e9bea495d8eb27767e7bd333d487204e000000000000160014d088a91a43228ef70355da90cf96099b2ec25571204e000000000000220020ab74d7493cb7c76c4417af3530d2175fe9e19acdde65599f158746845ca5563b204e0000000000002251201a1e447116d3b60fedb4bb3f5d4c8edef1605f9ac81a4dad665a96b3c1513c01b0650d00000000001600146c7fd78355ed00ba7ebdb75ef902a5a0c9e6f90e02473044022036c2b90918a45669bf5ba7795d0515ed5bf39484f4a5cce5da0af8e14b9865e502200e003fe97f4874f2398da6c94d0a0217ad2c8f0946d1c2a3782de01111bdbc840121035701c8785279c4ca4eb9e792428404e609b2f6a07f2b7e13b781c2d02c752def00000000

```

★ txinwitness 領域が作成されていることを確認する

```bash
bitcoin-core.cli decoderawtransaction $SIGNED_TX_HEX

=>
{
  "txid": "557adafc853f70a405a9e271ab4b5e8b308049ba18792361d2d82c0317271c33",
  "hash": "179482df9f036cc29d947f5c5f34062d6bd5d7d67f09485ceb9a843380564d84",
  "version": 2,
  "size": 374,
  "vsize": 293,
  "weight": 1169,
  "locktime": 0,
  "vin": [
    {
      "txid": "f616dfaa244b162530003c6f33e25223cf4d6a573a47b390b3f12348a56ed82e",
      "vout": 0,
      "scriptSig": {
        "asm": "",
        "hex": ""
      },
      "txinwitness": [
        "3044022036c2b90918a45669bf5ba7795d0515ed5bf39484f4a5cce5da0af8e14b9865e502200e003fe97f4874f2398da6c94d0a0217ad2c8f0946d1c2a3782de01111bdbc8401",
        "035701c8785279c4ca4eb9e792428404e609b2f6a07f2b7e13b781c2d02c752def"
      ],
      "sequence": 4294967293
    }
  ],
  "vout": [
    {
      "value": 0.00020000,
      "n": 0,
      "scriptPubKey": {
        "asm": "OP_DUP OP_HASH160 ee4c59a05db9e4f2449346061a064f90dd592396 OP_EQUALVERIFY OP_CHECKSIG",
        "desc": "addr(n3ExacD1dFiMLL37u4j5YsR1SBcqi7qCFA)#wd4jhs2m",
        "hex": "76a914ee4c59a05db9e4f2449346061a064f90dd59239688ac",
        "address": "n3ExacD1dFiMLL37u4j5YsR1SBcqi7qCFA",
        "type": "pubkeyhash"
      }
    },
    {
      "value": 0.00020000,
      "n": 1,
      "scriptPubKey": {
        "asm": "OP_HASH160 f3efef8aa6faf6e9bea495d8eb27767e7bd333d4 OP_EQUAL",
        "desc": "addr(2NFV3cvYv7Lo9LRdwaWmC2Anusn81G4cLvZ)#vmt8yp6l",
        "hex": "a914f3efef8aa6faf6e9bea495d8eb27767e7bd333d487",
        "address": "2NFV3cvYv7Lo9LRdwaWmC2Anusn81G4cLvZ",
        "type": "scripthash"
      }
    },
    {
      "value": 0.00020000,
      "n": 2,
      "scriptPubKey": {
        "asm": "0 d088a91a43228ef70355da90cf96099b2ec25571",
        "desc": "addr(tb1q6zy2jxjry280wq64m2gvl9sfnvhvy4t3w05ljv)#netmrn7s",
        "hex": "0014d088a91a43228ef70355da90cf96099b2ec25571",
        "address": "tb1q6zy2jxjry280wq64m2gvl9sfnvhvy4t3w05ljv",
        "type": "witness_v0_keyhash"
      }
    },
    {
      "value": 0.00020000,
      "n": 3,
      "scriptPubKey": {
        "asm": "0 ab74d7493cb7c76c4417af3530d2175fe9e19acdde65599f158746845ca5563b",
        "desc": "addr(tb1q4d6dwjfuklrkc3qh4u6np5shtl57rxkdmej4n8c4sarggh992cas33t5p0)#r6q3uzzp",
        "hex": "0020ab74d7493cb7c76c4417af3530d2175fe9e19acdde65599f158746845ca5563b",
        "address": "tb1q4d6dwjfuklrkc3qh4u6np5shtl57rxkdmej4n8c4sarggh992cas33t5p0",
        "type": "witness_v0_scripthash"
      }
    },
    {
      "value": 0.00020000,
      "n": 4,
      "scriptPubKey": {
        "asm": "1 1a1e447116d3b60fedb4bb3f5d4c8edef1605f9ac81a4dad665a96b3c1513c01",
        "desc": "rawtr(1a1e447116d3b60fedb4bb3f5d4c8edef1605f9ac81a4dad665a96b3c1513c01)#4h4kr4na",
        "hex": "51201a1e447116d3b60fedb4bb3f5d4c8edef1605f9ac81a4dad665a96b3c1513c01",
        "address": "tb1prg0ygugk6wmqlmd5hvl46nywmmckqhu6eqdymttxt2tt8s238sqssm7krw",
        "type": "witness_v1_taproot"
      }
    },
    {
      "value": 0.00878000,
      "n": 5,
      "scriptPubKey": {
        "asm": "0 6c7fd78355ed00ba7ebdb75ef902a5a0c9e6f90e",
        "desc": "addr(tb1qd3la0q64a5qt5l4aka00jq495ry7d7gws84kf8)#nshaknc2",
        "hex": "00146c7fd78355ed00ba7ebdb75ef902a5a0c9e6f90e",
        "address": "tb1qd3la0q64a5qt5l4aka00jq495ry7d7gws84kf8",
        "type": "witness_v0_keyhash"
      }
    }
  ]
}
```

### 署名したトランザクションをブロードキャストする

返り値のトランザクションIDをメモする

```bash
SENT_TXID=`bitcoin-core.cli sendrawtransaction $SIGNED_TX_HEX`

#確認
echo $SENT_TXID
=>
557adafc853f70a405a9e271ab4b5e8b308049ba18792361d2d82c0317271c33
```

### 送信したトランザクションを確認する

引数のトランザクションIDは，自分が送信したトランザクションIDです

```bash
bitcoin-core.cli gettransaction $SENT_TXID
```

### 10分以上経過後，UTXOのリストを確認する

UTXOの数が増えていることを確認します．

```bash
bitcoin-core.cli listunspent

```

## <a id="PREP"> </a>次の演習への準備

シェル変数に格納していた内容を次回の演習のために保存しておきます．

各自それぞれの環境によって内容が異なります．

確実に自分のシェル変数の内容を保管しておき，次回に再現できるようにしておきましょう．

### 次回の演習に必要となるシェル変数の値の一覧

```
SENT_TXID
SIGNED_TX
UNSIGNED_TX
UTXO
P2TR_ADDR
P2WSH_DESCRIPTOR
P2WSH_REDEEMSCRIPT
P2WSH_ADDR
P2WSH
P2WPKH_ADDR
P2SH_DESCRIPTOR
P2SH_REDEEMSCRIPT
P2SH_ADDR
P2SH
PUBKEY1
PUBKEY2
PUBKEY3
SIGNER1
SIGNER2
SIGNER3
P2PKH_ADDR
P2PK_ADDR
BOB
TARO
```

### シェル変数を再現するファイルの作成

以下のスクリプトの実行結果を テキストファイル として保存しておいてください

```bash
echo "TARO=\"$TARO\""
echo "BOB=\"$BOB\""
echo "BP2PK_ADDROB=\"$P2PK_ADDR\""
echo "P2PKH_ADDR=\"$P2PKH_ADDR\""
echo "SIGNER1=\"$SIGNER1\""
echo "SIGNER2=\"$SIGNER2\""
echo "SIGNER3=\"$SIGNER3\""
echo "PUBKEY1=\"$PUBKEY1\""
echo "PUBKEY2=\"$PUBKEY2\""
echo "PUBKEY3=\"$PUBKEY3\""
echo "P2SH='$(bitcoin-core.cli createmultisig 2 "[\"$PUBKEY1\",\"$PUBKEY2\",\"$PUBKEY3\"]" legacy)'"
echo "P2SH_ADDR=\"$P2SH_ADDR\""
echo "P2SH_REDEEMSCRIPT=\"$P2SH_REDEEMSCRIPT\""
echo "P2SH_DESCRIPTOR=\"$P2SH_DESCRIPTOR\""
echo "P2WPKH_ADDR=\"$P2WPKH_ADDR\""
echo "P2WSH='$(bitcoin-core.cli createmultisig 2 "[\"$PUBKEY1\",\"$PUBKEY2\",\"$PUBKEY3\"]" bech32)'"
echo "P2WSH_ADDR=\"$P2WSH_ADDR\""
echo "P2WSH_REDEEMSCRIPT=\"$P2WSH_REDEEMSCRIPT\""
echo "P2WSH_DESCRIPTOR=\"$P2WSH_DESCRIPTOR\""
echo "P2TR_ADDR=\"$P2TR_ADDR\""
echo "UNSIGNED_TX=\"$UNSIGNED_TX\""
echo "SIGNED_TX_HEX=\"$SIGNED_TX_HEX\""
echo "SENT_TXID=\"$SENT_TXID\""
```

実行結果の例（必ず自分の環境で実行してください）

自分の環境で実行した内容をテキストファイルとして保管してください．

次回の演習に必要になります．
