# 2. bitcoin core の詳細

2025/06/05

更新 Shigeichiro Yamasaki

* [BIP](https://github.com/bitcoin/bips)


ubuntu で snap を使って bitcoin core をインストールした環境を前提にします

MacOS で HomeBrew で bitcoin core をインストールした場合や bitcoin-qt のコンソールからの場合は適宜コマンドなどを読み替えてください．


## 各種トランザクションの構成を一連の流れで演習します

以下のように，合計で7個のトランザクションを作成します．

```
(UTXOの資金)--> TX1 -+-->0.0002 BTC VOUT:1 -->TX3(P2PKH) --> 0.00018 BTC
                    +-->0.0002 BTC VOUT:2 -->TX4(P2SH)  --> 0.00018 BTC
                    +-->0.0002 BTC VOUT:3 -->TX5(P2WPKH)--> 0.00018 BTC
                    +-->0.0002 BTC VOUT:4 -->TX6(P2WSH) --> 0.00018 BTC
                    +-->0.0002 BTC VOUT:5 -->TX7(P2TR)  --> 0.00018 BTC
                    +-->おつり
```


##  <a id="DESC"> </a>descriptor ワレットの作成

### UTXOの所有と discriptor

UTXO のアンロック方法を定義するために [BIP380](https://github.com/bitcoin/bips/blob/master/bip-0380.mediawiki) で output script descriptor という言語が提案されています．

### output script descriptorの構造

Scirpt Experession、Key Expression，チェックサムの３要素で構成されています．


#### Script Expression

 Bitcoinのスクリプトのタイプに対応し，関数として記述されます．
 引数として Key Expression をとります．

```
Script_Expression(Key_Expression)#checksum
```

|Script Expression|	定義 BIP|
|:--|:--|
pk(KEY)	|381
pkh(KEY)	|381
sh(SCRIPT)|	381
wpkh(KEY)	|382
wsh(SCRIPT)|	382
multi(NUM, KEY, ..., KEY)	|383
sortedmulti(NUM, KEY, ..., KEY)	|383
combo(KEY)	|384
raw(HEX)	|385
addr(ADDR)	|385
tr(KEY), tr(KEY, TREE)	|386
musig(KEY, KEY, ..., KEY)	|390


#### Key Expression

Script Expression をアンロックするために必要となる引数としての公開鍵や秘密鍵などの暗号鍵やその他の追加情報

#### チェックサム

`#` 記号のあとに８文字からなる bdch32 のエラー訂正符号に似たチェックサムを付加します

### descriptor の例

* 2-of-3 多重署名でロックされた P2SHタイプの output を表現する Descriptor の例

```json
sh(multi(2,037032106297741808e66c947dab836f3f3c28189596331e48861304674e2583d0,0210c7796ac91075ff6d4708319094707a976d265263cac42cc535104803439f84,0359ee82a3b3ec86bc8c29c149cacde7af2e00cd8952ee5767d6c221a2807c4094))#c968pfza
```

* 2-of-3 多重署名でロックされた P2WSHタイプの output を表現する Descriptor の例

```json
wsh(multi(2,037032106297741808e66c947dab836f3f3c28189596331e48861304674e2583d0,0210c7796ac91075ff6d4708319094707a976d265263cac42cc535104803439f84,0359ee82a3b3ec86bc8c29c149cacde7af2e00cd8952ee5767d6c221a2807c4094))#04tn9tty
```

### descriptor ワレットの作成

```
bitcoin-core.cli createwallet <ワレット名> <秘密鍵の無効化> <空ワレットの生成> <パスフレーズ> <再利用禁止> <*descripterの有効化> <起動時にロード> <外部署名の許可>
```

```bash
bitcoin-core.cli createwallet david false false "" false true false 
=>
{
  "name": "david",
  "warnings": [
    "Empty string given as passphrase, wallet will not be encrypted."
  ]
}
```

```bash
bitcoin-core.cli listwallets

=>
[
  "david"
]
```

ワレットの情報

```bash
bitcoin-core.cli getwalletinfo

=>
{
  "walletname": "david",
  "walletversion": 169900,
  "format": "sqlite",
  "balance": 0.00000000,
  "unconfirmed_balance": 0.00000000,
  "immature_balance": 0.00000000,
  "txcount": 0,
  "keypoolsize": 4000,
  "keypoolsize_hd_internal": 4000,
  "paytxfee": 0.00000000,
  "private_keys_enabled": true,
  "avoid_reuse": false,
  "scanning": false,
  "descriptors": true,
  "external_signer": false,
  "blank": false,
  "birthtime": 1748929537,
  "lastprocessedblock": {
    "hash": "000000000050979ee1e09ce6e58d22c3eb9183bb9097ba8e6bf958b2e16f82c4",
    "height": 84797
  }
}
```

### 最初のアドレス（最初のUTXOの所有者）の生成

```bash
Dave1=`bitcoin-core.cli getnewaddress Dave1`

#確認
echo $Dave1
=>
tb1qn9sl0ynvr0grm9ptghy3m6c5gtm0eyt9xu798y
```

### faucet から Dave1に入金

[nestnet4 faucet](https://faucet.testnet4.dev/)


* 送金完了まで 10分以上かかります（20分以上かかることもあります）
* 待ち時間がもったいないので，コインの受領完了を待たずに，以下の「６種類のビットコインアドレスの生成」などをすすめてください．

ちなみにコインが受領されると以下のように資金を持った状態になります．

```bash
bitcoin-core.cli getbalance
=>
0.00500000
```

## <a id="ADDR">5種類のビットコインアドレスの生成 </a>

6種類の outputのタイプへの送金には、それぞれ対応するアドレスタイプを持つ送金先アドレスが必要です。

以下に P2PK, P2PKH, P2SH, P2WPKH, P2WSH, P2TR の6タイプのアドレスを生成します．

#### getnewaddress コマンド

```bash
getnewaddress <ラベル> <アドレスタイプ>
```

アドレスタイプ

* legacy (base52アドレス）このタイプにさらに P2PKHとP2SHがあります
* bech32 (Bech32アドレス）このタイプにさらにP2WPKHとP2WSHがありあす
* p2sh-segwit (後方互換のため，Bech32アドレスをP2SHでラップしたアドレス)
* P2PK では、送金先の公開鍵がそのまま送金先アドレスになります

### P2PKアドレス

最も初期のアドレス形式です．

特別なアドレスフォーマットはなく，当事者の公開鍵がそのままアドレスになります

#### 公開鍵の確認方法

コマンドの文法

```
getaddressinfo <（自分のワレットの）ビットコインアドレス>
```


ここでは，P2WPKH として生成されたアドレスの情報から公開鍵を抜き出します．

```bash

以下は例です
```bash
bitcoin-core.cli getaddressinfo $Dave1

=>
{
  "address": "tb1qn9sl0ynvr0grm9ptghy3m6c5gtm0eyt9xu798y",
  "scriptPubKey": "00149961f7926c1bd03d942b45c91deb1442f6fc9165",
  "ismine": true,
  "solvable": true,
  "desc": "wpkh([2e6d8f73/84h/1h/0h/0/0]033cb8b38ae98a0fff131ace8398ed83cf38028873c15317f16e95fe54edfc9399)#vvvs02ed",
  "parent_desc": "wpkh([2e6d8f73/84h/1h/0h]tpubDCxjvYe5Q4uAtEJBA2kQE4LZGcP6d8uWUQNLYAQtZrpRwFkzSUHiAPE4mJSBAPHDvysMxcZMKT7gVTazcNLCqAK6gyA7VBNdrbmcJGJoAfX/0/*)#6yagfqp3",
  "iswatchonly": false,
  "isscript": false,
  "iswitness": true,
  "witness_version": 0,
  "witness_program": "9961f7926c1bd03d942b45c91deb1442f6fc9165",
  "pubkey": "033cb8b38ae98a0fff131ace8398ed83cf38028873c15317f16e95fe54edfc9399",
  "ischange": false,
  "timestamp": 1748929537,
  "hdkeypath": "m/84h/1h/0h/0/0",
  "hdseedid": "0000000000000000000000000000000000000000",
  "hdmasterfingerprint": "2e6d8f73",
  "labels": [
    "Dave1"
  ]
}

```

* 公開鍵は  JSON 構造のキー "pubkey": の部分です．

この公開鍵の情報を [jq コマンド](https://www.karakaram.com/notes-on-jq-command/) を利用して P2PK アドレスとしてシェル変数 P2PK_ADDR に代入しておきます

```bash
P2PK_ADDR=`bitcoin-core.cli getaddressinfo $Dave1|jq -r '.pubkey'`

#確認例
echo $P2PK_ADDR
=>
033cb8b38ae98a0fff131ace8398ed83cf38028873c15317f16e95fe54edfc9399
```

### P2PKHアドレス

当事者の公開鍵のハッシュ値から生成され base52 エンコードしたアドレスです

シェル変数 P2PKH_ADDRに代入しておきます．

```bash
P2PKH_ADDR=`bitcoin-core.cli getnewaddress pkh_user legacy`

#確認例
echo $P2PKH_ADDR
=>
moWeV9fpfH3dFLdhwRWCPGAi5fxbYkedDX
```

### P2SHアドレス

当事者の公開鍵ではなく，bitcoin スクリプトのハッシュ値から生成されたアドレスです．

その典型例がマルチシグ（多重署名）用アドレスです。

#### マルチシグ用公開鍵のリストの作成
 
アドレスの生成には、n人の署名者たちの公開鍵が必要です。

* 3人の署名者のアドレス生成
  
```bash
SIGNER1=`bitcoin-core.cli getnewaddress signer1`
SIGNER2=`bitcoin-core.cli getnewaddress signer2`
SIGNER3=`bitcoin-core.cli getnewaddress signer3`

#確認例
echo $SIGNER1
=>
tb1q6trzzz23h33qxptte4r2cy6qfdevxrj4gxf5d5
echo $SIGNER2
=>
tb1q5vqsdxw8gjz9pt26epej7zqge26h63vlg25jl3
echo $SIGNER3
=>
tb1qgepxjyrrh0dwrpptmskyc4guwldnmdhwjv5fm7
```

* ３人の署名者の公開鍵
  
```bash
PUBKEY1=`bitcoin-core.cli getaddressinfo $SIGNER1|jq -r '.pubkey'`
PUBKEY2=`bitcoin-core.cli getaddressinfo $SIGNER2|jq -r '.pubkey'`
PUBKEY3=`bitcoin-core.cli getaddressinfo $SIGNER3|jq -r '.pubkey'`

#確認例
echo $PUBKEY1
=> 
03148d2083a2daed3cc24113643e8865655fc9026e1f86d7cff8b4f972b0007c95
echo $PUBKEY2
=>
039d7a652601e937efb519b0d4e0cd94c3112c662c37d96f56c551c8b2cc81c47b
echo $PUBKEY3
=>
02870d437efb5b4aaa28021ea1a3d54bde004a0997a943d81b404ccfe901dfa58f
```

#### マルチシグアドレスの生成

 m of n マルチシグ（n人の公開鍵の中でm人の署名があれば成功する署名）のためのアドレス生成です。
 
コマンドの文法

```
createmultisig <必要署名数 m> '[<公開鍵1>,<公開鍵2>,...,<公開鍵n>]' <アドレスタイプ>
```

 <アドレスタイプ> の指定によって　P2SH　と　P2WSH　が区別されます。

アドレスタイプ:  P2SH の場合 "legacy", P2WSH の場合 "bech32"

マルチシグアドレス生成結果

```json
{                            (json object)
  "address" : "str",         (string) The value of the new multisig address.
  "redeemScript" : "hex",    (string) The string value of the hex-encoded redemption script.
  "descriptor" : "str"       (string) The descriptor for this multisig
}
```

2 of 3 の場合

```bash
P2SH=`bitcoin-core.cli createmultisig 2 "[\"$PUBKEY1\",\"$PUBKEY2\",\"$PUBKEY3\"]" legacy`

#確認例
echo $P2SH
=>
{ "address": "2NB2VDzwnCg7MS1D4kqBVUgfkxjKZ5TF16c", "redeemScript": "52210248213e8f4521d177938de16ebed519f1deb23560822c6a514495e68e2c75d9dc210353e0d6e0c1cea221fad989a82ad0cbb72ca538277b614e42bc975f891576cb3b210257638fdee103eced9aa5c24ade4d8c108c3069aee52b40d008a3ae6f389b942d53ae", "descriptor": "sh(multi(2,0248213e8f4521d177938de16ebed519f1deb23560822c6a514495e68e2c75d9dc,0353e0d6e0c1cea221fad989a82ad0cbb72ca538277b614e42bc975f891576cb3b,0257638fdee103eced9aa5c24ade4d8c108c3069aee52b40d008a3ae6f389b942d))#sc9ctaw5" }
```

ここでは，シェル変数 P2SH_ADDRに生成したアドレスを代入しておきます

```bash
P2SH_ADDR=`echo $P2SH|jq -r '.address'`

#確認例
echo $P2SH_ADDR
=>
2NFzv1UEkA1NAXVANtzEmDfCv2AHCCRW5Q9
```

#### P2SH の redeemScript

P2SHのアウトプットをアンロックするには、redeemScript が必要です

上記のマルチシグアドレス生成時に対応する redeemscript も自動的に生成されています．

シェル変数 P2SH_REDEEMSCRIPT にその内容を代入しておきます

```bash
P2SH_REDEEMSCRIPT=`echo $P2SH|jq -r '.redeemScript'`

#確認例
echo $P2SH_REDEEMSCRIPT
=>
52210248213e8f4521d177938de16ebed519f1deb23560822c6a514495e68e2c75d9dc210353e0d6e0c1cea221fad989a82ad0cbb72ca538277b614e42bc975f891576cb3b210257638fdee103eced9aa5c24ade4d8c108c3069aee52b40d008a3ae6f389b942d53ae
```

#### P2SH descriptor

* P2SH でロックされているUTXOをアンロックするためには，まず第１段階として redeemscript とそのハッシュ値が必要です．

* 第２段階で，マルチシグの実際の署名を行う場所は署名者それぞれのワレットで， redeemScript に沿ってそれぞれの秘密鍵を使って署名を行います。

* それを可能にするためには、それぞれの署名者のワレットに redeemScript などの必要な情報を組み込む必要があります。


ここでは，シェル変数 P2SH_DESCRIPTOR にその内容を代入しておきます．

```bash
P2SH_DESCRIPTOR=`echo $P2SH|jq -r '.descriptor'`

#確認例
echo $P2SH_DESCRIPTOR
=>
sh(multi(2,03148d2083a2daed3cc24113643e8865655fc9026e1f86d7cff8b4f972b0007c95,039d7a652601e937efb519b0d4e0cd94c3112c662c37d96f56c551c8b2cc81c47b,02870d437efb5b4aaa28021ea1a3d54bde004a0997a943d81b404ccfe901dfa58f))#52dc7m7f
```

##### マルチシグアドレス生成の実際と公開鍵の提示

ここでの例では、複数のアドレスを一つのワレットで生成していますが、実際は複数の人のワレットで生成します。

上記のように、マルチシグアドレスの生成には公開鍵が必要です。

しかし、アドレスごとの公開鍵はは非公開情報なので，信頼できる第三者以外には開示してはいけません．

実際にマルチシグに参加する場合，当事者はそれぞれ自分の公開鍵を信頼できる第三者であるマルチシグアドレス生成者に提示することになります．


### P2WPKHアドレス 

Bech32アドレスの生成（受領者の公開鍵ハッシュの場合）

ここでは，シェル変数 P2WPKH_ADDR にアドレスを代入しておきます．

```bash
P2WPKH_ADDR=`bitcoin-core.cli getnewaddress wpkh_user bech32`

#確認例
echo $P2WPKH_ADDR

=>
tb1qjm0q5cgvc3u5r4vfhj9dgr8kcr64s9ff5khjya
```

### P2WSHアドレス

基本的に P2SH と同じです。

* 2 of 3 の場合

```bash
P2WSH=`bitcoin-core.cli createmultisig 2 "[\"$PUBKEY1\",\"$PUBKEY2\",\"$PUBKEY3\"]" bech32`

# 確認例
echo $P2WSH
=>
{ "address": "tb1q9aa0pzhzcts35k2vtax63kmqpntu6f0pqja8vcqu3depjadwdjmsm2c28r", "redeemScript": "522103148d2083a2daed3cc24113643e8865655fc9026e1f86d7cff8b4f972b0007c9521039d7a652601e937efb519b0d4e0cd94c3112c662c37d96f56c551c8b2cc81c47b2102870d437efb5b4aaa28021ea1a3d54bde004a0997a943d81b404ccfe901dfa58f53ae", "descriptor": "wsh(multi(2,03148d2083a2daed3cc24113643e8865655fc9026e1f86d7cff8b4f972b0007c95,039d7a652601e937efb519b0d4e0cd94c3112c662c37d96f56c551c8b2cc81c47b,02870d437efb5b4aaa28021ea1a3d54bde004a0997a943d81b404ccfe901dfa58f))#zg4vkgrr" }

```

ここではシェル変数 P2WSH_ADDR に内容を代入しておきます

```bash
P2WSH_ADDR=`echo $P2WSH|jq -r '.address'`

#確認例
echo $P2WSH_ADDR
=>
tb1q9aa0pzhzcts35k2vtax63kmqpntu6f0pqja8vcqu3depjadwdjmsm2c28r
```

#### P2WSH の redeemScript

ここではシェル変数 P2WSH_REDEEMSCRIPT にその内容を代入しておきます

```bash
P2WSH_REDEEMSCRIPT=`echo $P2WSH|jq -r '.redeemScript'`

#確認例
echo $P2WSH_REDEEMSCRIPT
=>
52210248213e8f4521d177938de16ebed519f1deb23560822c6a514495e68e2c75d9dc210353e0d6e0c1cea221fad989a82ad0cbb72ca538277b614e42bc975f891576cb3b210257638fdee103eced9aa5c24ade4d8c108c3069aee52b40d008a3ae6f389b942d53ae
```

#### P2SH descriptor

ここでは，シェル変数 P2WSH_DESCRIPTOR にその内容を代入しておきます．

```bash
P2WSH_DESCRIPTOR=`echo $P2WSH|jq -r '.descriptor'`

#確認例
echo $P2WSH_DESCRIPTOR
=>
wsh(multi(2,03148d2083a2daed3cc24113643e8865655fc9026e1f86d7cff8b4f972b0007c95,039d7a652601e937efb519b0d4e0cd94c3112c662c37d96f56c551c8b2cc81c47b,02870d437efb5b4aaa28021ea1a3d54bde004a0997a943d81b404ccfe901dfa58f))#zg4vkgrr
```

### P2TRアドレス

Bech32m アドレスの生成（受領者の公開鍵）

ここでは，シェル変数 P2TR_ADDR にアドレスを代入しておきます．

getnewaddress コマンドでラベルの設定が必要です

```bash
P2TR_ADDR=`bitcoin-core.cli getnewaddress tr_user bech32m`

#確認例
echo $P2TR_ADDR
=>
tb1pu98a025a5pxa2mykur4kneq9jx0uwf56lxm3rnyt0wmda5tau4fs3e8qq5
```

## <a id="TX1"> </a>以上の UTXO を生成するトランザクションの送信


### 使用するUTXOを確認する

以下では、"amount": 0.0010000　を持つUTXOを利用しますが，実際には自分が所持している UTXO の金額でトランザクションを作成してください．

使用する"txid" と "vout"と "amount" と "address" の値をメモしてください

#### UTXOの例

自分のUTXOを確認してください

★★（以下は例です，必ず自分のUTXOのものをチェックしてください！）


UTXOを複数所持している場合は，amount が 0.001 以上あるものを一つ選んでください．


★★ （ここではUTXOの 金額を 0.001 BTC にしていますが，それよりも多い場合は必ずおつりの計算を間違えないようにしてください！！）

★★ （おつりの計算を間違えると，失った所持金はマイナーの報酬になり，戻ってきません）


```bash
bitcoin-core.cli listunspent

# ここでの例
=>
[
  {
    "txid": "3084d35690cdf25702000b4af622cfba85ac0519095973bcf70d6133bb3d4cab",
    "vout": 0,
    "address": "n2yA2WM4UUiYXEZ4TFWi8AXQT12Se7HyUT",
    "label": "pkh_user",
    "scriptPubKey": "76a914eb4f3ff2de050b88afbbe74df54187c06bf027b488ac",
    "amount": 0.00010000,
    "confirmations": 406,
    "spendable": true,
    "solvable": true,
    "desc": "pkh([9278fcb8/44h/1h/0h/0/0]03cfc732476361e280a4b2e5922e21484117d43e300a276dbf22610f303d8b1e78)#u9kxhv2p",
    "parent_descs": [
      "pkh(tpubD6NzVbkrYhZ4XyV3UcGaHzzXH21ZToEr1Kx55UU3SVR6KTnvjJMP6gDSDo8Q4ZKX2KTkPnipXsEMAz4H5RhyvGbirEFxewpuswV9NAoy226/44h/1h/0h/0/*)#kt0esuzx"
    ],
    "safe": true
  },
  {
    "txid": "b1494b7638eb5607cba8242fffa9287c3dc560e175e522c7137f4cb8fd611bbc",
    "vout": 1,
    "address": "tb1qln4u5rsfjmcjgmlw8n4ecq252ws7skkcr9uuml",
    "label": "",
    "scriptPubKey": "0014fcebca0e0996f1246fee3ceb9c015453a1e85ad8",
    "amount": 0.00398000,
    "confirmations": 409,
    "spendable": true,
    "solvable": true,
    "desc": "wpkh([9278fcb8/84h/1h/0h/0/0]0210d8774ce4d535d68831ccb4edec1a6910a29353f20a9a2687596e9e224aee48)#ha9yqrvk",
    "parent_descs": [
      "wpkh(tpubD6NzVbkrYhZ4XyV3UcGaHzzXH21ZToEr1Kx55UU3SVR6KTnvjJMP6gDSDo8Q4ZKX2KTkPnipXsEMAz4H5RhyvGbirEFxewpuswV9NAoy226/84h/1h/0h/0/*)#50e604cn"
    ],
    "safe": true
  },
  {
    "txid": "a038af65a49bfdd738a26069650322a901cef119e049b9347d9109311747ad12",
    "vout": 0,
    "address": "tb1qk7l3xmngw3x5sd9w2egdf5yzdm939ezql5jvq2",
    "label": "BOB1",
    "scriptPubKey": "0014b7bf136e68744d4834ae5650d4d0826ecb12e440",
    "amount": 0.00500000,
    "confirmations": 54,
    "spendable": true,
    "solvable": true,
    "desc": "wpkh([9278fcb8/84h/1h/0h/0/9]02cb7815dcbdc707e71852ac7b5c17648b54fc14d068c9dd3ec67d3c4a47d74068)#m009cy63",
    "parent_descs": [
      "wpkh(tpubD6NzVbkrYhZ4XyV3UcGaHzzXH21ZToEr1Kx55UU3SVR6KTnvjJMP6gDSDo8Q4ZKX2KTkPnipXsEMAz4H5RhyvGbirEFxewpuswV9NAoy226/84h/1h/0h/0/*)#50e604cn"
    ],
    "safe": true
  }
]

```

この例では，UTXOの配列の2番目(インデックスは 0 から始まるので [1] になります)のUTXOの "amount" が  0.00398000 BTC なので，これを使うことにします．

シェル変数への代入を使う場合は以下のようになります


```bash
UTXOS=`bitcoin-core.cli listunspent`
UTXO=`echo $UTXOS | jq -r '.[1]'`

# 確認例
echo $UTXO

=>
{ "txid": "b1494b7638eb5607cba8242fffa9287c3dc560e175e522c7137f4cb8fd611bbc", "vout": 1, "address": "tb1qln4u5rsfjmcjgmlw8n4ecq252ws7skkcr9uuml", "label": "", "scriptPubKey": "0014fcebca0e0996f1246fee3ceb9c015453a1e85ad8", "amount": 0.00398000, "confirmations": 409, "spendable": true, "solvable": true, "desc": "wpkh([9278fcb8/84h/1h/0h/0/0]0210d8774ce4d535d68831ccb4edec1a6910a29353f20a9a2687596e9e224aee48)#ha9yqrvk", "parent_descs": [ "wpkh(tpubD6NzVbkrYhZ4XyV3UcGaHzzXH21ZToEr1Kx55UU3SVR6KTnvjJMP6gDSDo8Q4ZKX2KTkPnipXsEMAz4H5RhyvGbirEFxewpuswV9NAoy226/84h/1h/0h/0/*)#50e604cn" ], "safe": true }
```

自分のUTXOの txid , vout, address をシェル変数に代入します

```
TXID="<txidの内容>"
VOUT="<voutの内容>"
ADDRESS="<addressの内容>"
```

上記の例の場合
★（必ず自分のUTXOのものに置き換えてください）

```bash
TXID=`echo $UTXO|jq -r '.txid'`
VOUT=`echo $UTXO|jq -r '.vout'`
CHANGE_ADDRESS=`echo $UTXO|jq -r '.address'`

# 確認例
echo $TXID
=>
b1494b7638eb5607cba8242fffa9287c3dc560e175e522c7137f4cb8fd611bbc

echo $VOUT
=>
1

echo $CHANGE_ADDRESS
=>
tb1qln4u5rsfjmcjgmlw8n4ecq252ws7skkcr9uuml
```

★ この CHANGE_ADDRESS に指定するアドレスは，UTXOを所有している自分のアドレスで，おつりとして取り戻すためのアドレスです．

### 5+1 個のoutputを持つトランザクションを作成する

* input として使用するUTXOの txid と vout
* output は、生成した5つのアドレスです
* 5つの送金先アドレスへの送金金額は，それぞれ 0.0001 とします．
* outputにはおつり用のアドレスがさらに一つ必要です．ここではUTXOの所有者にします．

#### おつりの計算

ここではトランザクション手数料は 0.00002 以上とします．

UTXOの資金を 0.0039 BTC とすると

```
0.0039 - (0.0001)*5 - 0.00002 = 0.0033799999999999998
```

なので，ここではおつりを 0.003379 BTC とします

### 5種類のアウトプットを持つ未署名トランザクションの作成

JSON形式で input と output を作成し，未署名のトランザクションを作成します

P2PKH, P2SH, P2WPKH, P2WSH, P2TR の５種類です．

実行結果は 16進数形式です．

```bash
UNSIGNED_TX=`bitcoin-core.cli createrawtransaction "[{\"txid\":\"$TXID\",\"vout\":$VOUT}]" "[{\"$P2PKH_ADDR\":0.0001},{\"$P2SH_ADDR\":0.0001},{\"$P2WPKH_ADDR\":0.0001},{\"$P2WSH_ADDR\":0.0001},{\"$P2TR_ADDR\":0.0001},{\"$CHANGE_ADDRESS\":0.003379}]"`

# 確認例
echo $UNSIGNED_TX
=>
0200000001bc1b61fdb84c7f13c722e575e160c53d7c28a9ff2f24a8cb0756eb38764b49b10100000000fdffffff0610270000000000001976a914fd6d4ca68d15ae65ee7456afcd292f2ceba3787f88ac102700000000000017a914c309934c0496e88931c2e15b939460d68838a2838710270000000000001600147e30c8b088858d2968b7bd973c4ce225c9932d8e10270000000000002200202dd40d9dbad0b02dc98e94268c334d6cf65fc68bd4bcb9283c9f23cc0d00d73a1027000000000000225120ba4f2d17d859ce32164a4110168fce3fa243a745b802c86844daa488dd6b429eec27050000000000160014fcebca0e0996f1246fee3ceb9c015453a1e85ad800000000
```

作成したトランザクションの確認

```bash
bitcoin-core.cli decoderawtransaction $UNSIGNED_TX

=>
{
  "txid": "a01ada9c51a4109c1d7583ad9e1facdc0c2e1de5095e6b5eaccf0427fcb9e5ca",
  "hash": "a01ada9c51a4109c1d7583ad9e1facdc0c2e1de5095e6b5eaccf0427fcb9e5ca",
  "version": 2,
  "size": 265,
  "vsize": 265,
  "weight": 1060,
  "locktime": 0,
  "vin": [
    {
      "txid": "b1494b7638eb5607cba8242fffa9287c3dc560e175e522c7137f4cb8fd611bbc",
      "vout": 1,
      "scriptSig": {
        "asm": "",
        "hex": ""
      },
      "sequence": 4294967293
    }
  ],
  "vout": [
    {
      "value": 0.00010000,
      "n": 0,
      "scriptPubKey": {
        "asm": "OP_DUP OP_HASH160 fd6d4ca68d15ae65ee7456afcd292f2ceba3787f OP_EQUALVERIFY OP_CHECKSIG",
        "desc": "addr(n4cxBqtUBoG8uM9DRGrqsiWFCfzkfjHVfa)#xuxs6vdl",
        "hex": "76a914fd6d4ca68d15ae65ee7456afcd292f2ceba3787f88ac",
        "address": "n4cxBqtUBoG8uM9DRGrqsiWFCfzkfjHVfa",
        "type": "pubkeyhash"
      }
    },
    {
      "value": 0.00010000,
      "n": 1,
      "scriptPubKey": {
        "asm": "OP_HASH160 c309934c0496e88931c2e15b939460d68838a283 OP_EQUAL",
        "desc": "addr(2NB2VDzwnCg7MS1D4kqBVUgfkxjKZ5TF16c)#50eerkqk",
        "hex": "a914c309934c0496e88931c2e15b939460d68838a28387",
        "address": "2NB2VDzwnCg7MS1D4kqBVUgfkxjKZ5TF16c",
        "type": "scripthash"
      }
    },
    {
      "value": 0.00010000,
      "n": 2,
      "scriptPubKey": {
        "asm": "0 7e30c8b088858d2968b7bd973c4ce225c9932d8e",
        "desc": "addr(tb1q0ccv3vygskxjj69hhktncn8zyhyextvwj87ser)#vtm75vvm",
        "hex": "00147e30c8b088858d2968b7bd973c4ce225c9932d8e",
        "address": "tb1q0ccv3vygskxjj69hhktncn8zyhyextvwj87ser",
        "type": "witness_v0_keyhash"
      }
    },
    {
      "value": 0.00010000,
      "n": 3,
      "scriptPubKey": {
        "asm": "0 2dd40d9dbad0b02dc98e94268c334d6cf65fc68bd4bcb9283c9f23cc0d00d73a",
        "desc": "addr(tb1q9h2qm8d66zczmjvwjsngcv6ddnm9l35t6j7tj2punu3ucrgq6uaq2x3clm)#65ld0n8m",
        "hex": "00202dd40d9dbad0b02dc98e94268c334d6cf65fc68bd4bcb9283c9f23cc0d00d73a",
        "address": "tb1q9h2qm8d66zczmjvwjsngcv6ddnm9l35t6j7tj2punu3ucrgq6uaq2x3clm",
        "type": "witness_v0_scripthash"
      }
    },
    {
      "value": 0.00010000,
      "n": 4,
      "scriptPubKey": {
        "asm": "1 ba4f2d17d859ce32164a4110168fce3fa243a745b802c86844daa488dd6b429e",
        "desc": "rawtr(ba4f2d17d859ce32164a4110168fce3fa243a745b802c86844daa488dd6b429e)#rlhqvq6c",
        "hex": "5120ba4f2d17d859ce32164a4110168fce3fa243a745b802c86844daa488dd6b429e",
        "address": "tb1phf8j697ct88ry9j2gygpdr7w873y8f69hqpvs6zym2jg3httg20qwl7vgw",
        "type": "witness_v1_taproot"
      }
    },
    {
      "value": 0.00337900,
      "n": 5,
      "scriptPubKey": {
        "asm": "0 fcebca0e0996f1246fee3ceb9c015453a1e85ad8",
        "desc": "addr(tb1qln4u5rsfjmcjgmlw8n4ecq252ws7skkcr9uuml)#chqmtsu2",
        "hex": "0014fcebca0e0996f1246fee3ceb9c015453a1e85ad8",
        "address": "tb1qln4u5rsfjmcjgmlw8n4ecq252ws7skkcr9uuml",
        "type": "witness_v0_keyhash"
      }
    }
  ]
}
```

### 作成したトランザクションに署名する

```bash
SIGNED_TX=`bitcoin-core.cli signrawtransactionwithwallet $UNSIGNED_TX`

# 確認例
echo $SIGNED_TX
=>
{ "hex": "02000000000101bc1b61fdb84c7f13c722e575e160c53d7c28a9ff2f24a8cb0756eb38764b49b10100000000fdffffff0610270000000000001976a914fd6d4ca68d15ae65ee7456afcd292f2ceba3787f88ac102700000000000017a914c309934c0496e88931c2e15b939460d68838a2838710270000000000001600147e30c8b088858d2968b7bd973c4ce225c9932d8e10270000000000002200202dd40d9dbad0b02dc98e94268c334d6cf65fc68bd4bcb9283c9f23cc0d00d73a1027000000000000225120ba4f2d17d859ce32164a4110168fce3fa243a745b802c86844daa488dd6b429eec27050000000000160014fcebca0e0996f1246fee3ceb9c015453a1e85ad80247304402200a8514ddaf1582e69410351bfa805bc3b174d9bc34121f6f460f0be32288b77502206a8e74bf912e97b48b3363babd70419e17fe02e565abf9b653c2fbea29c545b901210210d8774ce4d535d68831ccb4edec1a6910a29353f20a9a2687596e9e224aee4800000000", "complete": true }
```

署名したトランザクションの16進数形式内容の確認（hex の値）

```bash
SIGNED_TX_HEX=`echo $SIGNED_TX|jq -r '.hex'`

# 確認例
echo $SIGNED_TX_HEX
=>
02000000000101bc1b61fdb84c7f13c722e575e160c53d7c28a9ff2f24a8cb0756eb38764b49b10100000000fdffffff0610270000000000001976a914fd6d4ca68d15ae65ee7456afcd292f2ceba3787f88ac102700000000000017a914c309934c0496e88931c2e15b939460d68838a2838710270000000000001600147e30c8b088858d2968b7bd973c4ce225c9932d8e10270000000000002200202dd40d9dbad0b02dc98e94268c334d6cf65fc68bd4bcb9283c9f23cc0d00d73a1027000000000000225120ba4f2d17d859ce32164a4110168fce3fa243a745b802c86844daa488dd6b429eec27050000000000160014fcebca0e0996f1246fee3ceb9c015453a1e85ad80247304402200a8514ddaf1582e69410351bfa805bc3b174d9bc34121f6f460f0be32288b77502206a8e74bf912e97b48b3363babd70419e17fe02e565abf9b653c2fbea29c545b901210210d8774ce4d535d68831ccb4edec1a6910a29353f20a9a2687596e9e224aee4800000000

```

★ txinwitness 領域が作成されていることを確認する

```bash
bitcoin-core.cli decoderawtransaction $SIGNED_TX_HEX

=>
{
  "txid": "a01ada9c51a4109c1d7583ad9e1facdc0c2e1de5095e6b5eaccf0427fcb9e5ca",
  "hash": "6090c7ba78a0fd0d2563f4e0c659fb788338704594e341aa925ecd2379b863b2",
  "version": 2,
  "size": 374,
  "vsize": 293,
  "weight": 1169,
  "locktime": 0,
  "vin": [
    {
      "txid": "b1494b7638eb5607cba8242fffa9287c3dc560e175e522c7137f4cb8fd611bbc",
      "vout": 1,
      "scriptSig": {
        "asm": "",
        "hex": ""
      },
      "txinwitness": [
        "304402200a8514ddaf1582e69410351bfa805bc3b174d9bc34121f6f460f0be32288b77502206a8e74bf912e97b48b3363babd70419e17fe02e565abf9b653c2fbea29c545b901",
        "0210d8774ce4d535d68831ccb4edec1a6910a29353f20a9a2687596e9e224aee48"
      ],
      "sequence": 4294967293
    }
  ],
  "vout": [
    {
      "value": 0.00010000,
      "n": 0,
      "scriptPubKey": {
        "asm": "OP_DUP OP_HASH160 fd6d4ca68d15ae65ee7456afcd292f2ceba3787f OP_EQUALVERIFY OP_CHECKSIG",
        "desc": "addr(n4cxBqtUBoG8uM9DRGrqsiWFCfzkfjHVfa)#xuxs6vdl",
        "hex": "76a914fd6d4ca68d15ae65ee7456afcd292f2ceba3787f88ac",
        "address": "n4cxBqtUBoG8uM9DRGrqsiWFCfzkfjHVfa",
        "type": "pubkeyhash"
      }
    },
    {
      "value": 0.00010000,
      "n": 1,
      "scriptPubKey": {
        "asm": "OP_HASH160 c309934c0496e88931c2e15b939460d68838a283 OP_EQUAL",
        "desc": "addr(2NB2VDzwnCg7MS1D4kqBVUgfkxjKZ5TF16c)#50eerkqk",
        "hex": "a914c309934c0496e88931c2e15b939460d68838a28387",
        "address": "2NB2VDzwnCg7MS1D4kqBVUgfkxjKZ5TF16c",
        "type": "scripthash"
      }
    },
    {
      "value": 0.00010000,
      "n": 2,
      "scriptPubKey": {
        "asm": "0 7e30c8b088858d2968b7bd973c4ce225c9932d8e",
        "desc": "addr(tb1q0ccv3vygskxjj69hhktncn8zyhyextvwj87ser)#vtm75vvm",
        "hex": "00147e30c8b088858d2968b7bd973c4ce225c9932d8e",
        "address": "tb1q0ccv3vygskxjj69hhktncn8zyhyextvwj87ser",
        "type": "witness_v0_keyhash"
      }
    },
    {
      "value": 0.00010000,
      "n": 3,
      "scriptPubKey": {
        "asm": "0 2dd40d9dbad0b02dc98e94268c334d6cf65fc68bd4bcb9283c9f23cc0d00d73a",
        "desc": "addr(tb1q9h2qm8d66zczmjvwjsngcv6ddnm9l35t6j7tj2punu3ucrgq6uaq2x3clm)#65ld0n8m",
        "hex": "00202dd40d9dbad0b02dc98e94268c334d6cf65fc68bd4bcb9283c9f23cc0d00d73a",
        "address": "tb1q9h2qm8d66zczmjvwjsngcv6ddnm9l35t6j7tj2punu3ucrgq6uaq2x3clm",
        "type": "witness_v0_scripthash"
      }
    },
    {
      "value": 0.00010000,
      "n": 4,
      "scriptPubKey": {
        "asm": "1 ba4f2d17d859ce32164a4110168fce3fa243a745b802c86844daa488dd6b429e",
        "desc": "rawtr(ba4f2d17d859ce32164a4110168fce3fa243a745b802c86844daa488dd6b429e)#rlhqvq6c",
        "hex": "5120ba4f2d17d859ce32164a4110168fce3fa243a745b802c86844daa488dd6b429e",
        "address": "tb1phf8j697ct88ry9j2gygpdr7w873y8f69hqpvs6zym2jg3httg20qwl7vgw",
        "type": "witness_v1_taproot"
      }
    },
    {
      "value": 0.00337900,
      "n": 5,
      "scriptPubKey": {
        "asm": "0 fcebca0e0996f1246fee3ceb9c015453a1e85ad8",
        "desc": "addr(tb1qln4u5rsfjmcjgmlw8n4ecq252ws7skkcr9uuml)#chqmtsu2",
        "hex": "0014fcebca0e0996f1246fee3ceb9c015453a1e85ad8",
        "address": "tb1qln4u5rsfjmcjgmlw8n4ecq252ws7skkcr9uuml",
        "type": "witness_v0_keyhash"
      }
    }
  ]
}
```

### 署名したトランザクションをブロードキャストする

返り値のトランザクションIDをメモする

```bash
SENT_TXID=`bitcoin-core.cli sendrawtransaction $SIGNED_TX_HEX`

#確認例
echo $SENT_TXID
=>
a01ada9c51a4109c1d7583ad9e1facdc0c2e1de5095e6b5eaccf0427fcb9e5ca
```

### 送信したトランザクションを確認する

引数のトランザクションIDは，自分が送信したトランザクションIDです

```bash
bitcoin-core.cli gettransaction $SENT_TXID
```

### 10分以上経過後，UTXOのリストを確認する

UTXOの数が増えていることを確認します．

```bash
bitcoin-core.cli listunspent

```

## <a id="PREP"> </a>次の演習への準備

シェル変数に格納していた内容を次回の演習のために保存しておきます．

各自それぞれの環境によって内容が異なります．

確実に自分のシェル変数の内容を保管しておき，次回に再現できるようにしておきましょう．

### 次回の演習に必要となるシェル変数の値の一覧

```
SENT_TXID
SIGNED_TX
UNSIGNED_TX
UTXO
P2TR_ADDR
P2WSH_DESCRIPTOR
P2WSH_REDEEMSCRIPT
P2WSH_ADDR
P2WSH
P2WPKH_ADDR
P2SH_DESCRIPTOR
P2SH_REDEEMSCRIPT
P2SH_ADDR
P2SH
PUBKEY1
PUBKEY2
PUBKEY3
SIGNER1
SIGNER2
SIGNER3
P2PKH_ADDR
P2PK_ADDR
BOB
TARO
```

### シェル変数を再現するファイルの作成

以下のスクリプトの実行結果を テキストファイル として保存しておいてください

```bash
echo "BP2PK_ADDROB=\"$P2PK_ADDR\""
echo "P2PKH_ADDR=\"$P2PKH_ADDR\""
echo "SIGNER1=\"$SIGNER1\""
echo "SIGNER2=\"$SIGNER2\""
echo "SIGNER3=\"$SIGNER3\""
echo "PUBKEY1=\"$PUBKEY1\""
echo "PUBKEY2=\"$PUBKEY2\""
echo "PUBKEY3=\"$PUBKEY3\""
echo "P2SH='$(bitcoin-core.cli createmultisig 2 "[\"$PUBKEY1\",\"$PUBKEY2\",\"$PUBKEY3\"]" legacy)'"
echo "P2SH_ADDR=\"$P2SH_ADDR\""
echo "P2SH_REDEEMSCRIPT=\"$P2SH_REDEEMSCRIPT\""
echo "P2SH_DESCRIPTOR=\"$P2SH_DESCRIPTOR\""
echo "P2WPKH_ADDR=\"$P2WPKH_ADDR\""
echo "P2WSH='$(bitcoin-core.cli createmultisig 2 "[\"$PUBKEY1\",\"$PUBKEY2\",\"$PUBKEY3\"]" bech32)'"
echo "P2WSH_ADDR=\"$P2WSH_ADDR\""
echo "P2WSH_REDEEMSCRIPT=\"$P2WSH_REDEEMSCRIPT\""
echo "P2WSH_DESCRIPTOR=\"$P2WSH_DESCRIPTOR\""
echo "P2TR_ADDR=\"$P2TR_ADDR\""
echo "UNSIGNED_TX=\"$UNSIGNED_TX\""
echo "SIGNED_TX_HEX=\"$SIGNED_TX_HEX\""
echo "SENT_TXID=\"$SENT_TXID\""
```

実行結果の例（必ず自分の環境で実行してください）

自分の環境で実行した内容をテキストファイルとして保管してください．

次回の演習に必要になります．

バックアップファイルの例

```bash
BP2PK_ADDROB="02cb7815dcbdc707e71852ac7b5c17648b54fc14d068c9dd3ec67d3c4a47d74068"
P2PKH_ADDR="n4cxBqtUBoG8uM9DRGrqsiWFCfzkfjHVfa"
SIGNER1="tb1qv66l27aexdz880u3y8uruc0xveta4d9uj69l54"
SIGNER2="tb1qlrur8hm6p3k24nwrfywwhwr367hwu57fmy5hrm"
SIGNER3="tb1qlj6lvyw4cfxk8mlewvqkuvf84a5s8hf7ye03aj"
PUBKEY1="0248213e8f4521d177938de16ebed519f1deb23560822c6a514495e68e2c75d9dc"
PUBKEY2="0353e0d6e0c1cea221fad989a82ad0cbb72ca538277b614e42bc975f891576cb3b"
PUBKEY3="0257638fdee103eced9aa5c24ade4d8c108c3069aee52b40d008a3ae6f389b942d"
P2SH='{
  "address": "2NB2VDzwnCg7MS1D4kqBVUgfkxjKZ5TF16c",
  "redeemScript": "52210248213e8f4521d177938de16ebed519f1deb23560822c6a514495e68e2c75d9dc210353e0d6e0c1cea221fad989a82ad0cbb72ca538277b614e42bc975f891576cb3b210257638fdee103eced9aa5c24ade4d8c108c3069aee52b40d008a3ae6f389b942d53ae",
  "descriptor": "sh(multi(2,0248213e8f4521d177938de16ebed519f1deb23560822c6a514495e68e2c75d9dc,0353e0d6e0c1cea221fad989a82ad0cbb72ca538277b614e42bc975f891576cb3b,0257638fdee103eced9aa5c24ade4d8c108c3069aee52b40d008a3ae6f389b942d))#sc9ctaw5"
}'
P2SH_ADDR="2NB2VDzwnCg7MS1D4kqBVUgfkxjKZ5TF16c"
P2SH_REDEEMSCRIPT="52210248213e8f4521d177938de16ebed519f1deb23560822c6a514495e68e2c75d9dc210353e0d6e0c1cea221fad989a82ad0cbb72ca538277b614e42bc975f891576cb3b210257638fdee103eced9aa5c24ade4d8c108c3069aee52b40d008a3ae6f389b942d53ae"
P2SH_DESCRIPTOR="sh(multi(2,0248213e8f4521d177938de16ebed519f1deb23560822c6a514495e68e2c75d9dc,0353e0d6e0c1cea221fad989a82ad0cbb72ca538277b614e42bc975f891576cb3b,0257638fdee103eced9aa5c24ade4d8c108c3069aee52b40d008a3ae6f389b942d))#sc9ctaw5"
P2WPKH_ADDR="tb1q0ccv3vygskxjj69hhktncn8zyhyextvwj87ser"
P2WSH='{
  "address": "tb1q9h2qm8d66zczmjvwjsngcv6ddnm9l35t6j7tj2punu3ucrgq6uaq2x3clm",
  "redeemScript": "52210248213e8f4521d177938de16ebed519f1deb23560822c6a514495e68e2c75d9dc210353e0d6e0c1cea221fad989a82ad0cbb72ca538277b614e42bc975f891576cb3b210257638fdee103eced9aa5c24ade4d8c108c3069aee52b40d008a3ae6f389b942d53ae",
  "descriptor": "wsh(multi(2,0248213e8f4521d177938de16ebed519f1deb23560822c6a514495e68e2c75d9dc,0353e0d6e0c1cea221fad989a82ad0cbb72ca538277b614e42bc975f891576cb3b,0257638fdee103eced9aa5c24ade4d8c108c3069aee52b40d008a3ae6f389b942d))#tx0an6ly"
}'
P2WSH_ADDR="tb1q9h2qm8d66zczmjvwjsngcv6ddnm9l35t6j7tj2punu3ucrgq6uaq2x3clm"
P2WSH_REDEEMSCRIPT="52210248213e8f4521d177938de16ebed519f1deb23560822c6a514495e68e2c75d9dc210353e0d6e0c1cea221fad989a82ad0cbb72ca538277b614e42bc975f891576cb3b210257638fdee103eced9aa5c24ade4d8c108c3069aee52b40d008a3ae6f389b942d53ae"
P2WSH_DESCRIPTOR="wsh(multi(2,0248213e8f4521d177938de16ebed519f1deb23560822c6a514495e68e2c75d9dc,0353e0d6e0c1cea221fad989a82ad0cbb72ca538277b614e42bc975f891576cb3b,0257638fdee103eced9aa5c24ade4d8c108c3069aee52b40d008a3ae6f389b942d))#tx0an6ly"
P2TR_ADDR="tb1phf8j697ct88ry9j2gygpdr7w873y8f69hqpvs6zym2jg3httg20qwl7vgw"
UNSIGNED_TX="0200000001bc1b61fdb84c7f13c722e575e160c53d7c28a9ff2f24a8cb0756eb38764b49b10100000000fdffffff0610270000000000001976a914fd6d4ca68d15ae65ee7456afcd292f2ceba3787f88ac102700000000000017a914c309934c0496e88931c2e15b939460d68838a2838710270000000000001600147e30c8b088858d2968b7bd973c4ce225c9932d8e10270000000000002200202dd40d9dbad0b02dc98e94268c334d6cf65fc68bd4bcb9283c9f23cc0d00d73a1027000000000000225120ba4f2d17d859ce32164a4110168fce3fa243a745b802c86844daa488dd6b429eec27050000000000160014fcebca0e0996f1246fee3ceb9c015453a1e85ad800000000"
SIGNED_TX_HEX="02000000000101bc1b61fdb84c7f13c722e575e160c53d7c28a9ff2f24a8cb0756eb38764b49b10100000000fdffffff0610270000000000001976a914fd6d4ca68d15ae65ee7456afcd292f2ceba3787f88ac102700000000000017a914c309934c0496e88931c2e15b939460d68838a2838710270000000000001600147e30c8b088858d2968b7bd973c4ce225c9932d8e10270000000000002200202dd40d9dbad0b02dc98e94268c334d6cf65fc68bd4bcb9283c9f23cc0d00d73a1027000000000000225120ba4f2d17d859ce32164a4110168fce3fa243a745b802c86844daa488dd6b429eec27050000000000160014fcebca0e0996f1246fee3ceb9c015453a1e85ad80247304402200a8514ddaf1582e69410351bfa805bc3b174d9bc34121f6f460f0be32288b77502206a8e74bf912e97b48b3363babd70419e17fe02e565abf9b653c2fbea29c545b901210210d8774ce4d535d68831ccb4edec1a6910a29353f20a9a2687596e9e224aee4800000000"
SENT_TXID="a01ada9c51a4109c1d7583ad9e1facdc0c2e1de5095e6b5eaccf0427fcb9e5ca"
```