# 2. bitcoin core の詳細

2025/05/18
  更新 Shigeichiro Yamasaki

* [BIP](https://github.com/bitcoin/bips)


## 各種トランザクションの構成を一連の流れで演習します

以下のように，合計で８個のトランザクションを作成します．

ubuntu で snap を使って bitcoin core をインストールした環境を前提にしますが，MacOS で HomeBrew でインストールした場合や bitcoin-qt のコンソールからの場合は適宜コマンドなどを読み替えてください．

1.  5種類のoutput (P2PKH, P2SH, P2WPKH, P2WSH, P2TR)を持つトランザクション TX1 をブロードキャストする

```
(UTXOの資金)--> TX1 -+-->0.0002 BTC VOUT:1 -->TX3(P2PKH) --> 0.00018 BTC
                    +-->0.0002 BTC VOUT:2 -->TX4(P2SH)  --> 0.00018 BTC
                    +-->0.0002 BTC VOUT:3 -->TX5(P2WPKH)--> 0.00018 BTC
                    +-->0.0002 BTC VOUT:4 -->TX6(P2WSH) --> 0.00018 BTC
                    +-->0.0002 BTC VOUT:5 -->TX7(P2TR)  --> 0.00018 BTC
                    +-->おつり
```
2. 5種類タイプの異なるUTXOをinputとするトランザクション (TX3 ~ TX7) を作成するしてブロードキャストする


## 目次

* [descriptor ワレットの作成](#DESC)
* [6種類のアドレスの生成](#ADDR)
* [TX1: 7つのUTXOを生成するトランザクションの送信](#TX1)
* [次の演習への準備](#PREP)



##  <a id="DESC"> </a>descriptor ワレットの作成

### UTXOの所有と discriptor

当初，ブロックチェーン上のデジタル資産であるUTXOの所有の概念は，主体の秘密鍵による計算能力の証明（デジタル署名など）中心に構成されていました．

しかし P2SH などのスクリプトへの送金の概念の登場によって秘密鍵だけでは所有の概念を表現できなくなりました．

そこで，自分が所有するUTXOを定義するために [BIP380](https://github.com/bitcoin/bips/blob/master/bip-0380.mediawiki) で output script descriptor という言語が提案されました．

### output script descriptor

output script descriptorは，Scirpt Experession、Key Expression，チェックサムの３要素で構成されています．

```
function([derivation-path]key)#checksum
```

* Script Expression

    Bitcoinのスクリプトに直接対応する式。これらの式は関数として記述され、引数を取る

* Key Expression

    HD ウォレットのどの部分がエクスポートされるかを説明します。この場合、それは指紋を持つシードでありd6043800、そのシードの 0 番目の子の 0 番目の子の 18 番目の子 ( 0'/0'/18') 

    Script Expressionの引数としてよく使われる式に、Key Expressionがある。これは公開鍵または秘密鍵と、オプションとしてその鍵のオリジンに関する情報を表す

* チェックサム

  * hexエンコードされた公開鍵
  * WIFエンコードされた秘密鍵
  * xpubエンコードされた拡張公開鍵、もしくはxprvエンコードされた拡張秘密鍵

### descriptor の例

* 2-of-3 多重署名でロックされた P2SHタイプの output を表現する Descriptor の例

```json
sh(multi(2,037032106297741808e66c947dab836f3f3c28189596331e48861304674e2583d0,0210c7796ac91075ff6d4708319094707a976d265263cac42cc535104803439f84,0359ee82a3b3ec86bc8c29c149cacde7af2e00cd8952ee5767d6c221a2807c4094))#c968pfza
```

* 2-of-3 多重署名でロックされた P2WSHタイプの output を表現する Descriptor の例

```json
wsh(multi(2,037032106297741808e66c947dab836f3f3c28189596331e48861304674e2583d0,0210c7796ac91075ff6d4708319094707a976d265263cac42cc535104803439f84,0359ee82a3b3ec86bc8c29c149cacde7af2e00cd8952ee5767d6c221a2807c4094))#04tn9tty
```

### descriptor ワレットの作成

```
bitcoin-core.cli createwallet <ワレット名> <秘密鍵の無効化> <空ワレット> <パスフレーズ> <再利用禁止> <descripterの有効化> <起動時にロード> <外部署名の許可>
```

```bash
bitcoin-core.cli createwallet eve
```

```bash
bitcoin-core.cli listwallets

=>
[
  "alice",
  "bob",
  "eve"
]
```

ワレットのアンロード

```bash
bitcoin-core.cli unloadwallet alice

bitcoin-core.cli listwallets

[
  "bob",
  "eve"
]

```

ワレットの情報

```bash
bitcoin-core.cli -rpcwallet=bob getwalletinfo

=>
{
  "walletname": "bob",
  "walletversion": 169900,
  "format": "sqlite",
  "balance": 0.00498000,
  "unconfirmed_balance": 0.00000000,
  "immature_balance": 0.00000000,
  "txcount": 2,
  "keypoolsize": 4000,
  "keypoolsize_hd_internal": 4000,
  "paytxfee": 0.00000000,
  "private_keys_enabled": true,
  "avoid_reuse": false,
  "scanning": false,
  "descriptors": true,
  "external_signer": false,
  "blank": false,
  "birthtime": 1747385736,
  "lastprocessedblock": {
    "hash": "000000000525151f8b625eeb47c38773291d1e846c62ed5e51aa4a515f5729e4",
    "height": 82783
  }
}
```

### 最初のアドレス（最初のUTXOの所有者）の生成

```bash
BOB1=`bitcoin-core.cli -rpcwallet=bob getnewaddress BOB1`

#確認
echo $BOB1
=>
tb1qk7l3xmngw3x5sd9w2egdf5yzdm939ezql5jvq2
```

### faucet から BOB1に入金

[nestnet4 faucet](https://faucet.testnet4.dev/)


* 送金完了まで 10分以上かかります（20分以上かかることもあります）
* 待ち時間がもったいないので，コインの受領完了を待たずに，以下の「６種類のビットコインアドレスの生成」などをすすめてください．

ちなみにコインが受領されると以下のように資金を持った状態になります．

```bash
bitcoin-core.cli -rpcwallet=bob getbalance
=>
0.00100000
```

## <a id="ADDR">5種類のビットコインアドレスの生成 </a>

6種類の outputのタイプへの送金には、それぞれ対応するアドレスタイプを持つ送金先アドレスが必要です。

以下に P2PK, P2PKH, P2SH, P2WPKH, P2WSH, P2TR の6タイプのアドレスを生成します．

#### getnewaddress コマンド

```bash
getnewaddress <ラベル> <アドレスタイプ>
```

アドレスタイプ

* legacy (base52アドレス）このタイプにさらに P2PKHとP2SHがあります
* bech32 (Bech32アドレス）このタイプにさらにP2WPKHとP2WSHがありあす
* p2sh-segwit (後方互換のため，Bech32アドレスをP2SHでラップしたアドレス)
* P2PK では、送金先の公開鍵がそのまま送金先アドレスになります

### P2PKアドレス

最も初期のアドレス形式です．

特別なアドレスフォーマットはなく，当事者の公開鍵がそのままアドレスになります

#### 公開鍵の確認方法

コマンドの文法

```
getaddressinfo <（自分のワレットの）ビットコインアドレス>
```


ここでは，P2WPKH として生成されたアドレスの情報から公開鍵を抜き出します．

```bash
# 確認例

echo $BOB1
=>
tb1qk7l3xmngw3x5sd9w2egdf5yzdm939ezql5jvq2
```

以下は例です
```bash
bitcoin-core.cli -rpcwallet=bob getaddressinfo $BOB1

=>
{
  "address": "tb1qk7l3xmngw3x5sd9w2egdf5yzdm939ezql5jvq2",
  "scriptPubKey": "0014b7bf136e68744d4834ae5650d4d0826ecb12e440",
  "ismine": true,
  "solvable": true,
  "desc": "wpkh([9278fcb8/84h/1h/0h/0/9]02cb7815dcbdc707e71852ac7b5c17648b54fc14d068c9dd3ec67d3c4a47d74068)#m009cy63",
  "parent_desc": "wpkh([9278fcb8/84h/1h/0h]tpubDDhCsJ6XGQpV4ZcobSUHAv88MtVdeYCSW3R4wccKqLHeCTv2y23vzEg948dYybSFfJcsHnXL5D79oXG2Lm3phMG6SGmZXrG4PuNWfYhp8DJ/0/*)#g3xhechk",
  "iswatchonly": false,
  "isscript": false,
  "iswitness": true,
  "witness_version": 0,
  "witness_program": "b7bf136e68744d4834ae5650d4d0826ecb12e440",
  "pubkey": "02cb7815dcbdc707e71852ac7b5c17648b54fc14d068c9dd3ec67d3c4a47d74068",
  "ischange": false,
  "timestamp": 1747385736,
  "hdkeypath": "m/84h/1h/0h/0/9",
  "hdseedid": "0000000000000000000000000000000000000000",
  "hdmasterfingerprint": "9278fcb8",
  "labels": [
    "BOB1"
  ]
}
```

* 公開鍵は  JSON 構造のキー "pubkey": の部分です．

この公開鍵の情報を [jq コマンド](https://www.karakaram.com/notes-on-jq-command/) を利用して P2PK アドレスとしてシェル変数 P2PK_ADDR に代入しておきます

```bash
P2PK_ADDR=`bitcoin-core.cli -rpcwallet=bob getaddressinfo $BOB1|jq -r '.pubkey'`

#確認例
echo $P2PK_ADDR
=>
02cb7815dcbdc707e71852ac7b5c17648b54fc14d068c9dd3ec67d3c4a47d74068
```

### P2PKHアドレス

当事者の公開鍵のハッシュ値から生成され base52 エンコードしたアドレスです

シェル変数 P2PKH_ADDRに代入しておきます．

```bash
P2PKH_ADDR=`bitcoin-core.cli -rpcwallet=bob getnewaddress pkh_user legacy`

#確認例
echo $P2PKH_ADDR
=>
n4cxBqtUBoG8uM9DRGrqsiWFCfzkfjHVfa
```

### P2SHアドレス

当事者の公開鍵ではなく，bitcoin スクリプトのハッシュ値から生成されたアドレスです．

その典型例がマルチシグ（多重署名）用アドレスです。

#### マルチシグ用公開鍵のリストの作成
 
アドレスの生成には、n人の署名者たちの公開鍵が必要です。

ここでは openssl を利用して ３人の秘密鍵と公開鍵を生成します

```bash
SIGNER1=`bitcoin-core.cli -rpcwallet=bob getnewaddress signer1`
SIGNER2=`bitcoin-core.cli -rpcwallet=bob getnewaddress signer2`
SIGNER3=`bitcoin-core.cli -rpcwallet=bob getnewaddress signer3`

#確認例
echo $SIGNER1
=>
tb1qv66l27aexdz880u3y8uruc0xveta4d9uj69l54
echo $SIGNER2
=>
tb1qlrur8hm6p3k24nwrfywwhwr367hwu57fmy5hrm
echo $SIGNER3
=>
tb1qlj6lvyw4cfxk8mlewvqkuvf84a5s8hf7ye03aj

PUBKEY1=`bitcoin-core.cli -rpcwallet=bob getaddressinfo $SIGNER1|jq -r '.pubkey'`
PUBKEY2=`bitcoin-core.cli -rpcwallet=bob getaddressinfo $SIGNER2|jq -r '.pubkey'`
PUBKEY3=`bitcoin-core.cli -rpcwallet=bob getaddressinfo $SIGNER3|jq -r '.pubkey'`

#確認例
echo $PUBKEY1
=> 
0248213e8f4521d177938de16ebed519f1deb23560822c6a514495e68e2c75d9dc
echo $PUBKEY2
=>
0353e0d6e0c1cea221fad989a82ad0cbb72ca538277b614e42bc975f891576cb3b
echo $PUBKEY3
=>
0257638fdee103eced9aa5c24ade4d8c108c3069aee52b40d008a3ae6f389b942d
```

#### マルチシグアドレスの生成

 m of n マルチシグ（n人の公開鍵の中でm人の署名があれば成功する署名）のためのアドレス生成です。
 
コマンドの文法

```
createmultisig <必要署名数 m> '[<公開鍵1>,<公開鍵2>,...,<公開鍵n>]' <アドレスタイプ>
```

 <アドレスタイプ> の指定によって　P2SH　と　P2WSH　が区別されます。

アドレスタイプ:  P2SH＝"legacy", P2SHのSegWitラップ="p2sh-segwit", P2WSH="bech32"

マルチシグアドレス生成結果

```json
{                            (json object)
  "address" : "str",         (string) The value of the new multisig address.
  "redeemScript" : "hex",    (string) The string value of the hex-encoded redemption script.
  "descriptor" : "str"       (string) The descriptor for this multisig
}
```

2 of 3 の場合

```bash
P2SH=`bitcoin-core.cli -rpcwallet=bob createmultisig 2 "[\"$PUBKEY1\",\"$PUBKEY2\",\"$PUBKEY3\"]" legacy`

#確認例
echo $P2SH
=>
{ "address": "2NB2VDzwnCg7MS1D4kqBVUgfkxjKZ5TF16c", "redeemScript": "52210248213e8f4521d177938de16ebed519f1deb23560822c6a514495e68e2c75d9dc210353e0d6e0c1cea221fad989a82ad0cbb72ca538277b614e42bc975f891576cb3b210257638fdee103eced9aa5c24ade4d8c108c3069aee52b40d008a3ae6f389b942d53ae", "descriptor": "sh(multi(2,0248213e8f4521d177938de16ebed519f1deb23560822c6a514495e68e2c75d9dc,0353e0d6e0c1cea221fad989a82ad0cbb72ca538277b614e42bc975f891576cb3b,0257638fdee103eced9aa5c24ade4d8c108c3069aee52b40d008a3ae6f389b942d))#sc9ctaw5" }
```

ここでは，シェル変数 P2SH_ADDRに生成したアドレスを代入しておきます

```bash
P2SH_ADDR=`echo $P2SH|jq -r '.address'`

#確認例
echo $P2SH_ADDR
=>
2NB2VDzwnCg7MS1D4kqBVUgfkxjKZ5TF16c
```

#### P2SH redeemScript

P2SHのアウトプットをアンロックするには、redeemScriptが必要です

上記のマルチシグアドレス生成時に対応する redeemscriptも生成されています．

シェル変数 P2SH_REDEEMSCRIPT にその内容を代入しておきます

```bash
P2SH_REDEEMSCRIPT=`echo $P2SH|jq -r '.redeemScript'`

#確認例
echo $P2SH_REDEEMSCRIPT
=>
52210248213e8f4521d177938de16ebed519f1deb23560822c6a514495e68e2c75d9dc210353e0d6e0c1cea221fad989a82ad0cbb72ca538277b614e42bc975f891576cb3b210257638fdee103eced9aa5c24ade4d8c108c3069aee52b40d008a3ae6f389b942d53ae
```

#### P2SH descriptor

* P2SH でロックされているUTXOをアンロックするためには，まず第１段階として redeemscript とそのハッシュ値が必要です．

* 第２段階で，マルチシグの実際の署名を行う場所は署名者それぞれのワレットで， redeemScript に沿ってそれぞれの秘密鍵を使って署名を行います。

* それを可能にするためには、それぞれの署名者のワレットに redeemScript などの必要な情報を組み込む必要があります。

* descriptor　は、ワレットにマルチシグ署名のための情報を組み込むためのデータです。

ここでは，シェル変数 P2SH_DESCRIPTOR にその内容を代入しておきます．

```bash
P2SH_DESCRIPTOR=`echo $P2SH|jq -r '.descriptor'`

#確認例
echo $P2SH_DESCRIPTOR
=>
sh(multi(2,0248213e8f4521d177938de16ebed519f1deb23560822c6a514495e68e2c75d9dc,0353e0d6e0c1cea221fad989a82ad0cbb72ca538277b614e42bc975f891576cb3b,0257638fdee103eced9aa5c24ade4d8c108c3069aee52b40d008a3ae6f389b942d))#sc9ctaw5
```

##### マルチシグアドレス生成の実際と公開鍵の提示

ここでの例では、複数のアドレスを一つのワレットで生成していますが、実際は複数の人のワレットで生成します。

上記のように、マルチシグアドレスの生成には公開鍵が必要です。

しかし、アドレスごとの公開鍵は非公開情報です。したがって、実際にマルチシグに参加する当事者がそれぞれ自分で自分の公開鍵を確認し、信頼できる第三者であるマルチシグアドレス生成者に提示する必要があります。


### P2WPKHアドレス 

Bech32アドレスの生成（受領者の公開鍵ハッシュの場合）

ここでは，シェル変数 P2WPKH_ADDR にアドレスを代入しておきます．

```bash
P2WPKH_ADDR=`bitcoin-core.cli -rpcwallet=bob getnewaddress wpkh_user bech32`

#確認例
echo $P2WPKH_ADDR

=>
tb1q0ccv3vygskxjj69hhktncn8zyhyextvwj87ser
```

### P2WSHアドレス

基本的にP2SHと同じです。


2 of 3 の場合

```bash
P2WSH=`bitcoin-core.cli -rpcwallet=bob createmultisig 2 "[\"$PUBKEY1\",\"$PUBKEY2\",\"$PUBKEY3\"]" bech32`

# 確認例
echo $P2WSH
=>
{ "address": "tb1q9h2qm8d66zczmjvwjsngcv6ddnm9l35t6j7tj2punu3ucrgq6uaq2x3clm", "redeemScript": "52210248213e8f4521d177938de16ebed519f1deb23560822c6a514495e68e2c75d9dc210353e0d6e0c1cea221fad989a82ad0cbb72ca538277b614e42bc975f891576cb3b210257638fdee103eced9aa5c24ade4d8c108c3069aee52b40d008a3ae6f389b942d53ae", "descriptor": "wsh(multi(2,0248213e8f4521d177938de16ebed519f1deb23560822c6a514495e68e2c75d9dc,0353e0d6e0c1cea221fad989a82ad0cbb72ca538277b614e42bc975f891576cb3b,0257638fdee103eced9aa5c24ade4d8c108c3069aee52b40d008a3ae6f389b942d))#tx0an6ly" }
```

ここではシェル変数 P2WSH_ADDR に内容を代入しておきます

```bash
P2WSH_ADDR=`echo $P2WSH|jq -r '.address'`

#確認例
echo $P2WSH_ADDR
=>
tb1q9h2qm8d66zczmjvwjsngcv6ddnm9l35t6j7tj2punu3ucrgq6uaq2x3clm
```


#### P2WSH redeemScript

ここではシェル変数 P2WSH_REDEEMSCRIPT にその内容を代入しておきます

```bash
P2WSH_REDEEMSCRIPT=`echo $P2WSH|jq -r '.redeemScript'`

#確認例
echo $P2WSH_REDEEMSCRIPT
=>
52210248213e8f4521d177938de16ebed519f1deb23560822c6a514495e68e2c75d9dc210353e0d6e0c1cea221fad989a82ad0cbb72ca538277b614e42bc975f891576cb3b210257638fdee103eced9aa5c24ade4d8c108c3069aee52b40d008a3ae6f389b942d53ae
```

#### P2SH descriptor

ここでは，シェル変数 P2WSH_DESCRIPTOR にその内容を代入しておきます．

```bash
P2WSH_DESCRIPTOR=`echo $P2WSH|jq -r '.descriptor'`

#確認例
echo $P2WSH_DESCRIPTOR
=>
wsh(multi(2,0248213e8f4521d177938de16ebed519f1deb23560822c6a514495e68e2c75d9dc,0353e0d6e0c1cea221fad989a82ad0cbb72ca538277b614e42bc975f891576cb3b,0257638fdee103eced9aa5c24ade4d8c108c3069aee52b40d008a3ae6f389b942d))#tx0an6ly
```

### P2TRアドレス

Bech32m アドレスの生成（受領者の公開鍵）

ここでは，シェル変数 P2TR_ADDR にアドレスを代入しておきます．

getnewaddress コマンドでラベルの設定が必要です

```bash
P2TR_ADDR=`bitcoin-core.cli -rpcwallet=bob getnewaddress tr_user bech32m`

#確認例
echo $P2TR_ADDR
=>
tb1phf8j697ct88ry9j2gygpdr7w873y8f69hqpvs6zym2jg3httg20qwl7vgw
```

## <a id="TX1"> </a>7つのUTXOを生成するトランザクションの送信


### 使用するUTXOを確認する

この例では、"amount": 0.0010000　を持つUTXOを利用しますが，以下では自分が所持している bitcoin の金額でトランザクションを作成してください．

使用する"txid" と "vout"と "amount" と "address" の値をメモしてください

#### UTXOの例

自分のUTXOを確認してください

★★（以下は例です，必ず自分のUTXOのものをチェックしてください！）


UTXOを複数所持している場合は，amount が 0.001 以上あるものを一つ選んでください．


★★ （ここではUTXOの 金額を 0.001 BTC にしていますが，それよりも多い場合は必ずおつりの計算を間違えないようにしてください！！）

★★ （おつりの計算を間違えると，失った所持金はマイナーの報酬になり，戻ってきません）


```bash
bitcoin-core.cli -rpcwallet=bob listunspent

# ここでの例
=>
[
  {
    "txid": "3084d35690cdf25702000b4af622cfba85ac0519095973bcf70d6133bb3d4cab",
    "vout": 0,
    "address": "n2yA2WM4UUiYXEZ4TFWi8AXQT12Se7HyUT",
    "label": "pkh_user",
    "scriptPubKey": "76a914eb4f3ff2de050b88afbbe74df54187c06bf027b488ac",
    "amount": 0.00010000,
    "confirmations": 406,
    "spendable": true,
    "solvable": true,
    "desc": "pkh([9278fcb8/44h/1h/0h/0/0]03cfc732476361e280a4b2e5922e21484117d43e300a276dbf22610f303d8b1e78)#u9kxhv2p",
    "parent_descs": [
      "pkh(tpubD6NzVbkrYhZ4XyV3UcGaHzzXH21ZToEr1Kx55UU3SVR6KTnvjJMP6gDSDo8Q4ZKX2KTkPnipXsEMAz4H5RhyvGbirEFxewpuswV9NAoy226/44h/1h/0h/0/*)#kt0esuzx"
    ],
    "safe": true
  },
  {
    "txid": "b1494b7638eb5607cba8242fffa9287c3dc560e175e522c7137f4cb8fd611bbc",
    "vout": 1,
    "address": "tb1qln4u5rsfjmcjgmlw8n4ecq252ws7skkcr9uuml",
    "label": "",
    "scriptPubKey": "0014fcebca0e0996f1246fee3ceb9c015453a1e85ad8",
    "amount": 0.00398000,
    "confirmations": 409,
    "spendable": true,
    "solvable": true,
    "desc": "wpkh([9278fcb8/84h/1h/0h/0/0]0210d8774ce4d535d68831ccb4edec1a6910a29353f20a9a2687596e9e224aee48)#ha9yqrvk",
    "parent_descs": [
      "wpkh(tpubD6NzVbkrYhZ4XyV3UcGaHzzXH21ZToEr1Kx55UU3SVR6KTnvjJMP6gDSDo8Q4ZKX2KTkPnipXsEMAz4H5RhyvGbirEFxewpuswV9NAoy226/84h/1h/0h/0/*)#50e604cn"
    ],
    "safe": true
  },
  {
    "txid": "3084d35690cdf25702000b4af622cfba85ac0519095973bcf70d6133bb3d4cab",
    "vout": 2,
    "address": "tb1q9z6g0m0c9aeq8kxrg469rx95a2m7wyc34u6yqy",
    "label": "wpkh_user",
    "scriptPubKey": "001428b487edf82f7203d8c345745198b4eab7e71311",
    "amount": 0.00010000,
    "confirmations": 406,
    "spendable": true,
    "solvable": true,
    "desc": "wpkh([9278fcb8/84h/1h/0h/0/8]03a98979a15fe0399983813ceb98538e2c4ddd82de4e50aad099440db79394873b)#qd7g7kr7",
    "parent_descs": [
      "wpkh(tpubD6NzVbkrYhZ4XyV3UcGaHzzXH21ZToEr1Kx55UU3SVR6KTnvjJMP6gDSDo8Q4ZKX2KTkPnipXsEMAz4H5RhyvGbirEFxewpuswV9NAoy226/84h/1h/0h/0/*)#50e604cn"
    ],
    "safe": true
  },
  {
    "txid": "3084d35690cdf25702000b4af622cfba85ac0519095973bcf70d6133bb3d4cab",
    "vout": 5,
    "address": "tb1qj8tnqvdj234228y546a54g7ykkeh0akh7y35k0",
    "label": "",
    "scriptPubKey": "001491d73031b2546aa51c94aebb4aa3c4b5b377f6d7",
    "amount": 0.00048000,
    "confirmations": 406,
    "spendable": true,
    "solvable": true,
    "desc": "wpkh([9278fcb8/84h/1h/0h/0/1]029f40c4fd7601a94f1d2c350fd6d18132f54844086a7e9bf43a5488685de44664)#34993jna",
    "parent_descs": [
      "wpkh(tpubD6NzVbkrYhZ4XyV3UcGaHzzXH21ZToEr1Kx55UU3SVR6KTnvjJMP6gDSDo8Q4ZKX2KTkPnipXsEMAz4H5RhyvGbirEFxewpuswV9NAoy226/84h/1h/0h/0/*)#50e604cn"
    ],
    "safe": true
  },
  {
    "txid": "a038af65a49bfdd738a26069650322a901cef119e049b9347d9109311747ad12",
    "vout": 0,
    "address": "tb1qk7l3xmngw3x5sd9w2egdf5yzdm939ezql5jvq2",
    "label": "BOB1",
    "scriptPubKey": "0014b7bf136e68744d4834ae5650d4d0826ecb12e440",
    "amount": 0.00500000,
    "confirmations": 54,
    "spendable": true,
    "solvable": true,
    "desc": "wpkh([9278fcb8/84h/1h/0h/0/9]02cb7815dcbdc707e71852ac7b5c17648b54fc14d068c9dd3ec67d3c4a47d74068)#m009cy63",
    "parent_descs": [
      "wpkh(tpubD6NzVbkrYhZ4XyV3UcGaHzzXH21ZToEr1Kx55UU3SVR6KTnvjJMP6gDSDo8Q4ZKX2KTkPnipXsEMAz4H5RhyvGbirEFxewpuswV9NAoy226/84h/1h/0h/0/*)#50e604cn"
    ],
    "safe": true
  },
  {
    "txid": "7da8a519a48aa705145c7b6f385cf9acbf3c3e8676c54f6f69fe46198b66c874",
    "vout": 1,
    "address": "tb1qezzhzk540k0clr8eelspcmae8w0pll4jft0s8x",
    "label": "BOB1",
    "scriptPubKey": "0014c885715a957d9f8f8cf9cfe01c6fb93b9e1ffeb2",
    "amount": 0.00500000,
    "confirmations": 408,
    "spendable": true,
    "solvable": true,
    "desc": "wpkh([9278fcb8/84h/1h/0h/0/4]0321711a085a72323f063f3fc9c41cf09da341ae10accacd0cc289c10d443fde63)#yj9fppnn",
    "parent_descs": [
      "wpkh(tpubD6NzVbkrYhZ4XyV3UcGaHzzXH21ZToEr1Kx55UU3SVR6KTnvjJMP6gDSDo8Q4ZKX2KTkPnipXsEMAz4H5RhyvGbirEFxewpuswV9NAoy226/84h/1h/0h/0/*)#50e604cn"
    ],
    "safe": true
  },
  {
    "txid": "3084d35690cdf25702000b4af622cfba85ac0519095973bcf70d6133bb3d4cab",
    "vout": 4,
    "address": "tb1pww0jg0400s8a7amgpr000jpfdvnjsvhggnucnxqlp63hurzn2vzq905hh9",
    "label": "tr_user",
    "scriptPubKey": "5120739f243eaf7c0fdf776808def7c8296b272832e844f989981f0ea37e0c535304",
    "amount": 0.00010000,
    "confirmations": 406,
    "spendable": true,
    "solvable": true,
    "desc": "tr([9278fcb8/86h/1h/0h/0/0]feaa76c55882a824120543aaad3f1ad316bdb599423faf5ed07b4be8cf0ed029)#ulnv0ne5",
    "parent_descs": [
      "tr(tpubD6NzVbkrYhZ4XyV3UcGaHzzXH21ZToEr1Kx55UU3SVR6KTnvjJMP6gDSDo8Q4ZKX2KTkPnipXsEMAz4H5RhyvGbirEFxewpuswV9NAoy226/86h/1h/0h/0/*)#wd3qhccv"
    ],
    "safe": true
  }
]

```

この例では，UTXOの配列の2番目(インデックは[1])のUTXOの "amount" が  0.00398000 BTC なので，これを使うことにします．

シェル変数への代入を使う場合は以下のようになります


```bash
UTXOS=`bitcoin-core.cli -rpcwallet=bob listunspent`
UTXO=`echo $UTXOS | jq -r '.[1]'`

# 確認例
echo $UTXO

=>
{ "txid": "b1494b7638eb5607cba8242fffa9287c3dc560e175e522c7137f4cb8fd611bbc", "vout": 1, "address": "tb1qln4u5rsfjmcjgmlw8n4ecq252ws7skkcr9uuml", "label": "", "scriptPubKey": "0014fcebca0e0996f1246fee3ceb9c015453a1e85ad8", "amount": 0.00398000, "confirmations": 409, "spendable": true, "solvable": true, "desc": "wpkh([9278fcb8/84h/1h/0h/0/0]0210d8774ce4d535d68831ccb4edec1a6910a29353f20a9a2687596e9e224aee48)#ha9yqrvk", "parent_descs": [ "wpkh(tpubD6NzVbkrYhZ4XyV3UcGaHzzXH21ZToEr1Kx55UU3SVR6KTnvjJMP6gDSDo8Q4ZKX2KTkPnipXsEMAz4H5RhyvGbirEFxewpuswV9NAoy226/84h/1h/0h/0/*)#50e604cn" ], "safe": true }
```

自分のUTXOの txid , vout, address をシェル変数に代入します

```
TXID="<txidの内容>"
VOUT="<voutの内容>"
ADDRESS="<addressの内容>"
```

上記の例の場合
★（必ず自分のUTXOのものに置き換えてください）

```bash
TXID=`echo $UTXO|jq -r '.txid'`
VOUT=`echo $UTXO|jq -r '.vout'`
CHANGE_ADDRESS=`echo $UTXO|jq -r '.address'`

# 確認例
echo $TXID
=>
b1494b7638eb5607cba8242fffa9287c3dc560e175e522c7137f4cb8fd611bbc

echo $VOUT
=>
1

echo $CHANGE_ADDRESS
=>
tb1qln4u5rsfjmcjgmlw8n4ecq252ws7skkcr9uuml
```

★ この CHANGE_ADDRESS に指定するアドレスは，UTXOを所有している自分のアドレスで，おつりとして取り戻すためのアドレスです．

### 5+1 個のoutputを持つトランザクションを作成する

* input として使用するUTXOの txid と vout
* output は、生成した5つのアドレスです
* 5つの送金先アドレスへの送金金額は，それぞれ 0.0001 とします．
* outputにはおつり用のアドレスがさらに一つ必要です．ここではUTXOの所有者にします．

#### おつりの計算

ここではトランザクション手数料は 0.00002 以上とします．

UTXOの資金を 0.0039 BTC とすると

```
0.0039 - (0.0001)*5 - 0.00002 = 0.0033799999999999998
```

なので，ここではおつりを 0.003379 BTC とします

### 5種類のアウトプットを持つ未署名トランザクションの作成

JSON形式で input と output を作成し，未署名のトランザクションを作成します

P2PKH, P2SH, P2WPKH, P2WSH, P2TR の５種類です．

実行結果は 16進数形式です．

```bash
UNSIGNED_TX=`bitcoin-core.cli -rpcwallet=bob createrawtransaction "[{\"txid\":\"$TXID\",\"vout\":$VOUT}]" "[{\"$P2PKH_ADDR\":0.0001},{\"$P2SH_ADDR\":0.0001},{\"$P2WPKH_ADDR\":0.0001},{\"$P2WSH_ADDR\":0.0001},{\"$P2TR_ADDR\":0.0001},{\"$CHANGE_ADDRESS\":0.003379}]"`

# 確認例
echo $UNSIGNED_TX
=>
0200000001bc1b61fdb84c7f13c722e575e160c53d7c28a9ff2f24a8cb0756eb38764b49b10100000000fdffffff0610270000000000001976a914fd6d4ca68d15ae65ee7456afcd292f2ceba3787f88ac102700000000000017a914c309934c0496e88931c2e15b939460d68838a2838710270000000000001600147e30c8b088858d2968b7bd973c4ce225c9932d8e10270000000000002200202dd40d9dbad0b02dc98e94268c334d6cf65fc68bd4bcb9283c9f23cc0d00d73a1027000000000000225120ba4f2d17d859ce32164a4110168fce3fa243a745b802c86844daa488dd6b429eec27050000000000160014fcebca0e0996f1246fee3ceb9c015453a1e85ad800000000
```

作成したトランザクションの確認

```bash
bitcoin-core.cli decoderawtransaction $UNSIGNED_TX

=>
{
  "txid": "a01ada9c51a4109c1d7583ad9e1facdc0c2e1de5095e6b5eaccf0427fcb9e5ca",
  "hash": "a01ada9c51a4109c1d7583ad9e1facdc0c2e1de5095e6b5eaccf0427fcb9e5ca",
  "version": 2,
  "size": 265,
  "vsize": 265,
  "weight": 1060,
  "locktime": 0,
  "vin": [
    {
      "txid": "b1494b7638eb5607cba8242fffa9287c3dc560e175e522c7137f4cb8fd611bbc",
      "vout": 1,
      "scriptSig": {
        "asm": "",
        "hex": ""
      },
      "sequence": 4294967293
    }
  ],
  "vout": [
    {
      "value": 0.00010000,
      "n": 0,
      "scriptPubKey": {
        "asm": "OP_DUP OP_HASH160 fd6d4ca68d15ae65ee7456afcd292f2ceba3787f OP_EQUALVERIFY OP_CHECKSIG",
        "desc": "addr(n4cxBqtUBoG8uM9DRGrqsiWFCfzkfjHVfa)#xuxs6vdl",
        "hex": "76a914fd6d4ca68d15ae65ee7456afcd292f2ceba3787f88ac",
        "address": "n4cxBqtUBoG8uM9DRGrqsiWFCfzkfjHVfa",
        "type": "pubkeyhash"
      }
    },
    {
      "value": 0.00010000,
      "n": 1,
      "scriptPubKey": {
        "asm": "OP_HASH160 c309934c0496e88931c2e15b939460d68838a283 OP_EQUAL",
        "desc": "addr(2NB2VDzwnCg7MS1D4kqBVUgfkxjKZ5TF16c)#50eerkqk",
        "hex": "a914c309934c0496e88931c2e15b939460d68838a28387",
        "address": "2NB2VDzwnCg7MS1D4kqBVUgfkxjKZ5TF16c",
        "type": "scripthash"
      }
    },
    {
      "value": 0.00010000,
      "n": 2,
      "scriptPubKey": {
        "asm": "0 7e30c8b088858d2968b7bd973c4ce225c9932d8e",
        "desc": "addr(tb1q0ccv3vygskxjj69hhktncn8zyhyextvwj87ser)#vtm75vvm",
        "hex": "00147e30c8b088858d2968b7bd973c4ce225c9932d8e",
        "address": "tb1q0ccv3vygskxjj69hhktncn8zyhyextvwj87ser",
        "type": "witness_v0_keyhash"
      }
    },
    {
      "value": 0.00010000,
      "n": 3,
      "scriptPubKey": {
        "asm": "0 2dd40d9dbad0b02dc98e94268c334d6cf65fc68bd4bcb9283c9f23cc0d00d73a",
        "desc": "addr(tb1q9h2qm8d66zczmjvwjsngcv6ddnm9l35t6j7tj2punu3ucrgq6uaq2x3clm)#65ld0n8m",
        "hex": "00202dd40d9dbad0b02dc98e94268c334d6cf65fc68bd4bcb9283c9f23cc0d00d73a",
        "address": "tb1q9h2qm8d66zczmjvwjsngcv6ddnm9l35t6j7tj2punu3ucrgq6uaq2x3clm",
        "type": "witness_v0_scripthash"
      }
    },
    {
      "value": 0.00010000,
      "n": 4,
      "scriptPubKey": {
        "asm": "1 ba4f2d17d859ce32164a4110168fce3fa243a745b802c86844daa488dd6b429e",
        "desc": "rawtr(ba4f2d17d859ce32164a4110168fce3fa243a745b802c86844daa488dd6b429e)#rlhqvq6c",
        "hex": "5120ba4f2d17d859ce32164a4110168fce3fa243a745b802c86844daa488dd6b429e",
        "address": "tb1phf8j697ct88ry9j2gygpdr7w873y8f69hqpvs6zym2jg3httg20qwl7vgw",
        "type": "witness_v1_taproot"
      }
    },
    {
      "value": 0.00337900,
      "n": 5,
      "scriptPubKey": {
        "asm": "0 fcebca0e0996f1246fee3ceb9c015453a1e85ad8",
        "desc": "addr(tb1qln4u5rsfjmcjgmlw8n4ecq252ws7skkcr9uuml)#chqmtsu2",
        "hex": "0014fcebca0e0996f1246fee3ceb9c015453a1e85ad8",
        "address": "tb1qln4u5rsfjmcjgmlw8n4ecq252ws7skkcr9uuml",
        "type": "witness_v0_keyhash"
      }
    }
  ]
}
```

### 作成したトランザクションに署名する

```bash
SIGNED_TX=`bitcoin-core.cli -rpcwallet=bob signrawtransactionwithwallet $UNSIGNED_TX`

# 確認例
echo $SIGNED_TX
=>
{ "hex": "02000000000101bc1b61fdb84c7f13c722e575e160c53d7c28a9ff2f24a8cb0756eb38764b49b10100000000fdffffff0610270000000000001976a914fd6d4ca68d15ae65ee7456afcd292f2ceba3787f88ac102700000000000017a914c309934c0496e88931c2e15b939460d68838a2838710270000000000001600147e30c8b088858d2968b7bd973c4ce225c9932d8e10270000000000002200202dd40d9dbad0b02dc98e94268c334d6cf65fc68bd4bcb9283c9f23cc0d00d73a1027000000000000225120ba4f2d17d859ce32164a4110168fce3fa243a745b802c86844daa488dd6b429eec27050000000000160014fcebca0e0996f1246fee3ceb9c015453a1e85ad80247304402200a8514ddaf1582e69410351bfa805bc3b174d9bc34121f6f460f0be32288b77502206a8e74bf912e97b48b3363babd70419e17fe02e565abf9b653c2fbea29c545b901210210d8774ce4d535d68831ccb4edec1a6910a29353f20a9a2687596e9e224aee4800000000", "complete": true }
```

署名したトランザクションの16進数形式内容の確認（hex の値）

```bash
SIGNED_TX_HEX=`echo $SIGNED_TX|jq -r '.hex'`

# 確認例
echo $SIGNED_TX_HEX
=>
02000000000101bc1b61fdb84c7f13c722e575e160c53d7c28a9ff2f24a8cb0756eb38764b49b10100000000fdffffff0610270000000000001976a914fd6d4ca68d15ae65ee7456afcd292f2ceba3787f88ac102700000000000017a914c309934c0496e88931c2e15b939460d68838a2838710270000000000001600147e30c8b088858d2968b7bd973c4ce225c9932d8e10270000000000002200202dd40d9dbad0b02dc98e94268c334d6cf65fc68bd4bcb9283c9f23cc0d00d73a1027000000000000225120ba4f2d17d859ce32164a4110168fce3fa243a745b802c86844daa488dd6b429eec27050000000000160014fcebca0e0996f1246fee3ceb9c015453a1e85ad80247304402200a8514ddaf1582e69410351bfa805bc3b174d9bc34121f6f460f0be32288b77502206a8e74bf912e97b48b3363babd70419e17fe02e565abf9b653c2fbea29c545b901210210d8774ce4d535d68831ccb4edec1a6910a29353f20a9a2687596e9e224aee4800000000

```

★ txinwitness 領域が作成されていることを確認する

```bash
bitcoin-core.cli decoderawtransaction $SIGNED_TX_HEX

=>
{
  "txid": "a01ada9c51a4109c1d7583ad9e1facdc0c2e1de5095e6b5eaccf0427fcb9e5ca",
  "hash": "6090c7ba78a0fd0d2563f4e0c659fb788338704594e341aa925ecd2379b863b2",
  "version": 2,
  "size": 374,
  "vsize": 293,
  "weight": 1169,
  "locktime": 0,
  "vin": [
    {
      "txid": "b1494b7638eb5607cba8242fffa9287c3dc560e175e522c7137f4cb8fd611bbc",
      "vout": 1,
      "scriptSig": {
        "asm": "",
        "hex": ""
      },
      "txinwitness": [
        "304402200a8514ddaf1582e69410351bfa805bc3b174d9bc34121f6f460f0be32288b77502206a8e74bf912e97b48b3363babd70419e17fe02e565abf9b653c2fbea29c545b901",
        "0210d8774ce4d535d68831ccb4edec1a6910a29353f20a9a2687596e9e224aee48"
      ],
      "sequence": 4294967293
    }
  ],
  "vout": [
    {
      "value": 0.00010000,
      "n": 0,
      "scriptPubKey": {
        "asm": "OP_DUP OP_HASH160 fd6d4ca68d15ae65ee7456afcd292f2ceba3787f OP_EQUALVERIFY OP_CHECKSIG",
        "desc": "addr(n4cxBqtUBoG8uM9DRGrqsiWFCfzkfjHVfa)#xuxs6vdl",
        "hex": "76a914fd6d4ca68d15ae65ee7456afcd292f2ceba3787f88ac",
        "address": "n4cxBqtUBoG8uM9DRGrqsiWFCfzkfjHVfa",
        "type": "pubkeyhash"
      }
    },
    {
      "value": 0.00010000,
      "n": 1,
      "scriptPubKey": {
        "asm": "OP_HASH160 c309934c0496e88931c2e15b939460d68838a283 OP_EQUAL",
        "desc": "addr(2NB2VDzwnCg7MS1D4kqBVUgfkxjKZ5TF16c)#50eerkqk",
        "hex": "a914c309934c0496e88931c2e15b939460d68838a28387",
        "address": "2NB2VDzwnCg7MS1D4kqBVUgfkxjKZ5TF16c",
        "type": "scripthash"
      }
    },
    {
      "value": 0.00010000,
      "n": 2,
      "scriptPubKey": {
        "asm": "0 7e30c8b088858d2968b7bd973c4ce225c9932d8e",
        "desc": "addr(tb1q0ccv3vygskxjj69hhktncn8zyhyextvwj87ser)#vtm75vvm",
        "hex": "00147e30c8b088858d2968b7bd973c4ce225c9932d8e",
        "address": "tb1q0ccv3vygskxjj69hhktncn8zyhyextvwj87ser",
        "type": "witness_v0_keyhash"
      }
    },
    {
      "value": 0.00010000,
      "n": 3,
      "scriptPubKey": {
        "asm": "0 2dd40d9dbad0b02dc98e94268c334d6cf65fc68bd4bcb9283c9f23cc0d00d73a",
        "desc": "addr(tb1q9h2qm8d66zczmjvwjsngcv6ddnm9l35t6j7tj2punu3ucrgq6uaq2x3clm)#65ld0n8m",
        "hex": "00202dd40d9dbad0b02dc98e94268c334d6cf65fc68bd4bcb9283c9f23cc0d00d73a",
        "address": "tb1q9h2qm8d66zczmjvwjsngcv6ddnm9l35t6j7tj2punu3ucrgq6uaq2x3clm",
        "type": "witness_v0_scripthash"
      }
    },
    {
      "value": 0.00010000,
      "n": 4,
      "scriptPubKey": {
        "asm": "1 ba4f2d17d859ce32164a4110168fce3fa243a745b802c86844daa488dd6b429e",
        "desc": "rawtr(ba4f2d17d859ce32164a4110168fce3fa243a745b802c86844daa488dd6b429e)#rlhqvq6c",
        "hex": "5120ba4f2d17d859ce32164a4110168fce3fa243a745b802c86844daa488dd6b429e",
        "address": "tb1phf8j697ct88ry9j2gygpdr7w873y8f69hqpvs6zym2jg3httg20qwl7vgw",
        "type": "witness_v1_taproot"
      }
    },
    {
      "value": 0.00337900,
      "n": 5,
      "scriptPubKey": {
        "asm": "0 fcebca0e0996f1246fee3ceb9c015453a1e85ad8",
        "desc": "addr(tb1qln4u5rsfjmcjgmlw8n4ecq252ws7skkcr9uuml)#chqmtsu2",
        "hex": "0014fcebca0e0996f1246fee3ceb9c015453a1e85ad8",
        "address": "tb1qln4u5rsfjmcjgmlw8n4ecq252ws7skkcr9uuml",
        "type": "witness_v0_keyhash"
      }
    }
  ]
}
```

### 署名したトランザクションをブロードキャストする

返り値のトランザクションIDをメモする

```bash
SENT_TXID=`bitcoin-core.cli -rpcwallet=bob sendrawtransaction $SIGNED_TX_HEX`

#確認例
echo $SENT_TXID
=>
a01ada9c51a4109c1d7583ad9e1facdc0c2e1de5095e6b5eaccf0427fcb9e5ca
```

### 送信したトランザクションを確認する

引数のトランザクションIDは，自分が送信したトランザクションIDです

```bash
bitcoin-core.cli -rpcwallet=bob gettransaction $SENT_TXID
```

### 10分以上経過後，UTXOのリストを確認する

UTXOの数が増えていることを確認します．

```bash
bitcoin-core.cli -rpcwallet=bob listunspent

```

## <a id="PREP"> </a>次の演習への準備

シェル変数に格納していた内容を次回の演習のために保存しておきます．

各自それぞれの環境によって内容が異なります．

確実に自分のシェル変数の内容を保管しておき，次回に再現できるようにしておきましょう．

### 次回の演習に必要となるシェル変数の値の一覧

```
SENT_TXID
SIGNED_TX
UNSIGNED_TX
UTXO
P2TR_ADDR
P2WSH_DESCRIPTOR
P2WSH_REDEEMSCRIPT
P2WSH_ADDR
P2WSH
P2WPKH_ADDR
P2SH_DESCRIPTOR
P2SH_REDEEMSCRIPT
P2SH_ADDR
P2SH
PUBKEY1
PUBKEY2
PUBKEY3
SIGNER1
SIGNER2
SIGNER3
P2PKH_ADDR
P2PK_ADDR
BOB
TARO
```

### シェル変数を再現するファイルの作成

以下のスクリプトの実行結果を テキストファイル として保存しておいてください

```bash
echo "BP2PK_ADDROB=\"$P2PK_ADDR\""
echo "P2PKH_ADDR=\"$P2PKH_ADDR\""
echo "SIGNER1=\"$SIGNER1\""
echo "SIGNER2=\"$SIGNER2\""
echo "SIGNER3=\"$SIGNER3\""
echo "PUBKEY1=\"$PUBKEY1\""
echo "PUBKEY2=\"$PUBKEY2\""
echo "PUBKEY3=\"$PUBKEY3\""
echo "P2SH='$(bitcoin-core.cli createmultisig 2 "[\"$PUBKEY1\",\"$PUBKEY2\",\"$PUBKEY3\"]" legacy)'"
echo "P2SH_ADDR=\"$P2SH_ADDR\""
echo "P2SH_REDEEMSCRIPT=\"$P2SH_REDEEMSCRIPT\""
echo "P2SH_DESCRIPTOR=\"$P2SH_DESCRIPTOR\""
echo "P2WPKH_ADDR=\"$P2WPKH_ADDR\""
echo "P2WSH='$(bitcoin-core.cli createmultisig 2 "[\"$PUBKEY1\",\"$PUBKEY2\",\"$PUBKEY3\"]" bech32)'"
echo "P2WSH_ADDR=\"$P2WSH_ADDR\""
echo "P2WSH_REDEEMSCRIPT=\"$P2WSH_REDEEMSCRIPT\""
echo "P2WSH_DESCRIPTOR=\"$P2WSH_DESCRIPTOR\""
echo "P2TR_ADDR=\"$P2TR_ADDR\""
echo "UNSIGNED_TX=\"$UNSIGNED_TX\""
echo "SIGNED_TX_HEX=\"$SIGNED_TX_HEX\""
echo "SENT_TXID=\"$SENT_TXID\""
```

実行結果の例（必ず自分の環境で実行してください）

自分の環境で実行した内容をテキストファイルとして保管してください．

次回の演習に必要になります．

バックアップファイルの例

```bash
BP2PK_ADDROB="02cb7815dcbdc707e71852ac7b5c17648b54fc14d068c9dd3ec67d3c4a47d74068"
P2PKH_ADDR="n4cxBqtUBoG8uM9DRGrqsiWFCfzkfjHVfa"
SIGNER1="tb1qv66l27aexdz880u3y8uruc0xveta4d9uj69l54"
SIGNER2="tb1qlrur8hm6p3k24nwrfywwhwr367hwu57fmy5hrm"
SIGNER3="tb1qlj6lvyw4cfxk8mlewvqkuvf84a5s8hf7ye03aj"
PUBKEY1="0248213e8f4521d177938de16ebed519f1deb23560822c6a514495e68e2c75d9dc"
PUBKEY2="0353e0d6e0c1cea221fad989a82ad0cbb72ca538277b614e42bc975f891576cb3b"
PUBKEY3="0257638fdee103eced9aa5c24ade4d8c108c3069aee52b40d008a3ae6f389b942d"
P2SH='{
  "address": "2NB2VDzwnCg7MS1D4kqBVUgfkxjKZ5TF16c",
  "redeemScript": "52210248213e8f4521d177938de16ebed519f1deb23560822c6a514495e68e2c75d9dc210353e0d6e0c1cea221fad989a82ad0cbb72ca538277b614e42bc975f891576cb3b210257638fdee103eced9aa5c24ade4d8c108c3069aee52b40d008a3ae6f389b942d53ae",
  "descriptor": "sh(multi(2,0248213e8f4521d177938de16ebed519f1deb23560822c6a514495e68e2c75d9dc,0353e0d6e0c1cea221fad989a82ad0cbb72ca538277b614e42bc975f891576cb3b,0257638fdee103eced9aa5c24ade4d8c108c3069aee52b40d008a3ae6f389b942d))#sc9ctaw5"
}'
P2SH_ADDR="2NB2VDzwnCg7MS1D4kqBVUgfkxjKZ5TF16c"
P2SH_REDEEMSCRIPT="52210248213e8f4521d177938de16ebed519f1deb23560822c6a514495e68e2c75d9dc210353e0d6e0c1cea221fad989a82ad0cbb72ca538277b614e42bc975f891576cb3b210257638fdee103eced9aa5c24ade4d8c108c3069aee52b40d008a3ae6f389b942d53ae"
P2SH_DESCRIPTOR="sh(multi(2,0248213e8f4521d177938de16ebed519f1deb23560822c6a514495e68e2c75d9dc,0353e0d6e0c1cea221fad989a82ad0cbb72ca538277b614e42bc975f891576cb3b,0257638fdee103eced9aa5c24ade4d8c108c3069aee52b40d008a3ae6f389b942d))#sc9ctaw5"
P2WPKH_ADDR="tb1q0ccv3vygskxjj69hhktncn8zyhyextvwj87ser"
P2WSH='{
  "address": "tb1q9h2qm8d66zczmjvwjsngcv6ddnm9l35t6j7tj2punu3ucrgq6uaq2x3clm",
  "redeemScript": "52210248213e8f4521d177938de16ebed519f1deb23560822c6a514495e68e2c75d9dc210353e0d6e0c1cea221fad989a82ad0cbb72ca538277b614e42bc975f891576cb3b210257638fdee103eced9aa5c24ade4d8c108c3069aee52b40d008a3ae6f389b942d53ae",
  "descriptor": "wsh(multi(2,0248213e8f4521d177938de16ebed519f1deb23560822c6a514495e68e2c75d9dc,0353e0d6e0c1cea221fad989a82ad0cbb72ca538277b614e42bc975f891576cb3b,0257638fdee103eced9aa5c24ade4d8c108c3069aee52b40d008a3ae6f389b942d))#tx0an6ly"
}'
P2WSH_ADDR="tb1q9h2qm8d66zczmjvwjsngcv6ddnm9l35t6j7tj2punu3ucrgq6uaq2x3clm"
P2WSH_REDEEMSCRIPT="52210248213e8f4521d177938de16ebed519f1deb23560822c6a514495e68e2c75d9dc210353e0d6e0c1cea221fad989a82ad0cbb72ca538277b614e42bc975f891576cb3b210257638fdee103eced9aa5c24ade4d8c108c3069aee52b40d008a3ae6f389b942d53ae"
P2WSH_DESCRIPTOR="wsh(multi(2,0248213e8f4521d177938de16ebed519f1deb23560822c6a514495e68e2c75d9dc,0353e0d6e0c1cea221fad989a82ad0cbb72ca538277b614e42bc975f891576cb3b,0257638fdee103eced9aa5c24ade4d8c108c3069aee52b40d008a3ae6f389b942d))#tx0an6ly"
P2TR_ADDR="tb1phf8j697ct88ry9j2gygpdr7w873y8f69hqpvs6zym2jg3httg20qwl7vgw"
UNSIGNED_TX="0200000001bc1b61fdb84c7f13c722e575e160c53d7c28a9ff2f24a8cb0756eb38764b49b10100000000fdffffff0610270000000000001976a914fd6d4ca68d15ae65ee7456afcd292f2ceba3787f88ac102700000000000017a914c309934c0496e88931c2e15b939460d68838a2838710270000000000001600147e30c8b088858d2968b7bd973c4ce225c9932d8e10270000000000002200202dd40d9dbad0b02dc98e94268c334d6cf65fc68bd4bcb9283c9f23cc0d00d73a1027000000000000225120ba4f2d17d859ce32164a4110168fce3fa243a745b802c86844daa488dd6b429eec27050000000000160014fcebca0e0996f1246fee3ceb9c015453a1e85ad800000000"
SIGNED_TX_HEX="02000000000101bc1b61fdb84c7f13c722e575e160c53d7c28a9ff2f24a8cb0756eb38764b49b10100000000fdffffff0610270000000000001976a914fd6d4ca68d15ae65ee7456afcd292f2ceba3787f88ac102700000000000017a914c309934c0496e88931c2e15b939460d68838a2838710270000000000001600147e30c8b088858d2968b7bd973c4ce225c9932d8e10270000000000002200202dd40d9dbad0b02dc98e94268c334d6cf65fc68bd4bcb9283c9f23cc0d00d73a1027000000000000225120ba4f2d17d859ce32164a4110168fce3fa243a745b802c86844daa488dd6b429eec27050000000000160014fcebca0e0996f1246fee3ceb9c015453a1e85ad80247304402200a8514ddaf1582e69410351bfa805bc3b174d9bc34121f6f460f0be32288b77502206a8e74bf912e97b48b3363babd70419e17fe02e565abf9b653c2fbea29c545b901210210d8774ce4d535d68831ccb4edec1a6910a29353f20a9a2687596e9e224aee4800000000"
SENT_TXID="a01ada9c51a4109c1d7583ad9e1facdc0c2e1de5095e6b5eaccf0427fcb9e5ca"
```