# 3. bitcoin core の詳細-2

2024/06/17  更新 Shigeichiro Yamasaki

## 各種トランザクションの構成を一連の流れで演習します

ubuntu での実施を前提にします．


1.  3 種類のoutput (P2PKH,  P2WPKH,  P2TR)を持つトランザクション TX1 をブロードキャストする

P2SH, P2WSH の送金にはプログラミングが必要です

```
(UTXOの資金)--> TX1 -+-->0.0002BTC VOUT:1 -->TX3(P2PKH) --> 0.00018BTC
                    +-->0.0002BTC VOUT:2 
                    +-->0.0002BTC VOUT:3 -->TX5(P2WPKH)--> 0.00018BTC
                    +-->0.0002BTC VOUT:4 
                    +-->0.0002BTC VOUT:5 -->TX7(P2TR)  --> 0.00018BTC
                    +-->おつり
```

## 目次

* [シェル変数の復元](#restore)
* [アドレス情報の確認](#address)
* [6種類のUTXOの確認](#6UTXOs)
* [P2PKH](#p2pkh)
* P2WPKH
* P2TR

* [descriptor の確認](#IMPORT)

##  <a id="restore">シェル変数の復元</a>

前回の演習の最後で保存していたシェル変数のバックアップファイルをシェルに評価させて復元します．

以下は例です．

自分のバックアップファイルから復元してください

```bash
TARO="tb1qd3la0q64a5qt5l4aka00jq495ry7d7gws84kf8"
BOB="tb1qctzkewtgryz548ajasuf526nfmdu5qum3alec6"
BP2PK_ADDROB="0226e09f8d39f0329ffc996076d5b8cdab14e4e1f71daf9cdeb2fbf31c2e0b70fa"
P2PKH_ADDR="n3ExacD1dFiMLL37u4j5YsR1SBcqi7qCFA"
SIGNER1="tb1qvd9dl3hvtap455l74f4l2fhw0sflwjduljz33n"
SIGNER2="tb1qwyxcedp2rjt4uxpvs6nrp62la8rsx2rk7u5gfl"
SIGNER3="tb1qd5d453dkaqh4kjs5xq574y4pq0pk8w8n7du8a6"
PUBKEY1="0222e8217169108c253501bbc0c12b1afdf7d90f7ffcab3c977ccd0720b396bfe6"
PUBKEY2="03db5794dee648c57f6bc4eecac49328c57541737767ad066fd2149aaa5dd50280"
PUBKEY3="02fed05b945310ab915bec26e8a8ef4489ccea88af9cb111a46d2be9aeb027e7da"
P2SH='{
  "address": "2NFV3cvYv7Lo9LRdwaWmC2Anusn81G4cLvZ",
  "redeemScript": "52210222e8217169108c253501bbc0c12b1afdf7d90f7ffcab3c977ccd0720b396bfe62103db5794dee648c57f6bc4eecac49328c57541737767ad066fd2149aaa5dd502802102fed05b945310ab915bec26e8a8ef4489ccea88af9cb111a46d2be9aeb027e7da53ae",
  "descriptor": "sh(multi(2,0222e8217169108c253501bbc0c12b1afdf7d90f7ffcab3c977ccd0720b396bfe6,03db5794dee648c57f6bc4eecac49328c57541737767ad066fd2149aaa5dd50280,02fed05b945310ab915bec26e8a8ef4489ccea88af9cb111a46d2be9aeb027e7da))#qvpxamev"
}'
P2SH_ADDR="2NFV3cvYv7Lo9LRdwaWmC2Anusn81G4cLvZ"
P2SH_REDEEMSCRIPT="52210222e8217169108c253501bbc0c12b1afdf7d90f7ffcab3c977ccd0720b396bfe62103db5794dee648c57f6bc4eecac49328c57541737767ad066fd2149aaa5dd502802102fed05b945310ab915bec26e8a8ef4489ccea88af9cb111a46d2be9aeb027e7da53ae"
P2SH_DESCRIPTOR="sh(multi(2,0222e8217169108c253501bbc0c12b1afdf7d90f7ffcab3c977ccd0720b396bfe6,03db5794dee648c57f6bc4eecac49328c57541737767ad066fd2149aaa5dd50280,02fed05b945310ab915bec26e8a8ef4489ccea88af9cb111a46d2be9aeb027e7da))#qvpxamev"
P2WPKH_ADDR="tb1q6zy2jxjry280wq64m2gvl9sfnvhvy4t3w05ljv"
P2WSH='{
  "address": "tb1q4d6dwjfuklrkc3qh4u6np5shtl57rxkdmej4n8c4sarggh992cas33t5p0",
  "redeemScript": "52210222e8217169108c253501bbc0c12b1afdf7d90f7ffcab3c977ccd0720b396bfe62103db5794dee648c57f6bc4eecac49328c57541737767ad066fd2149aaa5dd502802102fed05b945310ab915bec26e8a8ef4489ccea88af9cb111a46d2be9aeb027e7da53ae",
  "descriptor": "wsh(multi(2,0222e8217169108c253501bbc0c12b1afdf7d90f7ffcab3c977ccd0720b396bfe6,03db5794dee648c57f6bc4eecac49328c57541737767ad066fd2149aaa5dd50280,02fed05b945310ab915bec26e8a8ef4489ccea88af9cb111a46d2be9aeb027e7da))#lfmqcn4l"
}'
P2WSH_ADDR="tb1q4d6dwjfuklrkc3qh4u6np5shtl57rxkdmej4n8c4sarggh992cas33t5p0"
P2WSH_REDEEMSCRIPT="52210222e8217169108c253501bbc0c12b1afdf7d90f7ffcab3c977ccd0720b396bfe62103db5794dee648c57f6bc4eecac49328c57541737767ad066fd2149aaa5dd502802102fed05b945310ab915bec26e8a8ef4489ccea88af9cb111a46d2be9aeb027e7da53ae"
P2WSH_DESCRIPTOR="wsh(multi(2,0222e8217169108c253501bbc0c12b1afdf7d90f7ffcab3c977ccd0720b396bfe6,03db5794dee648c57f6bc4eecac49328c57541737767ad066fd2149aaa5dd50280,02fed05b945310ab915bec26e8a8ef4489ccea88af9cb111a46d2be9aeb027e7da))#lfmqcn4l"
P2TR_ADDR="tb1prg0ygugk6wmqlmd5hvl46nywmmckqhu6eqdymttxt2tt8s238sqssm7krw"
UNSIGNED_TX="02000000012ed86ea54823f1b390b3473a576a4dcf2352e2336f3c003025164b24aadf16f60000000000fdffffff06204e0000000000001976a914ee4c59a05db9e4f2449346061a064f90dd59239688ac204e00000000000017a914f3efef8aa6faf6e9bea495d8eb27767e7bd333d487204e000000000000160014d088a91a43228ef70355da90cf96099b2ec25571204e000000000000220020ab74d7493cb7c76c4417af3530d2175fe9e19acdde65599f158746845ca5563b204e0000000000002251201a1e447116d3b60fedb4bb3f5d4c8edef1605f9ac81a4dad665a96b3c1513c01b0650d00000000001600146c7fd78355ed00ba7ebdb75ef902a5a0c9e6f90e00000000"
SIGNED_TX_HEX="020000000001012ed86ea54823f1b390b3473a576a4dcf2352e2336f3c003025164b24aadf16f60000000000fdffffff06204e0000000000001976a914ee4c59a05db9e4f2449346061a064f90dd59239688ac204e00000000000017a914f3efef8aa6faf6e9bea495d8eb27767e7bd333d487204e000000000000160014d088a91a43228ef70355da90cf96099b2ec25571204e000000000000220020ab74d7493cb7c76c4417af3530d2175fe9e19acdde65599f158746845ca5563b204e0000000000002251201a1e447116d3b60fedb4bb3f5d4c8edef1605f9ac81a4dad665a96b3c1513c01b0650d00000000001600146c7fd78355ed00ba7ebdb75ef902a5a0c9e6f90e02473044022036c2b90918a45669bf5ba7795d0515ed5bf39484f4a5cce5da0af8e14b9865e502200e003fe97f4874f2398da6c94d0a0217ad2c8f0946d1c2a3782de01111bdbc840121035701c8785279c4ca4eb9e792428404e609b2f6a07f2b7e13b781c2d02c752def00000000"
SENT_TXID="557adafc853f70a405a9e271ab4b5e8b308049ba18792361d2d82c0317271c33"
```

## <a id="address">アドレス情報の確認</a>

### P2PKHアドレス

```bash
bitcoin-core.cli getaddressinfo $P2PKH_ADDR
=>
{
  "address": "n3ExacD1dFiMLL37u4j5YsR1SBcqi7qCFA",
  "scriptPubKey": "76a914ee4c59a05db9e4f2449346061a064f90dd59239688ac",
  "ismine": true,
  "solvable": true,
  "desc": "pkh([c4317781/44h/1h/0h/0/2]02f892126df2459ca403ee963b92e3fe25355780d4192be8569e1a544553068fcf)#7udsu0qd",
  "parent_desc": "pkh([c4317781/44h/1h/0h]tpubDDMz7udSzrtsvFo3LEnVxz5HEaPyRgajwwU7Fr1F55Xkxmbu9NPAjeLK6vvsDYB6eqU7Phd22kLD8jHnCUhT9YqDpAZ3HTfNLawsMeY6Wwr/0/*)#pqj50jhx",
  "iswatchonly": false,
  "isscript": false,
  "iswitness": false,
  "pubkey": "02f892126df2459ca403ee963b92e3fe25355780d4192be8569e1a544553068fcf",
  "iscompressed": true,
  "ischange": false,
  "timestamp": 1716908333,
  "hdkeypath": "m/44h/1h/0h/0/2",
  "hdseedid": "0000000000000000000000000000000000000000",
  "hdmasterfingerprint": "c4317781",
  "labels": [
    "pkh_user"
  ]
}
```


### P2SHアドレス

```bash
bitcoin-core.cli getaddressinfo $P2SH_ADDR
=>
{
  "address": "2NFV3cvYv7Lo9LRdwaWmC2Anusn81G4cLvZ",
  "scriptPubKey": "a914f3efef8aa6faf6e9bea495d8eb27767e7bd333d487",
  "ismine": false,
  "solvable": false,
  "iswatchonly": false,
  "isscript": true,
  "iswitness": false,
  "ischange": false,
  "labels": [
  ]
}

```



### P2WPKHアドレス

```bash
bitcoin-core.cli getaddressinfo $P2WPKH_ADDR
=>
{
  "address": "tb1q6zy2jxjry280wq64m2gvl9sfnvhvy4t3w05ljv",
  "scriptPubKey": "0014d088a91a43228ef70355da90cf96099b2ec25571",
  "ismine": true,
  "solvable": true,
  "desc": "wpkh([c4317781/84h/1h/0h/0/24]032bd958132aaed2ea27cd8b1d3e31f4dba13543d3ef1bc9c55b6491934a4fd550)#d93g0dad",
  "parent_desc": "wpkh([c4317781/84h/1h/0h]tpubDDThUseTsE7BrL9L7K6cNLBfSjLa8zdMVuqEfsiDjgv8WtkG3VScT9HJ8sKAfcWG8NoXD25bd5h8rNwGSep2frEdVtGfQm4n8mQYPjh2DHh/0/*)#w9yrknfc",
  "iswatchonly": false,
  "isscript": false,
  "iswitness": true,
  "witness_version": 0,
  "witness_program": "d088a91a43228ef70355da90cf96099b2ec25571",
  "pubkey": "032bd958132aaed2ea27cd8b1d3e31f4dba13543d3ef1bc9c55b6491934a4fd550",
  "ischange": false,
  "timestamp": 1716908333,
  "hdkeypath": "m/84h/1h/0h/0/24",
  "hdseedid": "0000000000000000000000000000000000000000",
  "hdmasterfingerprint": "c4317781",
  "labels": [
    "wpkh_user"
  ]
}

```


### P2WSHアドレス

```bash
bitcoin-core.cli getaddressinfo $P2WSH_ADDR
=>
{
  "address": "tb1q4d6dwjfuklrkc3qh4u6np5shtl57rxkdmej4n8c4sarggh992cas33t5p0",
  "scriptPubKey": "0020ab74d7493cb7c76c4417af3530d2175fe9e19acdde65599f158746845ca5563b",
  "ismine": false,
  "solvable": false,
  "iswatchonly": false,
  "isscript": true,
  "iswitness": true,
  "witness_version": 0,
  "witness_program": "ab74d7493cb7c76c4417af3530d2175fe9e19acdde65599f158746845ca5563b",
  "ischange": false,
  "labels": [
  ]
}

```


### P2TRアドレス

```bash
bitcoin-core.cli getaddressinfo $P2TR_ADDR
=>
{
  "address": "tb1prg0ygugk6wmqlmd5hvl46nywmmckqhu6eqdymttxt2tt8s238sqssm7krw",
  "scriptPubKey": "51201a1e447116d3b60fedb4bb3f5d4c8edef1605f9ac81a4dad665a96b3c1513c01",
  "ismine": true,
  "solvable": true,
  "desc": "tr([c4317781/86h/1h/0h/0/1]10b5af06b4098b86c401aef6794e481e77477da30dabd11b20526a16475d6916)#vna06urd",
  "parent_desc": "tr([c4317781/86h/1h/0h]tpubDD5feT2A4eyTwqutfWYMVVcMdFpu7kLo4bTqBDD9pH2A7reog3sdc1nwNKSxS3qC6jatg6Fq8xZFi9MEEUwWceqXWxoG5V87xtgVf4Mrpac/0/*)#cvtldceg",
  "iswatchonly": false,
  "isscript": true,
  "iswitness": true,
  "witness_version": 1,
  "witness_program": "1a1e447116d3b60fedb4bb3f5d4c8edef1605f9ac81a4dad665a96b3c1513c01",
  "ischange": false,
  "timestamp": 1716908333,
  "hdkeypath": "m/86h/1h/0h/0/1",
  "hdseedid": "0000000000000000000000000000000000000000",
  "hdmasterfingerprint": "c4317781",
  "labels": [
    "tr_user"
  ]
}
```

## <a id="6UTXOs">6種類の UTXO の確認</a>


```bash
UTXOS=`bitcoin-core.cli listunspent`
```

### UTXOを一つずつ確認

各UTXOの "desc" の値を確認
各UTXOの "address" の値を確認

pkh(), wpkh(), tr() のUTXOを見つける

```bash
echo $UTXOS|jq '.[0].desc'
=>
"pkh([c4317781/44h/1h/0h/0/2]02f892126df2459ca403ee963b92e3fe25355780d4192be8569e1a544553068fcf)#7udsu0qd"

echo $UTXOS|jq '.[0].address'
=>
"n3ExacD1dFiMLL37u4j5YsR1SBcqi7qCFA"

echo $UTXOS|jq '.[1].desc'
=>
"wpkh([c4317781/84h/1h/0h/0/31]035701c8785279c4ca4eb9e792428404e609b2f6a07f2b7e13b781c2d02c752def)#glp2qarz"

echo $UTXOS|jq '.[1].address'
=>
"tb1qd3la0q64a5qt5l4aka00jq495ry7d7gws84kf8"

...

echo $UTXOS|jq '.[9].desc'
=>
"tr([c4317781/86h/1h/0h/1/0]1f0c6f9ded2359813cce076b53005a229b3d8a2caeb617a0adabf73b26f8391b)#6hch3ltl"

echo $UTXOS|jq '.[9].address'
=>
"tb1pj56xf3utuyzkf687xhtj69cf8g6yh4pvee5k9d4g9y2hd4387fvqv22cju"
```

### アドレスを確認してUTXOを決定する

* P2PKH のUTXO はこの例では インデックス 0

```bash
echo $P2PKH_ADDR
=>
n3ExacD1dFiMLL37u4j5YsR1SBcqi7qCFA

UTXO_P2PKH=`echo $UTXOS|jq '.[0]'`

echo $UTXO_P2PKH
=>
{ "txid": "557adafc853f70a405a9e271ab4b5e8b308049ba18792361d2d82c0317271c33", "vout": 0, "address": "n3ExacD1dFiMLL37u4j5YsR1SBcqi7qCFA", "label": "pkh_user", "scriptPubKey": "76a914ee4c59a05db9e4f2449346061a064f90dd59239688ac", "amount": 0.00020000, "confirmations": 615, "spendable": true, "solvable": true, "desc": "pkh([c4317781/44h/1h/0h/0/2]02f892126df2459ca403ee963b92e3fe25355780d4192be8569e1a544553068fcf)#7udsu0qd", "parent_descs": [ "pkh(tpubD6NzVbkrYhZ4WMdAbdLz46exTnUp5Q3K7voVX1AZ26FqvuHfGfKZ6XdreuQzvhzoCCX4ayjsSx7xSXVaxn1pxr1qbix2SYYMLNxbgtifkMT/44h/1h/0h/0/*)#75tfa5h9" ], "safe": true }
```


* P2WPKH のUTXOは この例では インデックス 8 

```bash
echo $P2WPKH_ADDR
=>
tb1q6zy2jxjry280wq64m2gvl9sfnvhvy4t3w05ljv


UTXO_WPKH=`echo $UTXOS|jq -r '.[8]'`

echo $UTXO_WPKH
=>
{ "txid": "557adafc853f70a405a9e271ab4b5e8b308049ba18792361d2d82c0317271c33", "vout": 2, "address": "tb1q6zy2jxjry280wq64m2gvl9sfnvhvy4t3w05ljv", "label": "wpkh_user", "scriptPubKey": "0014d088a91a43228ef70355da90cf96099b2ec25571", "amount": 0.00020000, "confirmations": 615, "spendable": true, "solvable": true, "desc": "wpkh([c4317781/84h/1h/0h/0/24]032bd958132aaed2ea27cd8b1d3e31f4dba13543d3ef1bc9c55b6491934a4fd550)#d93g0dad", "parent_descs": [ "wpkh(tpubD6NzVbkrYhZ4WMdAbdLz46exTnUp5Q3K7voVX1AZ26FqvuHfGfKZ6XdreuQzvhzoCCX4ayjsSx7xSXVaxn1pxr1qbix2SYYMLNxbgtifkMT/84h/1h/0h/0/*)#w3yerj76" ], "safe": true }
```

* P2TR のUTXOは この例では インデックス 9

```bash
echo $P2TR_ADDR
=>
tb1prg0ygugk6wmqlmd5hvl46nywmmckqhu6eqdymttxt2tt8s238sqssm7krw


UTXO_TR=`echo $UTXOS|jq '.[9]'`

echo $UTXO_TR
=>
{ "txid": "963749a3ce3b770157c3b05c2b29715e0e5cf2a1e8e34aab5f39d5e6a7ae8737", "vout": 0, "address": "tb1pj56xf3utuyzkf687xhtj69cf8g6yh4pvee5k9d4g9y2hd4387fvqv22cju", "scriptPubKey": "5120953464c78be10564e8fe35d72d17093a344bd42cce6962b6a8291576d627f258", "amount": 0.00697768, "confirmations": 22, "spendable": true, "solvable": true, "desc": "tr([c4317781/86h/1h/0h/1/0]1f0c6f9ded2359813cce076b53005a229b3d8a2caeb617a0adabf73b26f8391b)#6hch3ltl", "parent_descs": [ "tr(tpubD6NzVbkrYhZ4WMdAbdLz46exTnUp5Q3K7voVX1AZ26FqvuHfGfKZ6XdreuQzvhzoCCX4ayjsSx7xSXVaxn1pxr1qbix2SYYMLNxbgtifkMT/86h/1h/0h/1/*)#0l0qwhcu" ], "safe": true }
```

## <a id="p2pkh">P2PKH </a>

### P2PKH タイプのUTXOの確認


トランザクションIDとVOUT と金額の確認

```bash
TXID_PKH=`echo $UTXO_PKH|jq -r .txid`

echo $TXID_PKH
=>
557adafc853f70a405a9e271ab4b5e8b308049ba18792361d2d82c0317271c33

VOUT_PKH=`echo $UTXO_PKH|jq -r .vout`

echo $VOUT_PKH
=>
0

AMOUNT_PKH=`echo $UTXO_PKH|jq -r .amount`

echo $AMOUNT_PKH
=>
0.00020000
```

* 送金先はTAROとします

```bash
echo $TARO
=>
tb1qd3la0q64a5qt5l4aka00jq495ry7d7gws84kf8
```

* 送金金額

FEE 0.00002
AMOUNTは 0.0002-0.00002 = 0.00018

### P2PKH トランザクションの作成

```bash
INPUT_PKH="[{\"txid\":\"$TXID_PKH\",\"vout\": $VOUT_PKH}]"
OUTPUT_PKH="[{\"$TARO\": 0.00018}]"
```

```bash
echo "$INPUT_PKH"
```

未署名のトランザクション

```bash
UNSIGNED_PKH_TX=`bitcoin-core.cli createrawtransaction "$INPUT_PKH" "$OUTPUT_PKH"`

echo $UNSIGNED_PKH_TX
=>
0200000001331c2717032cd8d261237918ba4980308b5e4bab71e2a905a4703f85fcda7a550000000000fdffffff0150460000000000001600146c7fd78355ed00ba7ebdb75ef902a5a0c9e6f90e00000000
```

### P2PKH トランザクションへの署名


```bash
SIGNED_PKH_TX=`bitcoin-core.cli signrawtransactionwithwallet $UNSIGNED_PKH_TX`

echo $SIGNED_PKH_TX
{ "hex": "0200000001331c2717032cd8d261237918ba4980308b5e4bab71e2a905a4703f85fcda7a55000000006a4730440220442e72ce91b90e30486abd8e5df854844bef208077f846ee3e8196994bafa5fd02202b7138c059d5aac1f3ff5ff732f0d97f2ca44dbb32b424a746da95c809f550ea012102f892126df2459ca403ee963b92e3fe25355780d4192be8569e1a544553068fcffdffffff0150460000000000001600146c7fd78355ed00ba7ebdb75ef902a5a0c9e6f90e00000000", "complete": true }
```

```bash
SIGNED_PKH_TX_HEX=`echo $SIGNED_PKH_TX| jq -r .hex`

echo $SIGNED_PKH_TX_HEX
=>
0200000001331c2717032cd8d261237918ba4980308b5e4bab71e2a905a4703f85fcda7a55000000006a4730440220442e72ce91b90e30486abd8e5df854844bef208077f846ee3e8196994bafa5fd02202b7138c059d5aac1f3ff5ff732f0d97f2ca44dbb32b424a746da95c809f550ea012102f892126df2459ca403ee963b92e3fe25355780d4192be8569e1a544553068fcffdffffff0150460000000000001600146c7fd78355ed00ba7ebdb75ef902a5a0c9e6f90e00000000
```

### 作成したPKH トランザクションの構造

```bash
bitcoin-core.cli decoderawtransaction $SIGNED_PKH_TX_HEX

=>
{
  "txid": "a00d9743c4191a725b094ebc94113791cf29f321abec3441c39271ef79833aed",
  "hash": "a00d9743c4191a725b094ebc94113791cf29f321abec3441c39271ef79833aed",
  "version": 2,
  "size": 188,
  "vsize": 188,
  "weight": 752,
  "locktime": 0,
  "vin": [
    {
      "txid": "557adafc853f70a405a9e271ab4b5e8b308049ba18792361d2d82c0317271c33",
      "vout": 0,
      "scriptSig": {
        "asm": "30440220442e72ce91b90e30486abd8e5df854844bef208077f846ee3e8196994bafa5fd02202b7138c059d5aac1f3ff5ff732f0d97f2ca44dbb32b424a746da95c809f550ea[ALL] 02f892126df2459ca403ee963b92e3fe25355780d4192be8569e1a544553068fcf",
        "hex": "4730440220442e72ce91b90e30486abd8e5df854844bef208077f846ee3e8196994bafa5fd02202b7138c059d5aac1f3ff5ff732f0d97f2ca44dbb32b424a746da95c809f550ea012102f892126df2459ca403ee963b92e3fe25355780d4192be8569e1a544553068fcf"
      },
      "sequence": 4294967293
    }
  ],
  "vout": [
    {
      "value": 0.00018000,
      "n": 0,
      "scriptPubKey": {
        "asm": "0 6c7fd78355ed00ba7ebdb75ef902a5a0c9e6f90e",
        "desc": "addr(tb1qd3la0q64a5qt5l4aka00jq495ry7d7gws84kf8)#nshaknc2",
        "hex": "00146c7fd78355ed00ba7ebdb75ef902a5a0c9e6f90e",
        "address": "tb1qd3la0q64a5qt5l4aka00jq495ry7d7gws84kf8",
        "type": "witness_v0_keyhash"
      }
    }
  ]
}
```

### 署名済のPKHトランザクションのブロードキャスト

```bash
bitcoin-core.cli sendrawtransaction $SIGNED_PKH_TX_HEX
=>
a00d9743c4191a725b094ebc94113791cf29f321abec3441c39271ef79833aed
```


## <a id="p2wpkh">P2WPKH </a>

### P2WPKH タイプのUTXOの確認


トランザクションIDとVOUT と金額の確認

```bash
TXID_WPKH=`echo $UTXO_WPKH|jq .txid`

echo $TXID_WPKH
=>
d7db641d8b53ae7f47992899e1519a14ff293d21c4ce4331ab2380f7256e8e45

VOUT_WPKH=`echo $UTXO_WPKH|jq -r .vout`

echo $VOUT_WPKH
=>
0

AMOUNT_WPKH=`echo $UTXO_WPKH|jq -r .amount`

echo $AMOUNT_WPKH
=>
0.00020000
```

* 送金先はTAROとします

```bash
echo $TARO
=>
tb1qd3la0q64a5qt5l4aka00jq495ry7d7gws84kf8
```

* 送金金額

FEE 0.00002
AMOUNTは 0.0002-0.00002 = 0.00018

### P2WPKH トランザクションの作成

```bash
INPUT_WPKH="[{\"txid\":$TXID_WPKH,\"vout\": $VOUT_WPKH}]"
OUTPUT_WPKH="[{\"$TARO\": 0.00018}]"
```

未署名のトランザクション

```bash
UNSIGNED_WPKH_TX=`bitcoin-core.cli createrawtransaction "$INPUT_WPKH" "$OUTPUT_WPKH"`

echo $UNSIGNED_WPKH_TX
=>
0200000001f69ebf429cd6a28a19e6991749dbbb667c777bebb49786d2d46a5c4e21e47d090500000000fdffffff0150460000000000001600146c7fd78355ed00ba7ebdb75ef902a5a0c9e6f90e00000000
```

### P2WPKH トランザクションへの署名


```bash
SIGNED_WPKH_TX=`bitcoin-core.cli signrawtransactionwithwallet $UNSIGNED_WPKH_TX`

echo $SIGNED_WPKH_TX
=>
{ "hex": "02000000000101f69ebf429cd6a28a19e6991749dbbb667c777bebb49786d2d46a5c4e21e47d090500000000fdffffff0150460000000000001600146c7fd78355ed00ba7ebdb75ef902a5a0c9e6f90e0247304402201fdc8f42855872782b6054d5c2eded11337170e6ee0b6511d55f8277111556b602200d4c749718fd18b07ab8b1ec8221cdebe3c212327bb179dac23c5cfa982bfa9c0121030c6ab4fbdd20cd51e14923c55e047911fdea3a709200cf915eff29491b5be2d300000000", "complete": true }
```

```bash
SIGNED_WPKH_TX_HEX=`echo $SIGNED_WPKH_TX| jq -r .hex`

echo $SIGNED_WPKH_TX_HEX
=>
02000000000101f69ebf429cd6a28a19e6991749dbbb667c777bebb49786d2d46a5c4e21e47d090500000000fdffffff0150460000000000001600146c7fd78355ed00ba7ebdb75ef902a5a0c9e6f90e0247304402201fdc8f42855872782b6054d5c2eded11337170e6ee0b6511d55f8277111556b602200d4c749718fd18b07ab8b1ec8221cdebe3c212327bb179dac23c5cfa982bfa9c0121030c6ab4fbdd20cd51e14923c55e047911fdea3a709200cf915eff29491b5be2d300000000
```

### 作成したPKH トランザクションの構造

```bash
bitcoin-core.cli decoderawtransaction $SIGNED_WPKH_TX_HEX

=>
{
  "txid": "3daadfb4f1470e2c8347262aacccffd93c02c43a4f3081c909f7040d08f6e837",
  "hash": "840a0873a0a534fdba3ee258f623d0dced0bdcadbcfeed390bc07f8b3f009b4f",
  "version": 2,
  "size": 191,
  "vsize": 110,
  "weight": 437,
  "locktime": 0,
  "vin": [
    {
      "txid": "097de4214e5c6ad4d28697b4eb7b777c66bbdb491799e6198aa2d69c42bf9ef6",
      "vout": 5,
      "scriptSig": {
        "asm": "",
        "hex": ""
      },
      "txinwitness": [
        "304402201fdc8f42855872782b6054d5c2eded11337170e6ee0b6511d55f8277111556b602200d4c749718fd18b07ab8b1ec8221cdebe3c212327bb179dac23c5cfa982bfa9c01",
        "030c6ab4fbdd20cd51e14923c55e047911fdea3a709200cf915eff29491b5be2d3"
      ],
      "sequence": 4294967293
    }
  ],
  "vout": [
    {
      "value": 0.00018000,
      "n": 0,
      "scriptPubKey": {
        "asm": "0 6c7fd78355ed00ba7ebdb75ef902a5a0c9e6f90e",
        "desc": "addr(tb1qd3la0q64a5qt5l4aka00jq495ry7d7gws84kf8)#nshaknc2",
        "hex": "00146c7fd78355ed00ba7ebdb75ef902a5a0c9e6f90e",
        "address": "tb1qd3la0q64a5qt5l4aka00jq495ry7d7gws84kf8",
        "type": "witness_v0_keyhash"
      }
    }
  ]
}
```

### 署名済のPKHトランザクションのブロードキャスト

```bash
bitcoin-core.cli sendrawtransaction $SIGNED_WPKH_TX_HEX
=>
3daadfb4f1470e2c8347262aacccffd93c02c43a4f3081c909f7040d08f6e837
```




## <a id="p2tr">P2TR</a>

### P2WPKH タイプのUTXOの確認


トランザクションIDとVOUT と金額の確認

```bash
TXID_TR=`echo $UTXO_TR|jq .txid`

echo $TXID_TR
=>
"0903ffacbb7f212d81902d54979409610dc4b2c594a66789f35866d14f4e3dc1"

VOUT_TR=`echo $UTXO_TR|jq -r .vout`

echo $VOUT_TR
=>
0

AMOUNT_TR=`echo $UTXO_TR|jq -r .amount`

echo $AMOUNT_TR
=>
0.00020000
```

* 送金先はTAROとします

```bash
echo $TARO
=>
tb1qd3la0q64a5qt5l4aka00jq495ry7d7gws84kf8
```

* 送金金額

FEE 0.00002
AMOUNTは 0.0002-0.00002 = 0.00018

### P2WPKH トランザクションの作成

```bash
INPUT_TR="[{\"txid\":$TXID_TR,\"vout\": $VOUT_TR}]"
OUTPUT_TR="[{\"$TARO\": 0.00018}]"
```

未署名のトランザクション

```bash
UNSIGNED_TR_TX=`bitcoin-core.cli createrawtransaction "$INPUT_TR" "$OUTPUT_TR"`

echo $UNSIGNED_TR_TX
=>
0200000001c13d4e4fd16658f38967a694c5b2c40d61099497542d90812d217fbbacff03090000000000fdffffff01803e0000000000001600146c7fd78355ed00ba7ebdb75ef902a5a0c9e6f90e00000000
```

### P2WPKH トランザクションへの署名


```bash
SIGNED_TR_TX=`bitcoin-core.cli signrawtransactionwithwallet $UNSIGNED_TR_TX`

echo $SIGNED_TR_TX
=>
{ "hex": "02000000000101c13d4e4fd16658f38967a694c5b2c40d61099497542d90812d217fbbacff03090000000000fdffffff01803e0000000000001600146c7fd78355ed00ba7ebdb75ef902a5a0c9e6f90e01401c35900ae2ac1999871d3635841a541e16191976671fc6c1e956b3f4f228680098df8e8a4ab2162204ffa04f13df3b679752403f688c62d69fc9f98353db678f00000000", "complete": true }
```

```bash
SIGNED_TR_TX_HEX=`echo $SIGNED_TR_TX| jq -r .hex`

echo $SIGNED_TR_TX_HEX
=>
02000000000101c13d4e4fd16658f38967a694c5b2c40d61099497542d90812d217fbbacff03090000000000fdffffff01803e0000000000001600146c7fd78355ed00ba7ebdb75ef902a5a0c9e6f90e01401c35900ae2ac1999871d3635841a541e16191976671fc6c1e956b3f4f228680098df8e8a4ab2162204ffa04f13df3b679752403f688c62d69fc9f98353db678f00000000
```

### 作成した P2TR トランザクションの構造

```bash
bitcoin-core.cli decoderawtransaction $SIGNED_TR_TX_HEX

=>
{
  "txid": "16264bd9f959698ca36d4444e23f22d0dea1af79dbf18609d56229a0c1360018",
  "hash": "8d896f3e30ae9603aa0c963bae69f2a10a0e252911e9da5c61f34102a2831c17",
  "version": 2,
  "size": 150,
  "vsize": 99,
  "weight": 396,
  "locktime": 0,
  "vin": [
    {
      "txid": "0903ffacbb7f212d81902d54979409610dc4b2c594a66789f35866d14f4e3dc1",
      "vout": 0,
      "scriptSig": {
        "asm": "",
        "hex": ""
      },
      "txinwitness": [
        "1c35900ae2ac1999871d3635841a541e16191976671fc6c1e956b3f4f228680098df8e8a4ab2162204ffa04f13df3b679752403f688c62d69fc9f98353db678f"
      ],
      "sequence": 4294967293
    }
  ],
  "vout": [
    {
      "value": 0.00018000,
      "n": 0,
      "scriptPubKey": {
        "asm": "0 6c7fd78355ed00ba7ebdb75ef902a5a0c9e6f90e",
        "desc": "addr(tb1qd3la0q64a5qt5l4aka00jq495ry7d7gws84kf8)#nshaknc2",
        "hex": "00146c7fd78355ed00ba7ebdb75ef902a5a0c9e6f90e",
        "address": "tb1qd3la0q64a5qt5l4aka00jq495ry7d7gws84kf8",
        "type": "witness_v0_keyhash"
      }
    }
  ]
}
```

### 署名済のPKHトランザクションのブロードキャスト

```bash
bitcoin-core.cli sendrawtransaction $SIGNED_TR_TX_HEX
=>
16264bd9f959698ca36d4444e23f22d0dea1af79dbf18609d56229a0c1360018
```

## <a id="IMPORT"> </a>descriptor の確認

### ワレットの確認

* ワレットの一覧

現在は eve だけになっているはずです．

そうでないときには，こまでアドレス生成を行ったワレット１つだけになるよう，他のワレットを unload してください．

```bash
bitcoin-core.cli listwallets

# 複数ロードされている場合
[
  "eve"
]
```

### ワレットにインポート済の descriptor の確認

* ワレットに格納されている descriptor 確認

```bash
bitcoin-core.cli listdescriptors

=>
{
  "wallet_name": "eve",
  "descriptors": [
    {
      "desc": "pkh([c4317781/44h/1h/0h]tpubDDMz7udSzrtsvFo3LEnVxz5HEaPyRgajwwU7Fr1F55Xkxmbu9NPAjeLK6vvsDYB6eqU7Phd22kLD8jHnCUhT9YqDpAZ3HTfNLawsMeY6Wwr/0/*)#pqj50jhx",
      "timestamp": 1716908333,
      "active": true,
      "internal": false,
      "range": [
        0,
        1002
      ],
      "next": 3,
      "next_index": 3
    },
    {
      "desc": "pkh([c4317781/44h/1h/0h]tpubDDMz7udSzrtsvFo3LEnVxz5HEaPyRgajwwU7Fr1F55Xkxmbu9NPAjeLK6vvsDYB6eqU7Phd22kLD8jHnCUhT9YqDpAZ3HTfNLawsMeY6Wwr/1/*)#s5h4j887",
      "timestamp": 1716908334,
      "active": true,
      "internal": true,
      "range": [
        0,
        999
      ],
      "next": 0,
      "next_index": 0
    },
    {
      "desc": "sh(wpkh([c4317781/49h/1h/0h]tpubDDVfYvvwZwjhGRjPtev3Gi2Ka6QiEpGrBQJNvU1HgTGRtSyJDh46octbCZAL8octtDqC7d9eTp4QQnANz2eUhKYAb9iGnDsH2xB19e8ajgn/0/*))#dfqz4377",
      "timestamp": 1716908333,
      "active": true,
      "internal": false,
      "range": [
        0,
        999
      ],
      "next": 0,
      "next_index": 0
    },
    {
      "desc": "sh(wpkh([c4317781/49h/1h/0h]tpubDDVfYvvwZwjhGRjPtev3Gi2Ka6QiEpGrBQJNvU1HgTGRtSyJDh46octbCZAL8octtDqC7d9eTp4QQnANz2eUhKYAb9iGnDsH2xB19e8ajgn/1/*))#cgw5dwtp",
      "timestamp": 1716908334,
      "active": true,
      "internal": true,
      "range": [
        0,
        999
      ],
      "next": 0,
      "next_index": 0
    },
    {
      "desc": "tr([c4317781/86h/1h/0h]tpubDD5feT2A4eyTwqutfWYMVVcMdFpu7kLo4bTqBDD9pH2A7reog3sdc1nwNKSxS3qC6jatg6Fq8xZFi9MEEUwWceqXWxoG5V87xtgVf4Mrpac/0/*)#cvtldceg",
      "timestamp": 1716908333,
      "active": true,
      "internal": false,
      "range": [
        0,
        1001
      ],
      "next": 2,
      "next_index": 2
    },
    {
      "desc": "tr([c4317781/86h/1h/0h]tpubDD5feT2A4eyTwqutfWYMVVcMdFpu7kLo4bTqBDD9pH2A7reog3sdc1nwNKSxS3qC6jatg6Fq8xZFi9MEEUwWceqXWxoG5V87xtgVf4Mrpac/1/*)#fcw7sdfs",
      "timestamp": 1716908334,
      "active": true,
      "internal": true,
      "range": [
        0,
        999
      ],
      "next": 0,
      "next_index": 0
    },
    {
      "desc": "wpkh([c4317781/84h/1h/0h]tpubDDThUseTsE7BrL9L7K6cNLBfSjLa8zdMVuqEfsiDjgv8WtkG3VScT9HJ8sKAfcWG8NoXD25bd5h8rNwGSep2frEdVtGfQm4n8mQYPjh2DHh/0/*)#w9yrknfc",
      "timestamp": 1716908333,
      "active": true,
      "internal": false,
      "range": [
        0,
        1031
      ],
      "next": 32,
      "next_index": 32
    },
    {
      "desc": "wpkh([c4317781/84h/1h/0h]tpubDDThUseTsE7BrL9L7K6cNLBfSjLa8zdMVuqEfsiDjgv8WtkG3VScT9HJ8sKAfcWG8NoXD25bd5h8rNwGSep2frEdVtGfQm4n8mQYPjh2DHh/1/*)#l3pztxeq",
      "timestamp": 1716908334,
      "active": true,
      "internal": true,
      "range": [
        0,
        999
      ],
      "next": 0,
      "next_index": 0
    }
  ]
}

```


### importdescriptors コマンド

タイムスタンプにもとづいて過去のブロックチェーン内の descriptor の検索を行います．（あまり古いタイムスタンプを指定すると時間がかかります）

最初に（IBD開始前に）ブロックチェーンの起動パラメータで blockfilterindex=1 を指定しておけば，大幅に高速化されます．

* importdescriptors コマンドの引数

```
Arguments:
1. requests                                 (json array, required) Data to be imported
     [
       {                                    (json object)
         "desc": "str",                     (string, required) Descriptor to import.
         "active": bool,                    (boolean, optional, default=false) Set this descriptor to be the active descriptor for the corresponding output type/externality
         "range": n or [n,n],               (numeric or array, optional) If a ranged descriptor is used, this specifies the end or the range (in the form [begin,end]) to import
         "next_index": n,                   (numeric, optional) If a ranged descriptor is set to active, this specifies the next index to generate addresses from
         "timestamp": timestamp | "now",    (integer / string, required) Time from which to start rescanning the blockchain for this descriptor, in UNIX epoch time
                                            Use the string "now" to substitute the current synced blockchain time.
                                            "now" can be specified to bypass scanning, for outputs which are known to never have been used, and
                                            0 can be specified to scan the entire blockchain. Blocks up to 2 hours before the earliest timestamp
                                            of all descriptors being imported will be scanned as well as the mempool.
         "internal": bool,                  (boolean, optional, default=false) Whether matching outputs should be treated as not incoming payments (e.g. change)
         "label": "str",                    (string, optional, default="") Label to assign to the address, only allowed with internal=false. Disabled for ranged descriptors
       },
       ...
     ]

```

* UNIX時間の例

2024年1月１日0時０分０秒 → 1704034800

### 秘密鍵のインポート


### P2SH の  descriptor をインポート

```bash
echo $P2SH_DESCRIPTOR

=>
sh(multi(2,0222e8217169108c253501bbc0c12b1afdf7d90f7ffcab3c977ccd0720b396bfe6,03db5794dee648c57f6bc4eecac49328c57541737767ad066fd2149aaa5dd50280,02fed05b945310ab915bec26e8a8ef4489ccea88af9cb111a46d2be9aeb027e7da))#qvpxamev
```

現在はこのdescriptor をインポートしようとすると，秘密鍵が無いという理由でエラーになります

```bash
bitcoin-core.cli importdescriptors "[{\"desc\": \"$P2SH_DESCRIPTOR\", \"timestamp\": 1704034800,  \"active\": false,  \"watchonly\": true}]"

=>
[
  {
    "success": false,
    "error": {
      "code": -4,
      "message": "Cannot import descriptor without private keys to a wallet with private keys enabled"
    }
  }
]
```

### P2WSH の descriptor をインポート

```bash
echo $P2WSH_DESCRIPTOR

=>
wsh(multi(2,0222e8217169108c253501bbc0c12b1afdf7d90f7ffcab3c977ccd0720b396bfe6,03db5794dee648c57f6bc4eecac49328c57541737767ad066fd2149aaa5dd50280,02fed05b945310ab915bec26e8a8ef4489ccea88af9cb111a46d2be9aeb027e7da))#lfmqcn4l
```

現在はこのdescriptor をインポートしようとすると，秘密鍵が無いという理由でエラーになります

```bash
bitcoin-core.cli importdescriptors '[{"desc": "wsh(multi(2,0222e8217169108c253501bbc0c12b1afdf7d90f7ffcab3c977ccd0720b396bfe6,03db5794dee648c57f6bc4eecac49328c57541737767ad066fd2149aaa5dd50280,02fed05b945310ab915bec26e8a8ef4489ccea88af9cb111a46d2be9aeb027e7da))#lfmqcn4l",   "timestamp": 1704034800, "watchonly": true}]'

=>
[
  {
    "success": false,
    "error": {
      "code": -4,
      "message": "Cannot import descriptor without private keys to a wallet with private keys enabled"
    }
  }
]
```
