# 3. bitcoin core の詳細-2

2025/05/21
Shigeichiro Yamasaki

## 各種トランザクションの構成を一連の流れで演習します

ubuntu での実施を前提にします．
MacOSX で実施する場合は，bitcoin-qt を実行した状態で，`bitcoin-core.cli` コマンドの代わりに `bitcoin-cli` コマンドを使用してください


1.  3 種類のoutput (P2PKH,  P2WPKH,  P2TR)を持つトランザクション TX1 をブロードキャストされている

P2SH, P2WSH の送金にはプログラミングが必要です

```
(UTXOの資金)--> TX1 -+-->0.0001 BTC VOUT:1 -->TX3(P2PKH) --> 0.00008 BTC
                    +-->0.0001 BTC VOUT:2 
                    +-->0.0001 BTC VOUT:3 -->TX5(P2WPKH)--> 0.00008 BTC
                    +-->0.0001 BTC VOUT:4 
                    +-->0.0001 BTC VOUT:5 -->TX7(P2TR)  --> 0.00008 BTC
                    +-->おつり
```

## 目次

* [シェル変数の復元](#restore)
* [アドレス情報の確認](#address)
* [6種類のUTXOの確認](#6UTXOs)
* [P2PKH](#p2pkh)
* P2WPKH
* P2TR
* [descriptor の確認](#IMPORT)

##  <a id="restore">シェル変数の復元</a>

[前回の演習](./2.bitcoin-core-details-1.md)  の最後で保存していたシェル変数のバックアップファイルをシェルに評価させて復元します．

自分のバックアップファイルからシェル変数を復元してください

## <a id="address">アドレス情報の確認</a>

### P2PKHアドレスの情報

確認例

```bash
bitcoin-core.cli -rpcwallet=bob getaddressinfo $P2PKH_ADDR
=>
{
  "address": "n4cxBqtUBoG8uM9DRGrqsiWFCfzkfjHVfa",
  "scriptPubKey": "76a914fd6d4ca68d15ae65ee7456afcd292f2ceba3787f88ac",
  "ismine": true,
  "solvable": true,
  "desc": "pkh([9278fcb8/44h/1h/0h/0/1]03486cad2186fc0cf8be14fb35e4c95a415d5396baacfb1776e1114791e7f44025)#zyxh7mv0",
  "parent_desc": "pkh([9278fcb8/44h/1h/0h]tpubDDAxk27sMBmnVB3GA8NNSDJVmShUQz1pkDVsBpTPWe8omdwjRodgJaiRhnixnrr1Xpt7w45v1a1r4iomuktKCgJrXHmLq7sQQV9RtCoLYSo/0/*)#cjfc2gzy",
  "iswatchonly": false,
  "isscript": false,
  "iswitness": false,
  "pubkey": "03486cad2186fc0cf8be14fb35e4c95a415d5396baacfb1776e1114791e7f44025",
  "iscompressed": true,
  "ischange": false,
  "timestamp": 1747385736,
  "hdkeypath": "m/44h/1h/0h/0/1",
  "hdseedid": "0000000000000000000000000000000000000000",
  "hdmasterfingerprint": "9278fcb8",
  "labels": [
    "pkh_user"
  ]
}
```

### P2SHアドレスの情報

```bash
bitcoin-core.cli -rpcwallet=bob getaddressinfo $P2SH_ADDR
=>
{
  "address": "2NB2VDzwnCg7MS1D4kqBVUgfkxjKZ5TF16c",
  "scriptPubKey": "a914c309934c0496e88931c2e15b939460d68838a28387",
  "ismine": false,
  "solvable": false,
  "iswatchonly": false,
  "isscript": true,
  "iswitness": false,
  "ischange": false,
  "labels": [
  ]
}

```

### P2WPKHアドレスの情報

```bash
bitcoin-core.cli -rpcwallet=bob getaddressinfo $P2WPKH_ADDR
=>
{
  "address": "tb1q0ccv3vygskxjj69hhktncn8zyhyextvwj87ser",
  "scriptPubKey": "00147e30c8b088858d2968b7bd973c4ce225c9932d8e",
  "ismine": true,
  "solvable": true,
  "desc": "wpkh([9278fcb8/84h/1h/0h/0/13]034c9391c2aa2c8688650c3e38b8e36022d452ebb3e42320be496439a960a55768)#7dkxfg04",
  "parent_desc": "wpkh([9278fcb8/84h/1h/0h]tpubDDhCsJ6XGQpV4ZcobSUHAv88MtVdeYCSW3R4wccKqLHeCTv2y23vzEg948dYybSFfJcsHnXL5D79oXG2Lm3phMG6SGmZXrG4PuNWfYhp8DJ/0/*)#g3xhechk",
  "iswatchonly": false,
  "isscript": false,
  "iswitness": true,
  "witness_version": 0,
  "witness_program": "7e30c8b088858d2968b7bd973c4ce225c9932d8e",
  "pubkey": "034c9391c2aa2c8688650c3e38b8e36022d452ebb3e42320be496439a960a55768",
  "ischange": false,
  "timestamp": 1747385736,
  "hdkeypath": "m/84h/1h/0h/0/13",
  "hdseedid": "0000000000000000000000000000000000000000",
  "hdmasterfingerprint": "9278fcb8",
  "labels": [
    "wpkh_user"
  ]
}
```

### P2WSHアドレスの情報

```bash
bitcoin-core.cli -rpcwallet=bob getaddressinfo $P2WSH_ADDR
=>
{
  "address": "tb1q9h2qm8d66zczmjvwjsngcv6ddnm9l35t6j7tj2punu3ucrgq6uaq2x3clm",
  "scriptPubKey": "00202dd40d9dbad0b02dc98e94268c334d6cf65fc68bd4bcb9283c9f23cc0d00d73a",
  "ismine": false,
  "solvable": false,
  "iswatchonly": false,
  "isscript": true,
  "iswitness": true,
  "witness_version": 0,
  "witness_program": "2dd40d9dbad0b02dc98e94268c334d6cf65fc68bd4bcb9283c9f23cc0d00d73a",
  "ischange": false,
  "labels": [
  ]
}
```

### P2TRアドレスの情報

```bash
bitcoin-core.cli -rpcwallet=bob getaddressinfo $P2TR_ADDR
=>
{
  "address": "tb1phf8j697ct88ry9j2gygpdr7w873y8f69hqpvs6zym2jg3httg20qwl7vgw",
  "scriptPubKey": "5120ba4f2d17d859ce32164a4110168fce3fa243a745b802c86844daa488dd6b429e",
  "ismine": true,
  "solvable": true,
  "desc": "tr([9278fcb8/86h/1h/0h/0/1]efb853fe923733368b9b9dea28459bfce5da1e648a860def38d60dc76f0fcd05)#drj2emgu",
  "parent_desc": "tr([9278fcb8/86h/1h/0h]tpubDDiDqvaLLuAJ4X3az1dEUVif8TCj2wVvTBSJYTQpPV7PZmfmRgcvFHVustsWNbD6anoCyzRn4bVbiABBR3sZ28rE4kNCmdsKsXBwt8osNPA/0/*)#82nu0ehv",
  "iswatchonly": false,
  "isscript": true,
  "iswitness": true,
  "witness_version": 1,
  "witness_program": "ba4f2d17d859ce32164a4110168fce3fa243a745b802c86844daa488dd6b429e",
  "ischange": false,
  "timestamp": 1747385736,
  "hdkeypath": "m/86h/1h/0h/0/1",
  "hdseedid": "0000000000000000000000000000000000000000",
  "hdmasterfingerprint": "9278fcb8",
  "labels": [
    "tr_user"
  ]
}
```

## <a id="6UTXOs">6種類の UTXO の確認</a>


```bash
UTXOS=`bitcoin-core.cli -rpcwallet=bob listunspent`

echo $UTXOS
# 確認例
[ { "txid": "3084d35690cdf25702000b4af622cfba85ac0519095973bcf70d6133bb3d4cab", "vout": 0, "address": "n2yA2WM4UUiYXEZ4TFWi8AXQT12Se7HyUT", "label": "pkh_user", "scriptPubKey": "76a914eb4f3ff2de050b88afbbe74df54187c06bf027b488ac", "amount": 0.00010000, "confirmations": 407, "spendable": true, "solvable": true, "desc": "pkh([9278fcb8/44h/1h/0h/0/0]03cfc732476361e280a4b2e5922e21484117d43e300a276dbf22610f303d8b1e78)#u9kxhv2p", "parent_descs": [ "pkh(tpubD6NzVbkrYhZ4XyV3UcGaHzzXH21ZToEr1Kx55UU3SVR6KTnvjJMP6gDSDo8Q4ZKX2KTkPnipXsEMAz4H5RhyvGbirEFxewpuswV9NAoy226/44h/1h/0h/0/*)#kt0esuzx" ], "safe": true }, { "txid": "3084d35690cdf25702000b4af622cfba85ac0519095973bcf70d6133bb3d4cab", "vout": 2, "address": "tb1q9z6g0m0c9aeq8kxrg469rx95a2m7wyc34u6yqy", "label": "wpkh_user", "scriptPubKey": "001428b487edf82f7203d8c345745198b4eab7e71311", "amount": 0.00010000, "confirmations": 407, "spendable": true, "solvable": true, "desc": "wpkh([9278fcb8/84h/1h/0h/0/8]03a98979a15fe0399983813ceb98538e2c4ddd82de4e50aad099440db79394873b)#qd7g7kr7", "parent_descs": [ "wpkh(tpubD6NzVbkrYhZ4XyV3UcGaHzzXH21ZToEr1Kx55UU3SVR6KTnvjJMP6gDSDo8Q4ZKX2KTkPnipXsEMAz4H5RhyvGbirEFxewpuswV9NAoy226/84h/1h/0h/0/*)#50e604cn" ], "safe": true }, { "txid": "3084d35690cdf25702000b4af622cfba85ac0519095973bcf70d6133bb3d4cab", "vout": 5, "address": "tb1qj8tnqvdj234228y546a54g7ykkeh0akh7y35k0", "label": "", "scriptPubKey": "001491d73031b2546aa51c94aebb4aa3c4b5b377f6d7", "amount": 0.00048000, "confirmations": 407, "spendable": true, "solvable": true, "desc": "wpkh([9278fcb8/84h/1h/0h/0/1]029f40c4fd7601a94f1d2c350fd6d18132f54844086a7e9bf43a5488685de44664)#34993jna", "parent_descs": [ "wpkh(tpubD6NzVbkrYhZ4XyV3UcGaHzzXH21ZToEr1Kx55UU3SVR6KTnvjJMP6gDSDo8Q4ZKX2KTkPnipXsEMAz4H5RhyvGbirEFxewpuswV9NAoy226/84h/1h/0h/0/*)#50e604cn" ], "safe": true }, { "txid": "a038af65a49bfdd738a26069650322a901cef119e049b9347d9109311747ad12", "vout": 0, "address": "tb1qk7l3xmngw3x5sd9w2egdf5yzdm939ezql5jvq2", "label": "BOB1", "scriptPubKey": "0014b7bf136e68744d4834ae5650d4d0826ecb12e440", "amount": 0.00500000, "confirmations": 55, "spendable": true, "solvable": true, "desc": "wpkh([9278fcb8/84h/1h/0h/0/9]02cb7815dcbdc707e71852ac7b5c17648b54fc14d068c9dd3ec67d3c4a47d74068)#m009cy63", "parent_descs": [ "wpkh(tpubD6NzVbkrYhZ4XyV3UcGaHzzXH21ZToEr1Kx55UU3SVR6KTnvjJMP6gDSDo8Q4ZKX2KTkPnipXsEMAz4H5RhyvGbirEFxewpuswV9NAoy226/84h/1h/0h/0/*)#50e604cn" ], "safe": true }, { "txid": "7da8a519a48aa705145c7b6f385cf9acbf3c3e8676c54f6f69fe46198b66c874", "vout": 1, "address": "tb1qezzhzk540k0clr8eelspcmae8w0pll4jft0s8x", "label": "BOB1", "scriptPubKey": "0014c885715a957d9f8f8cf9cfe01c6fb93b9e1ffeb2", "amount": 0.00500000, "confirmations": 409, "spendable": true, "solvable": true, "desc": "wpkh([9278fcb8/84h/1h/0h/0/4]0321711a085a72323f063f3fc9c41cf09da341ae10accacd0cc289c10d443fde63)#yj9fppnn", "parent_descs": [ "wpkh(tpubD6NzVbkrYhZ4XyV3UcGaHzzXH21ZToEr1Kx55UU3SVR6KTnvjJMP6gDSDo8Q4ZKX2KTkPnipXsEMAz4H5RhyvGbirEFxewpuswV9NAoy226/84h/1h/0h/0/*)#50e604cn" ], "safe": true }, { "txid": "3084d35690cdf25702000b4af622cfba85ac0519095973bcf70d6133bb3d4cab", "vout": 4, "address": "tb1pww0jg0400s8a7amgpr000jpfdvnjsvhggnucnxqlp63hurzn2vzq905hh9", "label": "tr_user", "scriptPubKey": "5120739f243eaf7c0fdf776808def7c8296b272832e844f989981f0ea37e0c535304", "amount": 0.00010000, "confirmations": 407, "spendable": true, "solvable": true, "desc": "tr([9278fcb8/86h/1h/0h/0/0]feaa76c55882a824120543aaad3f1ad316bdb599423faf5ed07b4be8cf0ed029)#ulnv0ne5", "parent_descs": [ "tr(tpubD6NzVbkrYhZ4XyV3UcGaHzzXH21ZToEr1Kx55UU3SVR6KTnvjJMP6gDSDo8Q4ZKX2KTkPnipXsEMAz4H5RhyvGbirEFxewpuswV9NAoy226/86h/1h/0h/0/*)#wd3qhccv" ], "safe": true } ]
```

### UTXOを一つずつ確認

* 各UTXOの "desc" の値を確認
* descriptor 関数が pkh(), wpkh(), tr() のUTXOを見つける
* 見つかったらそのUTXOをシェル変数に代入する

発見の例

```bash
echo $UTXOS|jq '.[0].desc'
=>
"pkh([9278fcb8/44h/1h/0h/0/0]03cfc732476361e280a4b2e5922e21484117d43e300a276dbf22610f303d8b1e78)#u9kxhv2p"

# pkh() 発見！ 
# アドレスを確認
echo $UTXOS|jq '.[0].address'
=>
"n2yA2WM4UUiYXEZ4TFWi8AXQT12Se7HyUT"

# P2PKHアドレスを確認
echo $P2PKH_ADDR
=>
n4cxBqtUBoG8uM9DRGrqsiWFCfzkfjHVfa
# 一致しているので インデックス0 がP2PKHのUTXO
```

* （この例では）インデックス 0 のUTXOをシェル変数 UTXO_P2PKH に代入
  
```bash
UTXO_PKH=`echo $UTXOS|jq '.[0]'`
```

```bash
echo $UTXOS|jq '.[1].desc'
=>
"wpkh([9278fcb8/84h/1h/0h/0/8]03a98979a15fe0399983813ceb98538e2c4ddd82de4e50aad099440db79394873b)#qd7g7kr7"

# wpkh 発見！

# アドレスを確認
echo $UTXOS|jq '.[1].address'
=>
"tb1q9z6g0m0c9aeq8kxrg469rx95a2m7wyc34u6yqy"
# P2WPKHアドレスを確認
echo $P2WPKH_ADDR
=>
tb1q0ccv3vygskxjj69hhktncn8zyhyextvwj87ser
# 一致しているので，インデックス1 がP2WPKHのUTXO
```

* （この例では）インデックス 1 のUTXOをシェル変数 UTXO_P2WPKH に代入

```bash
UTXO_WPKH=`echo $UTXOS|jq '.[1]'`
```

...


```bash
echo $UTXOS|jq '.[5].desc'
=>
"tr([9278fcb8/86h/1h/0h/0/0]feaa76c55882a824120543aaad3f1ad316bdb599423faf5ed07b4be8cf0ed029)#ulnv0ne5"
# tr()発見！

# アドレスを確認
echo $UTXOS|jq '.[5].address'
=>
"tb1pww0jg0400s8a7amgpr000jpfdvnjsvhggnucnxqlp63hurzn2vzq905hh9"

echo $P2TR_ADDR
=>
tb1phf8j697ct88ry9j2gygpdr7w873y8f69hqpvs6zym2jg3httg20qwl7vgw

# 一致しているので，インデックス5 がP2TRのUTXO
```

* （この例では）インデックス 5 のUTXOをシェル変数 UTXO_P2TR に代入

```bash
UTXO_TR=`echo $UTXOS|jq '.[5]'`
```

## <a id="p2pkh">P2PKH </a>

### P2PKH タイプのUTXOの確認

トランザクションIDとVOUT と金額の確認

```bash
TXID_PKH=`echo $UTXO_PKH|jq -r .txid`

echo $TXID_PKH
=>
3084d35690cdf25702000b4af622cfba85ac0519095973bcf70d6133bb3d4cab

VOUT_PKH=`echo $UTXO_PKH|jq -r .vout`

echo $VOUT_PKH
=>
0

AMOUNT_PKH=`echo $UTXO_PKH|jq -r .amount`

echo $AMOUNT_PKH
=>
0.00010000
```

* 送金先はTAROとします

```bash
TARO=`bitcoin-core.cli -rpcwallet=bob getnewaddress`
echo $TARO
=>
tb1qjahhv4vruk2jfxl2urhrwkkmeypr94fd75lxa0
```

* 送金金額

FEE 0.00002
AMOUNTは 0.0001-0.00002 = 0.00008

### P2PKH トランザクションの作成

```bash
INPUT_PKH="[{\"txid\":\"$TXID_PKH\",\"vout\": $VOUT_PKH}]"
OUTPUT_PKH="[{\"$TARO\": 0.00008}]"
```

```bash
echo $INPUT_PKH
echo $OUTPUT_PKH
```

未署名のトランザクション

```bash
UNSIGNED_PKH_TX=`bitcoin-core.cli createrawtransaction "$INPUT_PKH" "$OUTPUT_PKH"`

echo $UNSIGNED_PKH_TX
=>
0200000001ab4c3dbb33610df7bc7359091905ac85bacf22f64a0b000257f2cd9056d384300000000000fdffffff01401f000000000000160014976f765583e595249beae0ee375adbc90232d52d00000000
```

### P2PKH トランザクションへの署名


```bash
SIGNED_PKH_TX=`bitcoin-core.cli -rpcwallet=bob signrawtransactionwithwallet $UNSIGNED_PKH_TX`

echo $SIGNED_PKH_TX
{ "hex": "0200000001ab4c3dbb33610df7bc7359091905ac85bacf22f64a0b000257f2cd9056d38430000000006a473044022077f97982068603daec009a1659d73d3f73d698aa310298eb293180575c5bf54d022036722072a8cd7dda1d2096ee9c98118fbb9f86140487335d061486e8ddf4fd4f012103cfc732476361e280a4b2e5922e21484117d43e300a276dbf22610f303d8b1e78fdffffff01401f000000000000160014976f765583e595249beae0ee375adbc90232d52d00000000", "complete": true }
```

```bash
SIGNED_PKH_TX_HEX=`echo $SIGNED_PKH_TX| jq -r .hex`

echo $SIGNED_PKH_TX_HEX
=>
0200000001ab4c3dbb33610df7bc7359091905ac85bacf22f64a0b000257f2cd9056d38430000000006a473044022077f97982068603daec009a1659d73d3f73d698aa310298eb293180575c5bf54d022036722072a8cd7dda1d2096ee9c98118fbb9f86140487335d061486e8ddf4fd4f012103cfc732476361e280a4b2e5922e21484117d43e300a276dbf22610f303d8b1e78fdffffff01401f000000000000160014976f765583e595249beae0ee375adbc90232d52d00000000
```

### 作成したPKH トランザクションの構造

```bash
bitcoin-core.cli decoderawtransaction $SIGNED_PKH_TX_HEX

=>
{
  "txid": "8abbd47acc5155e34fd016b45dc266e6e8d33d18c7cd46e877ecec4864fe34be",
  "hash": "8abbd47acc5155e34fd016b45dc266e6e8d33d18c7cd46e877ecec4864fe34be",
  "version": 2,
  "size": 188,
  "vsize": 188,
  "weight": 752,
  "locktime": 0,
  "vin": [
    {
      "txid": "3084d35690cdf25702000b4af622cfba85ac0519095973bcf70d6133bb3d4cab",
      "vout": 0,
      "scriptSig": {
        "asm": "3044022077f97982068603daec009a1659d73d3f73d698aa310298eb293180575c5bf54d022036722072a8cd7dda1d2096ee9c98118fbb9f86140487335d061486e8ddf4fd4f[ALL] 03cfc732476361e280a4b2e5922e21484117d43e300a276dbf22610f303d8b1e78",
        "hex": "473044022077f97982068603daec009a1659d73d3f73d698aa310298eb293180575c5bf54d022036722072a8cd7dda1d2096ee9c98118fbb9f86140487335d061486e8ddf4fd4f012103cfc732476361e280a4b2e5922e21484117d43e300a276dbf22610f303d8b1e78"
      },
      "sequence": 4294967293
    }
  ],
  "vout": [
    {
      "value": 0.00008000,
      "n": 0,
      "scriptPubKey": {
        "asm": "0 976f765583e595249beae0ee375adbc90232d52d",
        "desc": "addr(tb1qjahhv4vruk2jfxl2urhrwkkmeypr94fd75lxa0)#mwrkuu8w",
        "hex": "0014976f765583e595249beae0ee375adbc90232d52d",
        "address": "tb1qjahhv4vruk2jfxl2urhrwkkmeypr94fd75lxa0",
        "type": "witness_v0_keyhash"
      }
    }
  ]
}
```

### 署名済のPKHトランザクションのブロードキャスト

```bash
bitcoin-core.cli -rpcwallet=bob sendrawtransaction $SIGNED_PKH_TX_HEX
=>
8abbd47acc5155e34fd016b45dc266e6e8d33d18c7cd46e877ecec4864fe34be
```

## <a id="p2wpkh">P2WPKH </a>

### P2WPKH タイプのUTXOの確認


トランザクションIDとVOUT と金額の確認

```bash
TXID_WPKH=`echo $UTXO_WPKH|jq .txid`

echo $TXID_WPKH
=>
"3084d35690cdf25702000b4af622cfba85ac0519095973bcf70d6133bb3d4cab"

VOUT_WPKH=`echo $UTXO_WPKH|jq -r .vout`

echo $VOUT_WPKH
=>
2

AMOUNT_WPKH=`echo $UTXO_WPKH|jq -r .amount`

echo $AMOUNT_WPKH
=>
0.00010000
```

* 送金先はTAROとします

```bash
echo $TARO
=>
tb1qjahhv4vruk2jfxl2urhrwkkmeypr94fd75lxa0
```

* 送金金額

FEE 0.00002
AMOUNTは 0.0001-0.00002 = 0.00008

### P2WPKH トランザクションの作成

```bash
INPUT_WPKH="[{\"txid\":$TXID_WPKH,\"vout\": $VOUT_WPKH}]"
OUTPUT_WPKH="[{\"$TARO\": 0.00008}]"
```

未署名のトランザクション

```bash
UNSIGNED_WPKH_TX=`bitcoin-core.cli createrawtransaction "$INPUT_WPKH" "$OUTPUT_WPKH"`

echo $UNSIGNED_WPKH_TX
=>
0200000001ab4c3dbb33610df7bc7359091905ac85bacf22f64a0b000257f2cd9056d384300200000000fdffffff01401f000000000000160014976f765583e595249beae0ee375adbc90232d52d00000000
```

### P2WPKH トランザクションへの署名


```bash
SIGNED_WPKH_TX=`bitcoin-core.cli -rpcwallet=bob signrawtransactionwithwallet $UNSIGNED_WPKH_TX`

echo $SIGNED_WPKH_TX
=>
{ "hex": "02000000000101f69ebf429cd6a28a19e6991749dbbb667c777bebb49786d2d46a5c4e21e47d090500000000fdffffff0150460000000000001600146c7fd78355ed00ba7ebdb75ef902a5a0c9e6f90e0247304402201fdc8f42855872782b6054d5c2eded11337170e6ee0b6511d55f8277111556b602200d4c749718fd18b07ab8b1ec8221cdebe3c212327bb179dac23c5cfa982bfa9c0121030c6ab4fbdd20cd51e14923c55e047911fdea3a709200cf915eff29491b5be2d300000000", "complete": true }
```

```bash
SIGNED_WPKH_TX_HEX=`echo $SIGNED_WPKH_TX| jq -r .hex`

echo $SIGNED_WPKH_TX_HEX
=>
02000000000101f69ebf429cd6a28a19e6991749dbbb667c777bebb49786d2d46a5c4e21e47d090500000000fdffffff0150460000000000001600146c7fd78355ed00ba7ebdb75ef902a5a0c9e6f90e0247304402201fdc8f42855872782b6054d5c2eded11337170e6ee0b6511d55f8277111556b602200d4c749718fd18b07ab8b1ec8221cdebe3c212327bb179dac23c5cfa982bfa9c0121030c6ab4fbdd20cd51e14923c55e047911fdea3a709200cf915eff29491b5be2d300000000
```

### 作成したPKH トランザクションの構造

```bash
bitcoin-core.cli decoderawtransaction $SIGNED_WPKH_TX_HEX

=>
{
  "txid": "3daadfb4f1470e2c8347262aacccffd93c02c43a4f3081c909f7040d08f6e837",
  "hash": "840a0873a0a534fdba3ee258f623d0dced0bdcadbcfeed390bc07f8b3f009b4f",
  "version": 2,
  "size": 191,
  "vsize": 110,
  "weight": 437,
  "locktime": 0,
  "vin": [
    {
      "txid": "097de4214e5c6ad4d28697b4eb7b777c66bbdb491799e6198aa2d69c42bf9ef6",
      "vout": 5,
      "scriptSig": {
        "asm": "",
        "hex": ""
      },
      "txinwitness": [
        "304402201fdc8f42855872782b6054d5c2eded11337170e6ee0b6511d55f8277111556b602200d4c749718fd18b07ab8b1ec8221cdebe3c212327bb179dac23c5cfa982bfa9c01",
        "030c6ab4fbdd20cd51e14923c55e047911fdea3a709200cf915eff29491b5be2d3"
      ],
      "sequence": 4294967293
    }
  ],
  "vout": [
    {
      "value": 0.00018000,
      "n": 0,
      "scriptPubKey": {
        "asm": "0 6c7fd78355ed00ba7ebdb75ef902a5a0c9e6f90e",
        "desc": "addr(tb1qd3la0q64a5qt5l4aka00jq495ry7d7gws84kf8)#nshaknc2",
        "hex": "00146c7fd78355ed00ba7ebdb75ef902a5a0c9e6f90e",
        "address": "tb1qd3la0q64a5qt5l4aka00jq495ry7d7gws84kf8",
        "type": "witness_v0_keyhash"
      }
    }
  ]
}
```

### 署名済のPKHトランザクションのブロードキャスト

```bash
bitcoin-core.cli -rpcwallet=bob sendrawtransaction $SIGNED_WPKH_TX_HEX
=>
3daadfb4f1470e2c8347262aacccffd93c02c43a4f3081c909f7040d08f6e837
```

## <a id="p2tr">P2TR</a>

### P2WPKH タイプのUTXOの確認


トランザクションIDとVOUT と金額の確認

```bash
TXID_TR=`echo $UTXO_TR|jq .txid`

echo $TXID_TR
=>
"0903ffacbb7f212d81902d54979409610dc4b2c594a66789f35866d14f4e3dc1"

VOUT_TR=`echo $UTXO_TR|jq -r .vout`

echo $VOUT_TR
=>
0

AMOUNT_TR=`echo $UTXO_TR|jq -r .amount`

echo $AMOUNT_TR
=>
0.00010000
```

* 送金先はTAROとします

```bash
echo $TARO
=>
tb1qd3la0q64a5qt5l4aka00jq495ry7d7gws84kf8
```

* 送金金額

FEE 0.00002
AMOUNTは 0.0001-0.00002 = 0.00008

### P2WPKH トランザクションの作成

```bash
INPUT_TR="[{\"txid\":$TXID_TR,\"vout\": $VOUT_TR}]"
OUTPUT_TR="[{\"$TARO\": 0.00008}]"
```

未署名のトランザクション

```bash
UNSIGNED_TR_TX=`bitcoin-core.cli -rpcwallet=bob createrawtransaction "$INPUT_TR" "$OUTPUT_TR"`

echo $UNSIGNED_TR_TX
=>
0200000001c13d4e4fd16658f38967a694c5b2c40d61099497542d90812d217fbbacff03090000000000fdffffff01803e0000000000001600146c7fd78355ed00ba7ebdb75ef902a5a0c9e6f90e00000000
```

### P2WPKH トランザクションへの署名


```bash
SIGNED_TR_TX=`bitcoin-core.cli -rpcwallet=bob signrawtransactionwithwallet $UNSIGNED_TR_TX`

echo $SIGNED_TR_TX
=>
{ "hex": "02000000000101c13d4e4fd16658f38967a694c5b2c40d61099497542d90812d217fbbacff03090000000000fdffffff01803e0000000000001600146c7fd78355ed00ba7ebdb75ef902a5a0c9e6f90e01401c35900ae2ac1999871d3635841a541e16191976671fc6c1e956b3f4f228680098df8e8a4ab2162204ffa04f13df3b679752403f688c62d69fc9f98353db678f00000000", "complete": true }
```

```bash
SIGNED_TR_TX_HEX=`echo $SIGNED_TR_TX| jq -r .hex`

echo $SIGNED_TR_TX_HEX
=>
0200000001c13d4e4fd16658f38967a694c5b2c40d61099497542d90812d217fbbacff03090000000000fdffffff01803e0000000000001600146c7fd78355ed00ba7ebdb75ef902a5a0c9e6f90e00000000
```

### 作成した P2TR トランザクションの構造

```bash
bitcoin-core.cli decoderawtransaction $SIGNED_TR_TX_HEX

=>
{
  "txid": "16264bd9f959698ca36d4444e23f22d0dea1af79dbf18609d56229a0c1360018",
  "hash": "8d896f3e30ae9603aa0c963bae69f2a10a0e252911e9da5c61f34102a2831c17",
  "version": 2,
  "size": 150,
  "vsize": 99,
  "weight": 396,
  "locktime": 0,
  "vin": [
    {
      "txid": "0903ffacbb7f212d81902d54979409610dc4b2c594a66789f35866d14f4e3dc1",
      "vout": 0,
      "scriptSig": {
        "asm": "",
        "hex": ""
      },
      "txinwitness": [
        "1c35900ae2ac1999871d3635841a541e16191976671fc6c1e956b3f4f228680098df8e8a4ab2162204ffa04f13df3b679752403f688c62d69fc9f98353db678f"
      ],
      "sequence": 4294967293
    }
  ],
  "vout": [
    {
      "value": 0.00018000,
      "n": 0,
      "scriptPubKey": {
        "asm": "0 6c7fd78355ed00ba7ebdb75ef902a5a0c9e6f90e",
        "desc": "addr(tb1qd3la0q64a5qt5l4aka00jq495ry7d7gws84kf8)#nshaknc2",
        "hex": "00146c7fd78355ed00ba7ebdb75ef902a5a0c9e6f90e",
        "address": "tb1qd3la0q64a5qt5l4aka00jq495ry7d7gws84kf8",
        "type": "witness_v0_keyhash"
      }
    }
  ]
}
```

### 署名済のPKHトランザクションのブロードキャスト

```bash
bitcoin-core.cli -rpcwallet=bob sendrawtransaction $SIGNED_TR_TX_HEX
=>
16264bd9f959698ca36d4444e23f22d0dea1af79dbf18609d56229a0c1360018
```

## <a id="IMPORT"> </a>descriptor の確認

### ワレットの確認

* ワレットの一覧


```bash
bitcoin-core.cli listwallets

```

### ワレットにインポート済の descriptor の確認

* ワレットに格納されている descriptor 確認

```bash
bitcoin-core.cli -rpcwallet=bob listdescriptors

=>
{
  "wallet_name": "bob",
  "descriptors": [
    {
      "desc": "pkh([9278fcb8/44h/1h/0h]tpubDDAxk27sMBmnVB3GA8NNSDJVmShUQz1pkDVsBpTPWe8omdwjRodgJaiRhnixnrr1Xpt7w45v1a1r4iomuktKCgJrXHmLq7sQQV9RtCoLYSo/0/*)#cjfc2gzy",
      "timestamp": 1747385736,
      "active": true,
      "internal": false,
      "range": [
        0,
        1001
      ],
      "next": 2,
      "next_index": 2
    },
    {
      "desc": "pkh([9278fcb8/44h/1h/0h]tpubDDAxk27sMBmnVB3GA8NNSDJVmShUQz1pkDVsBpTPWe8omdwjRodgJaiRhnixnrr1Xpt7w45v1a1r4iomuktKCgJrXHmLq7sQQV9RtCoLYSo/1/*)#fxvehaju",
      "timestamp": 1747385736,
      "active": true,
      "internal": true,
      "range": [
        0,
        999
      ],
      "next": 0,
      "next_index": 0
    },
    {
      "desc": "sh(wpkh([9278fcb8/49h/1h/0h]tpubDDMVifV3YMU49nvfs8uLv7MySw8JP1rAmwU5Ue6LbzLqZhSxsi5BwVB35Q3hxoB4mkAJHF5NBMtFqVdiyuh9dJLmTKwoUGcoCUFMZsKNCP3/0/*))#hs3a5t5p",
      "timestamp": 1747385736,
      "active": true,
      "internal": false,
      "range": [
        0,
        999
      ],
      "next": 0,
      "next_index": 0
    },
    {
      "desc": "sh(wpkh([9278fcb8/49h/1h/0h]tpubDDMVifV3YMU49nvfs8uLv7MySw8JP1rAmwU5Ue6LbzLqZhSxsi5BwVB35Q3hxoB4mkAJHF5NBMtFqVdiyuh9dJLmTKwoUGcoCUFMZsKNCP3/1/*))#z3ltv5p7",
      "timestamp": 1747385736,
      "active": true,
      "internal": true,
      "range": [
        0,
        999
      ],
      "next": 0,
      "next_index": 0
    },
    {
      "desc": "tr([9278fcb8/86h/1h/0h]tpubDDiDqvaLLuAJ4X3az1dEUVif8TCj2wVvTBSJYTQpPV7PZmfmRgcvFHVustsWNbD6anoCyzRn4bVbiABBR3sZ28rE4kNCmdsKsXBwt8osNPA/0/*)#82nu0ehv",
      "timestamp": 1747385736,
      "active": true,
      "internal": false,
      "range": [
        0,
        1001
      ],
      "next": 2,
      "next_index": 2
    },
    {
      "desc": "tr([9278fcb8/86h/1h/0h]tpubDDiDqvaLLuAJ4X3az1dEUVif8TCj2wVvTBSJYTQpPV7PZmfmRgcvFHVustsWNbD6anoCyzRn4bVbiABBR3sZ28rE4kNCmdsKsXBwt8osNPA/1/*)#k7kajv85",
      "timestamp": 1747385736,
      "active": true,
      "internal": true,
      "range": [
        0,
        999
      ],
      "next": 0,
      "next_index": 0
    },
    {
      "desc": "wpkh([9278fcb8/84h/1h/0h]tpubDDhCsJ6XGQpV4ZcobSUHAv88MtVdeYCSW3R4wccKqLHeCTv2y23vzEg948dYybSFfJcsHnXL5D79oXG2Lm3phMG6SGmZXrG4PuNWfYhp8DJ/0/*)#g3xhechk",
      "timestamp": 1747385736,
      "active": true,
      "internal": false,
      "range": [
        0,
        1014
      ],
      "next": 15,
      "next_index": 15
    },
    {
      "desc": "wpkh([9278fcb8/84h/1h/0h]tpubDDhCsJ6XGQpV4ZcobSUHAv88MtVdeYCSW3R4wccKqLHeCTv2y23vzEg948dYybSFfJcsHnXL5D79oXG2Lm3phMG6SGmZXrG4PuNWfYhp8DJ/1/*)#e9rkyd8w",
      "timestamp": 1747385736,
      "active": true,
      "internal": true,
      "range": [
        0,
        999
      ],
      "next": 0,
      "next_index": 0
    }
  ]
}

```

