# 3. bitcoin core の詳細-2

2024/06/09  更新 Shigeichiro Yamasaki

## 各種トランザクションの構成を一連の流れで演習します

以下のように，合計で7個のトランザクションを作成します．

ubuntu での実施を前提にします．


1.  5種類のoutput (P2PKH, P2SH, P2WPKH, P2WSH, P2TR)を持つトランザクション TX1 をブロードキャストする

```
(UTXOの資金)--> TX1 -+-->0.0002BTC VOUT:1 -->TX3(P2PKH) --> 0.00018BTC
                    +-->0.0002BTC VOUT:2 -->TX4(P2SH)  --> 0.00018BTC
                    +-->0.0002BTC VOUT:3 -->TX5(P2WPKH)--> 0.00018BTC
                    +-->0.0002BTC VOUT:4 -->TX6(P2WSH) --> 0.00018BTC
                    +-->0.0002BTC VOUT:5 -->TX7(P2TR)  --> 0.00018BTC
                    +-->おつり
```
2. 5種類タイプの異なるUTXOをinputとするトランザクション (TX3 ~ TX7) を作成するしてブロードキャストする



## 目次

* 6種類のUTXOの確認
* [descriptor をワレットにインポート](#IMPORT)
* P2PKH
* P2SH
* P2WPKH
* P2WSH
* P2TR



## <a id="TX8">TX8: 6種類の UTXO の確認</a>


```bash
UTXOS=`bitcoin-core.cli listunspent`

echo $UTXOS
=>
[ { "txid": "557adafc853f70a405a9e271ab4b5e8b308049ba18792361d2d82c0317271c33", "vout": 0, "address": "n3ExacD1dFiMLL37u4j5YsR1SBcqi7qCFA", "label": "pkh_user", "scriptPubKey": "76a914ee4c59a05db9e4f2449346061a064f90dd59239688ac", "amount": 0.00020000, "confirmations": 2, "spendable": true, "solvable": true, "desc": "pkh([c4317781/44h/1h/0h/0/2]02f892126df2459ca403ee963b92e3fe25355780d4192be8569e1a544553068fcf)#7udsu0qd", "parent_descs": [ "pkh(tpubD6NzVbkrYhZ4WMdAbdLz46exTnUp5Q3K7voVX1AZ26FqvuHfGfKZ6XdreuQzvhzoCCX4ayjsSx7xSXVaxn1pxr1qbix2SYYMLNxbgtifkMT/44h/1h/0h/0/*)#75tfa5h9" ], "safe": true }, { "txid": "557adafc853f70a405a9e271ab4b5e8b308049ba18792361d2d82c0317271c33", "vout": 2, "address": "tb1q6zy2jxjry280wq64m2gvl9sfnvhvy4t3w05ljv", "label": "wpkh_user", "scriptPubKey": "0014d088a91a43228ef70355da90cf96099b2ec25571", "amount": 0.00020000, "confirmations": 2, "spendable": true, "solvable": true, "desc": "wpkh([c4317781/84h/1h/0h/0/24]032bd958132aaed2ea27cd8b1d3e31f4dba13543d3ef1bc9c55b6491934a4fd550)#d93g0dad", "parent_descs": [ "wpkh(tpubD6NzVbkrYhZ4WMdAbdLz46exTnUp5Q3K7voVX1AZ26FqvuHfGfKZ6XdreuQzvhzoCCX4ayjsSx7xSXVaxn1pxr1qbix2SYYMLNxbgtifkMT/84h/1h/0h/0/*)#w3yerj76" ], "safe": true }, { "txid": "557adafc853f70a405a9e271ab4b5e8b308049ba18792361d2d82c0317271c33", "vout": 5, "address": "tb1qd3la0q64a5qt5l4aka00jq495ry7d7gws84kf8", "label": "taro", "scriptPubKey": "00146c7fd78355ed00ba7ebdb75ef902a5a0c9e6f90e", "amount": 0.00878000, "confirmations": 2, "spendable": true, "solvable": true, "desc": "wpkh([c4317781/84h/1h/0h/0/31]035701c8785279c4ca4eb9e792428404e609b2f6a07f2b7e13b781c2d02c752def)#glp2qarz", "parent_descs": [ "wpkh(tpubD6NzVbkrYhZ4WMdAbdLz46exTnUp5Q3K7voVX1AZ26FqvuHfGfKZ6XdreuQzvhzoCCX4ayjsSx7xSXVaxn1pxr1qbix2SYYMLNxbgtifkMT/84h/1h/0h/0/*)#w3yerj76" ], "safe": true }, { "txid": "d7db641d8b53ae7f47992899e1519a14ff293d21c4ce4331ab2380f7256e8e45", "vout": 0, "address": "tb1q7sv6h58yk7e5age324p5g4f8zarh0cump5am9g", "label": "user1", "scriptPubKey": "0014f419abd0e4b7b34ea3315543445527174777e39b", "amount": 0.00020000, "confirmations": 308, "spendable": true, "solvable": true, "desc": "wpkh([c4317781/84h/1h/0h/0/25]03ac4a4466a64abdf8c779df64251df2bb930c3d25f5f2fc3eb7db8308783cca16)#cql9l69h", "parent_descs": [ "wpkh(tpubD6NzVbkrYhZ4WMdAbdLz46exTnUp5Q3K7voVX1AZ26FqvuHfGfKZ6XdreuQzvhzoCCX4ayjsSx7xSXVaxn1pxr1qbix2SYYMLNxbgtifkMT/84h/1h/0h/0/*)#w3yerj76" ], "safe": true }, { "txid": "d7db641d8b53ae7f47992899e1519a14ff293d21c4ce4331ab2380f7256e8e45", "vout": 1, "address": "tb1qfc87s4twka48md0ml3axqr8kmrpuz4metamqqz", "label": "user2", "scriptPubKey": "00144e0fe8556eb76a7db5fbfc7a600cf6d8c3c15779", "amount": 0.00020000, "confirmations": 308, "spendable": true, "solvable": true, "desc": "wpkh([c4317781/84h/1h/0h/0/26]034624fc7b5210ece21321669c2574a3186e8ed66fc81783a2126f15ae6b4e042c)#e5tcfsm9", "parent_descs": [ "wpkh(tpubD6NzVbkrYhZ4WMdAbdLz46exTnUp5Q3K7voVX1AZ26FqvuHfGfKZ6XdreuQzvhzoCCX4ayjsSx7xSXVaxn1pxr1qbix2SYYMLNxbgtifkMT/84h/1h/0h/0/*)#w3yerj76" ], "safe": true }, { "txid": "d7db641d8b53ae7f47992899e1519a14ff293d21c4ce4331ab2380f7256e8e45", "vout": 2, "address": "tb1q4c96g8mhq2s7s8qumdht63smsfkmjnlm9edn76", "label": "user3", "scriptPubKey": "0014ae0ba41f7702a1e81c1cdb6ebd461b826db94ffb", "amount": 0.00020000, "confirmations": 308, "spendable": true, "solvable": true, "desc": "wpkh([c4317781/84h/1h/0h/0/27]03e71a9aa9c5752e23dd9d47a4bb56f0e28e34739a7778c2543ba195fce4cc8764)#vpm2k6kh", "parent_descs": [ "wpkh(tpubD6NzVbkrYhZ4WMdAbdLz46exTnUp5Q3K7voVX1AZ26FqvuHfGfKZ6XdreuQzvhzoCCX4ayjsSx7xSXVaxn1pxr1qbix2SYYMLNxbgtifkMT/84h/1h/0h/0/*)#w3yerj76" ], "safe": true }, { "txid": "d7db641d8b53ae7f47992899e1519a14ff293d21c4ce4331ab2380f7256e8e45", "vout": 3, "address": "tb1qv53jfjqwnz5s5aq6275xtvlqmcjudhha8h2g4k", "label": "user4", "scriptPubKey": "0014652324c80e98a90a741a57a865b3e0de25c6defd", "amount": 0.00020000, "confirmations": 308, "spendable": true, "solvable": true, "desc": "wpkh([c4317781/84h/1h/0h/0/28]02c66811bb09530909c1d1644e62c77e431f6fb4b3dab4e708eb7047dccb64443f)#mlypppeu", "parent_descs": [ "wpkh(tpubD6NzVbkrYhZ4WMdAbdLz46exTnUp5Q3K7voVX1AZ26FqvuHfGfKZ6XdreuQzvhzoCCX4ayjsSx7xSXVaxn1pxr1qbix2SYYMLNxbgtifkMT/84h/1h/0h/0/*)#w3yerj76" ], "safe": true }, { "txid": "d7db641d8b53ae7f47992899e1519a14ff293d21c4ce4331ab2380f7256e8e45", "vout": 4, "address": "tb1qkxlw6vj04jh8j5vwktpm83yrqsh6fpz3a9jah2", "label": "user5", "scriptPubKey": "0014b1beed324facae79518eb2c3b3c483042fa48451", "amount": 0.00020000, "confirmations": 308, "spendable": true, "solvable": true, "desc": "wpkh([c4317781/84h/1h/0h/0/29]0261d12a4663488aedff350d4f5dda9bbbae127aa193a86119316361f1e02185a0)#3xx2fqnp", "parent_descs": [ "wpkh(tpubD6NzVbkrYhZ4WMdAbdLz46exTnUp5Q3K7voVX1AZ26FqvuHfGfKZ6XdreuQzvhzoCCX4ayjsSx7xSXVaxn1pxr1qbix2SYYMLNxbgtifkMT/84h/1h/0h/0/*)#w3yerj76" ], "safe": true }, { "txid": "d7db641d8b53ae7f47992899e1519a14ff293d21c4ce4331ab2380f7256e8e45", "vout": 5, "address": "tb1qsyccczp3y9s23y0c04wnvmmzz6uq8m5vuhsnhj", "label": "user6", "scriptPubKey": "001481318c08312160a891f87d5d366f6216b803ee8c", "amount": 0.00020000, "confirmations": 308, "spendable": true, "solvable": true, "desc": "wpkh([c4317781/84h/1h/0h/0/30]02820d688d66ecd956be9b3ffa9896819d18849c4eab192c224cc6e6db9e202cd7)#3r9qkdgw", "parent_descs": [ "wpkh(tpubD6NzVbkrYhZ4WMdAbdLz46exTnUp5Q3K7voVX1AZ26FqvuHfGfKZ6XdreuQzvhzoCCX4ayjsSx7xSXVaxn1pxr1qbix2SYYMLNxbgtifkMT/84h/1h/0h/0/*)#w3yerj76" ], "safe": true }, { "txid": "d7db641d8b53ae7f47992899e1519a14ff293d21c4ce4331ab2380f7256e8e45", "vout": 6, "address": "tb1qv99t3v4pck374la9k24namcetmk626sj4rmrsd", "label": "alice", "scriptPubKey": "0014614ab8b2a1c5a3eaffa5b2ab3eef195eeda56a12", "amount": 0.00878000, "confirmations": 308, "spendable": true, "solvable": true, "desc": "wpkh([c4317781/84h/1h/0h/0/6]026ca4a074137cdfd97f347292fd18bd66116909c9dd551a9462a3acefad29bf77)#ue6tpplf", "parent_descs": [ "wpkh(tpubD6NzVbkrYhZ4WMdAbdLz46exTnUp5Q3K7voVX1AZ26FqvuHfGfKZ6XdreuQzvhzoCCX4ayjsSx7xSXVaxn1pxr1qbix2SYYMLNxbgtifkMT/84h/1h/0h/0/*)#w3yerj76" ], "safe": true }, { "txid": "557adafc853f70a405a9e271ab4b5e8b308049ba18792361d2d82c0317271c33", "vout": 4, "address": "tb1prg0ygugk6wmqlmd5hvl46nywmmckqhu6eqdymttxt2tt8s238sqssm7krw", "label": "tr_user", "scriptPubKey": "51201a1e447116d3b60fedb4bb3f5d4c8edef1605f9ac81a4dad665a96b3c1513c01", "amount": 0.00020000, "confirmations": 2, "spendable": true, "solvable": true, "desc": "tr([c4317781/86h/1h/0h/0/1]10b5af06b4098b86c401aef6794e481e77477da30dabd11b20526a16475d6916)#vna06urd", "parent_descs": [ "tr(tpubD6NzVbkrYhZ4WMdAbdLz46exTnUp5Q3K7voVX1AZ26FqvuHfGfKZ6XdreuQzvhzoCCX4ayjsSx7xSXVaxn1pxr1qbix2SYYMLNxbgtifkMT/86h/1h/0h/0/*)#7t2pnzgy" ], "safe": true } ]

```


## <a id="IMPORT"> </a>descriptor をワレットにインポート

### ワレットの確認

* ワレットの一覧

現在は eve だけになっているはずです．

そうでないときには，こまでアドレス生成を行ったワレット１つだけになるよう，他のワレットを unload してください．

```bash
bitcoin-core.cli listwallets

# 複数ロードされている場合
[
  "eve"
]
```

### ワレットにインポート済の descriptor の確認

* ワレットに格納されている descriptor 確認

```bash
bitcoin-core.cli listdescriptors

=>
{
  "wallet_name": "eve",
  "descriptors": [
    {
      "desc": "pkh([c4317781/44h/1h/0h]tpubDDMz7udSzrtsvFo3LEnVxz5HEaPyRgajwwU7Fr1F55Xkxmbu9NPAjeLK6vvsDYB6eqU7Phd22kLD8jHnCUhT9YqDpAZ3HTfNLawsMeY6Wwr/0/*)#pqj50jhx",
      "timestamp": 1716908333,
      "active": true,
      "internal": false,
      "range": [
        0,
        1002
      ],
      "next": 3,
      "next_index": 3
    },
    {
      "desc": "pkh([c4317781/44h/1h/0h]tpubDDMz7udSzrtsvFo3LEnVxz5HEaPyRgajwwU7Fr1F55Xkxmbu9NPAjeLK6vvsDYB6eqU7Phd22kLD8jHnCUhT9YqDpAZ3HTfNLawsMeY6Wwr/1/*)#s5h4j887",
      "timestamp": 1716908334,
      "active": true,
      "internal": true,
      "range": [
        0,
        999
      ],
      "next": 0,
      "next_index": 0
    },
    {
      "desc": "sh(wpkh([c4317781/49h/1h/0h]tpubDDVfYvvwZwjhGRjPtev3Gi2Ka6QiEpGrBQJNvU1HgTGRtSyJDh46octbCZAL8octtDqC7d9eTp4QQnANz2eUhKYAb9iGnDsH2xB19e8ajgn/0/*))#dfqz4377",
      "timestamp": 1716908333,
      "active": true,
      "internal": false,
      "range": [
        0,
        999
      ],
      "next": 0,
      "next_index": 0
    },
    {
      "desc": "sh(wpkh([c4317781/49h/1h/0h]tpubDDVfYvvwZwjhGRjPtev3Gi2Ka6QiEpGrBQJNvU1HgTGRtSyJDh46octbCZAL8octtDqC7d9eTp4QQnANz2eUhKYAb9iGnDsH2xB19e8ajgn/1/*))#cgw5dwtp",
      "timestamp": 1716908334,
      "active": true,
      "internal": true,
      "range": [
        0,
        999
      ],
      "next": 0,
      "next_index": 0
    },
    {
      "desc": "tr([c4317781/86h/1h/0h]tpubDD5feT2A4eyTwqutfWYMVVcMdFpu7kLo4bTqBDD9pH2A7reog3sdc1nwNKSxS3qC6jatg6Fq8xZFi9MEEUwWceqXWxoG5V87xtgVf4Mrpac/0/*)#cvtldceg",
      "timestamp": 1716908333,
      "active": true,
      "internal": false,
      "range": [
        0,
        1001
      ],
      "next": 2,
      "next_index": 2
    },
    {
      "desc": "tr([c4317781/86h/1h/0h]tpubDD5feT2A4eyTwqutfWYMVVcMdFpu7kLo4bTqBDD9pH2A7reog3sdc1nwNKSxS3qC6jatg6Fq8xZFi9MEEUwWceqXWxoG5V87xtgVf4Mrpac/1/*)#fcw7sdfs",
      "timestamp": 1716908334,
      "active": true,
      "internal": true,
      "range": [
        0,
        999
      ],
      "next": 0,
      "next_index": 0
    },
    {
      "desc": "wpkh([c4317781/84h/1h/0h]tpubDDThUseTsE7BrL9L7K6cNLBfSjLa8zdMVuqEfsiDjgv8WtkG3VScT9HJ8sKAfcWG8NoXD25bd5h8rNwGSep2frEdVtGfQm4n8mQYPjh2DHh/0/*)#w9yrknfc",
      "timestamp": 1716908333,
      "active": true,
      "internal": false,
      "range": [
        0,
        1031
      ],
      "next": 32,
      "next_index": 32
    },
    {
      "desc": "wpkh([c4317781/84h/1h/0h]tpubDDThUseTsE7BrL9L7K6cNLBfSjLa8zdMVuqEfsiDjgv8WtkG3VScT9HJ8sKAfcWG8NoXD25bd5h8rNwGSep2frEdVtGfQm4n8mQYPjh2DHh/1/*)#l3pztxeq",
      "timestamp": 1716908334,
      "active": true,
      "internal": true,
      "range": [
        0,
        999
      ],
      "next": 0,
      "next_index": 0
    }
  ]
}

```


### importdescriptors コマンド

タイムスタンプにもとづいて過去のブロックチェーン内の descriptor の検索を行います．（あまり古いタイムスタンプを指定すると時間がかかります）

最初に（IBD開始前に）ブロックチェーンの起動パラメータで blockfilterindex=1 を指定しておけば，大幅に高速化されます．

* importdescriptors コマンドの引数

```
Arguments:
1. requests                                 (json array, required) Data to be imported
     [
       {                                    (json object)
         "desc": "str",                     (string, required) Descriptor to import.
         "active": bool,                    (boolean, optional, default=false) Set this descriptor to be the active descriptor for the corresponding output type/externality
         "range": n or [n,n],               (numeric or array, optional) If a ranged descriptor is used, this specifies the end or the range (in the form [begin,end]) to import
         "next_index": n,                   (numeric, optional) If a ranged descriptor is set to active, this specifies the next index to generate addresses from
         "timestamp": timestamp | "now",    (integer / string, required) Time from which to start rescanning the blockchain for this descriptor, in UNIX epoch time
                                            Use the string "now" to substitute the current synced blockchain time.
                                            "now" can be specified to bypass scanning, for outputs which are known to never have been used, and
                                            0 can be specified to scan the entire blockchain. Blocks up to 2 hours before the earliest timestamp
                                            of all descriptors being imported will be scanned as well as the mempool.
         "internal": bool,                  (boolean, optional, default=false) Whether matching outputs should be treated as not incoming payments (e.g. change)
         "label": "str",                    (string, optional, default="") Label to assign to the address, only allowed with internal=false. Disabled for ranged descriptors
       },
       ...
     ]

```

* UNIX時間の例

2024年1月１日0時０分０秒 → 1704034800

### 秘密鍵のインポート


### P2SH の  descriptor をインポート

```bash
echo $P2SH_DESCRIPTOR

=>
sh(multi(2,0222e8217169108c253501bbc0c12b1afdf7d90f7ffcab3c977ccd0720b396bfe6,03db5794dee648c57f6bc4eecac49328c57541737767ad066fd2149aaa5dd50280,02fed05b945310ab915bec26e8a8ef4489ccea88af9cb111a46d2be9aeb027e7da))#qvpxamev
```

現在はこのdescriptor をインポートしようとすると，秘密鍵が無いという理由でエラーになります

```bash
bitcoin-core.cli importdescriptors '[{"desc": "sh(multi(2,0222e8217169108c253501bbc0c12b1afdf7d90f7ffcab3c977ccd0720b396bfe6,03db5794dee648c57f6bc4eecac49328c57541737767ad066fd2149aaa5dd50280,02fed05b945310ab915bec26e8a8ef4489ccea88af9cb111a46d2be9aeb027e7da))#qvpxamev",   "timestamp": 1704034800,  "active": false,  "watchonly": true}]'

=>
[
  {
    "success": false,
    "error": {
      "code": -4,
      "message": "Cannot import descriptor without private keys to a wallet with private keys enabled"
    }
  }
]
```

### P2WSH の descriptor をインポート

```bash
echo $P2WSH_DESCRIPTOR

=>
wsh(multi(2,0222e8217169108c253501bbc0c12b1afdf7d90f7ffcab3c977ccd0720b396bfe6,03db5794dee648c57f6bc4eecac49328c57541737767ad066fd2149aaa5dd50280,02fed05b945310ab915bec26e8a8ef4489ccea88af9cb111a46d2be9aeb027e7da))#lfmqcn4l
```

現在はこのdescriptor をインポートしようとすると，秘密鍵が無いという理由でエラーになります

```bash
bitcoin-core.cli importdescriptors '[{"desc": "wsh(multi(2,0222e8217169108c253501bbc0c12b1afdf7d90f7ffcab3c977ccd0720b396bfe6,03db5794dee648c57f6bc4eecac49328c57541737767ad066fd2149aaa5dd50280,02fed05b945310ab915bec26e8a8ef4489ccea88af9cb111a46d2be9aeb027e7da))#lfmqcn4l",   "timestamp": 1704034800, "watchonly": true}]'

=>
[
  {
    "success": false,
    "error": {
      "code": -4,
      "message": "Cannot import descriptor without private keys to a wallet with private keys enabled"
    }
  }
]
```

## P2PKH

P2PKH タイプのUTXOの確認

```bash

```




### 送金先と金額

```bash
bitcoin-core.cli getnewaddress 
=>
tb1qhj7y9rup50pqnuckuqluge63enffguymm7j5ue
```

送金金額：0.00088-0.00002=0.00086

### 6つのinputを持つ未署名のトランザクションの作成

P2PK, P2PKH, P2SH, P2WPKH, P2WSH, P2TR の順で作成する

```bash
bitcoin-core.cli createrawtransaction  '[{"txid":"08701c7f0d4db0dd5da01df4ad750e6819de718abe1ea32d917241a89c88379c","vout":0},{"txid":"6ae4c0efb1ff8612f649cf673450d78a565e1b5788c678f22ae28ae8711e3ec2","vout":0},{"txid":"a0faa783f92fdb8bdee3e134f92ce1a163c36a4574ff494985e54665b2a70d41","vout":0},{"txid":"aa9d14b180f967d85f579b7d90151e5f6f5c7dbf81198d2ca0411fbcb119470a","vout":0},{"txid":"89f1855f19cf3280aa842d1cb1e38442e98a47c475a1a340813bed5536f2ec6e","vout":0}]'  '[{"tb1qhj7y9rup50pqnuckuqluge63enffguymm7j5ue": 0.00086}]'
=>
02000000059c37889ca84172912da31ebe8a71de19680e75adf41da05dddb04d0d7f1c70080000000000ffffffffc23e1e71e88ae22af278c688571b5e568ad7503467cf49f61286ffb1efc0e46a0000000000ffffffff410da7b26546e5854949ff74456ac363a1e12cf934e1e3de8bdb2ff983a7faa00000000000ffffffff0a4719b1bc1f41a02c8d1981bf7d5c6f5f1e15907d9b575fd867f980b1149daa0000000000ffffffff6eecf23655ed3b8140a3a175c4478ae94284e3b11c2d84aa8032cf195f85f1890000000000ffffffff01f04f010000000000160014bcbc428f81a3c209f316e03fc46751ccd294709b00000000
```

### トランザクションへの署名

実際の運用では，マルチシグは複数の主体のワレットで順番に署名する必要があります。

```bash
bitcoin-core.cli signrawtransactionwithwallet 02000000059c37889ca84172912da31ebe8a71de19680e75adf41da05dddb04d0d7f1c70080000000000ffffffffc23e1e71e88ae22af278c688571b5e568ad7503467cf49f61286ffb1efc0e46a0000000000ffffffff410da7b26546e5854949ff74456ac363a1e12cf934e1e3de8bdb2ff983a7faa00000000000ffffffff0a4719b1bc1f41a02c8d1981bf7d5c6f5f1e15907d9b575fd867f980b1149daa0000000000ffffffff6eecf23655ed3b8140a3a175c4478ae94284e3b11c2d84aa8032cf195f85f1890000000000ffffffff01f04f010000000000160014bcbc428f81a3c209f316e03fc46751ccd294709b00000000
=>
{
  "hex": "020000000001059c37889ca84172912da31ebe8a71de19680e75adf41da05dddb04d0d7f1c7008000000004847304402207af64ee819d4508afd2d87845f9b0b45bfff4d3b8b48ef6254696c6594e456f8022002754510969fc71f0d1e7dbff0fb7de5c1a3791fcaa510843b41f212238069cd01ffffffffc23e1e71e88ae22af278c688571b5e568ad7503467cf49f61286ffb1efc0e46a000000006a4730440220263aa6dbd8408800e6a02c9085ea6a444b2ab78891792eb57f49f4ade581431602207a5b3f18270f2ec0de58b07d6c274954aacb627eca381e568d937411feaf083401210222e18123552767a58da9f3749a4fd014fe991be3469d0ee01618080734ec6701ffffffff410da7b26546e5854949ff74456ac363a1e12cf934e1e3de8bdb2ff983a7faa000000000fc0047304402206e60f211d72c34c16be004e756ed490c5c79d376c479c146512c2487069781c602200473c8442b507fea1b7ee7274431698278c9893a8da1b6734ca444df7b2102aa0147304402200d844c231012bcc36a0774adf8677b948dd841838ae3ebb750ed497fc2a71314022073eace5173560c9f72bef661cbf80ea8f6594bb80bd4aa0c0d8eb96cb312cc6f014c6952210237a1e78baa7be5389c51f1836fb3b52c7163ea869281559c8ac94e69898793d42103ab2e94ae215cb3bdba9269588f32c8df33c2140a554149850e01aa18b2bea645210345e92ef8d7d03efce3878360b0fc57bb82d5d291e9e483c296f409165b80121b53aeffffffff0a4719b1bc1f41a02c8d1981bf7d5c6f5f1e15907d9b575fd867f980b1149daa0000000000ffffffff6eecf23655ed3b8140a3a175c4478ae94284e3b11c2d84aa8032cf195f85f1890000000000ffffffff01f04f010000000000160014bcbc428f81a3c209f316e03fc46751ccd294709b0000000247304402200e9082682885eacee1f8c5381aa022d709af7ce2b5d36d2392c6756cd80c28ac0220358b6b255401ffcaa0d593715b85245fbe9a525a0ebe64793a41d017e816341f0121031b6f543a2a7ddd2b1358a2b1bdbef666cb302904b53dfc2f066889e914e4bb5b040047304402206267cf7c180d2f1245955fbee57ae657cba0dc82e6a253d1b8ffbc3915af3df302203e2c1d241e8c152436d7fbc01b36beca1b98e98be990b03845c4d21a62b0d685014730440220278a80c5d9cf17b6e3486788dca63262407ab4999eb79521b92e18bb5a368ee002206139aabd54bf82e3482200e1c7c6940ef67045735198dcb6d2a99ab1828b4680016952210380204524e4cf427a5a5da5826b531bc327c869230118433c5ab503544d1c1a652103efe8c25a79d87030ca57d1a630afd214bd7058563dcb35aee31f82bda571955b210290d9f66da40f2c4962b20d5a1e3ad6a3694fdfc60fef4df1126a9d54984b9e0b53ae00000000",
  "complete": true
}
```

### 作成したトランザクションの構造

```bash
bitcoin-core.cli decoderawtransaction 020000000001059c37889ca84172912da31ebe8a71de19680e75adf41da05dddb04d0d7f1c7008000000004847304402207af64ee819d4508afd2d87845f9b0b45bfff4d3b8b48ef6254696c6594e456f8022002754510969fc71f0d1e7dbff0fb7de5c1a3791fcaa510843b41f212238069cd01ffffffffc23e1e71e88ae22af278c688571b5e568ad7503467cf49f61286ffb1efc0e46a000000006a4730440220263aa6dbd8408800e6a02c9085ea6a444b2ab78891792eb57f49f4ade581431602207a5b3f18270f2ec0de58b07d6c274954aacb627eca381e568d937411feaf083401210222e18123552767a58da9f3749a4fd014fe991be3469d0ee01618080734ec6701ffffffff410da7b26546e5854949ff74456ac363a1e12cf934e1e3de8bdb2ff983a7faa000000000fc0047304402206e60f211d72c34c16be004e756ed490c5c79d376c479c146512c2487069781c602200473c8442b507fea1b7ee7274431698278c9893a8da1b6734ca444df7b2102aa0147304402200d844c231012bcc36a0774adf8677b948dd841838ae3ebb750ed497fc2a71314022073eace5173560c9f72bef661cbf80ea8f6594bb80bd4aa0c0d8eb96cb312cc6f014c6952210237a1e78baa7be5389c51f1836fb3b52c7163ea869281559c8ac94e69898793d42103ab2e94ae215cb3bdba9269588f32c8df33c2140a554149850e01aa18b2bea645210345e92ef8d7d03efce3878360b0fc57bb82d5d291e9e483c296f409165b80121b53aeffffffff0a4719b1bc1f41a02c8d1981bf7d5c6f5f1e15907d9b575fd867f980b1149daa0000000000ffffffff6eecf23655ed3b8140a3a175c4478ae94284e3b11c2d84aa8032cf195f85f1890000000000ffffffff01f04f010000000000160014bcbc428f81a3c209f316e03fc46751ccd294709b0000000247304402200e9082682885eacee1f8c5381aa022d709af7ce2b5d36d2392c6756cd80c28ac0220358b6b255401ffcaa0d593715b85245fbe9a525a0ebe64793a41d017e816341f0121031b6f543a2a7ddd2b1358a2b1bdbef666cb302904b53dfc2f066889e914e4bb5b040047304402206267cf7c180d2f1245955fbee57ae657cba0dc82e6a253d1b8ffbc3915af3df302203e2c1d241e8c152436d7fbc01b36beca1b98e98be990b03845c4d21a62b0d685014730440220278a80c5d9cf17b6e3486788dca63262407ab4999eb79521b92e18bb5a368ee002206139aabd54bf82e3482200e1c7c6940ef67045735198dcb6d2a99ab1828b4680016952210380204524e4cf427a5a5da5826b531bc327c869230118433c5ab503544d1c1a652103efe8c25a79d87030ca57d1a630afd214bd7058563dcb35aee31f82bda571955b210290d9f66da40f2c4962b20d5a1e3ad6a3694fdfc60fef4df1126a9d54984b9e0b53ae00000000
=>
{
  "txid": "11f36ca7c4840c2cd24dd58d061bd30ccad3a8e0885920dd6daca9c855372756",
  "hash": "bd8acb3055541202a3de6fb53dfa5fe1d82e00b334ab7223884f9aa68c1f06f6",
  "version": 2,
  "size": 1040,
  "vsize": 767,
  "weight": 3068,
  "locktime": 0,
  "vin": [
    {
      "txid": "08701c7f0d4db0dd5da01df4ad750e6819de718abe1ea32d917241a89c88379c",
      "vout": 0,
      "scriptSig": {
        "asm": "304402207af64ee819d4508afd2d87845f9b0b45bfff4d3b8b48ef6254696c6594e456f8022002754510969fc71f0d1e7dbff0fb7de5c1a3791fcaa510843b41f212238069cd[ALL]",
        "hex": "47304402207af64ee819d4508afd2d87845f9b0b45bfff4d3b8b48ef6254696c6594e456f8022002754510969fc71f0d1e7dbff0fb7de5c1a3791fcaa510843b41f212238069cd01"
      },
      "sequence": 4294967295
    },
    {
      "txid": "6ae4c0efb1ff8612f649cf673450d78a565e1b5788c678f22ae28ae8711e3ec2",
      "vout": 0,
      "scriptSig": {
        "asm": "30440220263aa6dbd8408800e6a02c9085ea6a444b2ab78891792eb57f49f4ade581431602207a5b3f18270f2ec0de58b07d6c274954aacb627eca381e568d937411feaf0834[ALL] 0222e18123552767a58da9f3749a4fd014fe991be3469d0ee01618080734ec6701",
        "hex": "4730440220263aa6dbd8408800e6a02c9085ea6a444b2ab78891792eb57f49f4ade581431602207a5b3f18270f2ec0de58b07d6c274954aacb627eca381e568d937411feaf083401210222e18123552767a58da9f3749a4fd014fe991be3469d0ee01618080734ec6701"
      },
      "sequence": 4294967295
    },
    {
      "txid": "a0faa783f92fdb8bdee3e134f92ce1a163c36a4574ff494985e54665b2a70d41",
      "vout": 0,
      "scriptSig": {
        "asm": "0 304402206e60f211d72c34c16be004e756ed490c5c79d376c479c146512c2487069781c602200473c8442b507fea1b7ee7274431698278c9893a8da1b6734ca444df7b2102aa[ALL] 304402200d844c231012bcc36a0774adf8677b948dd841838ae3ebb750ed497fc2a71314022073eace5173560c9f72bef661cbf80ea8f6594bb80bd4aa0c0d8eb96cb312cc6f[ALL] 52210237a1e78baa7be5389c51f1836fb3b52c7163ea869281559c8ac94e69898793d42103ab2e94ae215cb3bdba9269588f32c8df33c2140a554149850e01aa18b2bea645210345e92ef8d7d03efce3878360b0fc57bb82d5d291e9e483c296f409165b80121b53ae",
        "hex": "0047304402206e60f211d72c34c16be004e756ed490c5c79d376c479c146512c2487069781c602200473c8442b507fea1b7ee7274431698278c9893a8da1b6734ca444df7b2102aa0147304402200d844c231012bcc36a0774adf8677b948dd841838ae3ebb750ed497fc2a71314022073eace5173560c9f72bef661cbf80ea8f6594bb80bd4aa0c0d8eb96cb312cc6f014c6952210237a1e78baa7be5389c51f1836fb3b52c7163ea869281559c8ac94e69898793d42103ab2e94ae215cb3bdba9269588f32c8df33c2140a554149850e01aa18b2bea645210345e92ef8d7d03efce3878360b0fc57bb82d5d291e9e483c296f409165b80121b53ae"
      },
      "sequence": 4294967295
    },
    {
      "txid": "aa9d14b180f967d85f579b7d90151e5f6f5c7dbf81198d2ca0411fbcb119470a",
      "vout": 0,
      "scriptSig": {
        "asm": "",
        "hex": ""
      },
      "txinwitness": [
        "304402200e9082682885eacee1f8c5381aa022d709af7ce2b5d36d2392c6756cd80c28ac0220358b6b255401ffcaa0d593715b85245fbe9a525a0ebe64793a41d017e816341f01",
        "031b6f543a2a7ddd2b1358a2b1bdbef666cb302904b53dfc2f066889e914e4bb5b"
      ],
      "sequence": 4294967295
    },
    {
      "txid": "89f1855f19cf3280aa842d1cb1e38442e98a47c475a1a340813bed5536f2ec6e",
      "vout": 0,
      "scriptSig": {
        "asm": "",
        "hex": ""
      },
      "txinwitness": [
        "",
        "304402206267cf7c180d2f1245955fbee57ae657cba0dc82e6a253d1b8ffbc3915af3df302203e2c1d241e8c152436d7fbc01b36beca1b98e98be990b03845c4d21a62b0d68501",
        "30440220278a80c5d9cf17b6e3486788dca63262407ab4999eb79521b92e18bb5a368ee002206139aabd54bf82e3482200e1c7c6940ef67045735198dcb6d2a99ab1828b468001",
        "52210380204524e4cf427a5a5da5826b531bc327c869230118433c5ab503544d1c1a652103efe8c25a79d87030ca57d1a630afd214bd7058563dcb35aee31f82bda571955b210290d9f66da40f2c4962b20d5a1e3ad6a3694fdfc60fef4df1126a9d54984b9e0b53ae"
      ],
      "sequence": 4294967295
    }
  ],
  "vout": [
    {
      "value": 0.00086000,
      "n": 0,
      "scriptPubKey": {
        "asm": "0 bcbc428f81a3c209f316e03fc46751ccd294709b",
        "desc": "addr(tb1qhj7y9rup50pqnuckuqluge63enffguymm7j5ue)#qxp8yjj5",
        "hex": "0014bcbc428f81a3c209f316e03fc46751ccd294709b",
        "address": "tb1qhj7y9rup50pqnuckuqluge63enffguymm7j5ue",
        "type": "witness_v0_keyhash"
      }
    }
  ]
}

```

### 署名済のトランザクションのブロードキャスト

```bash
bitcoin-core.cli sendrawtransaction 020000000001059c37889ca84172912da31ebe8a71de19680e75adf41da05dddb04d0d7f1c7008000000004847304402207af64ee819d4508afd2d87845f9b0b45bfff4d3b8b48ef6254696c6594e456f8022002754510969fc71f0d1e7dbff0fb7de5c1a3791fcaa510843b41f212238069cd01ffffffffc23e1e71e88ae22af278c688571b5e568ad7503467cf49f61286ffb1efc0e46a000000006a4730440220263aa6dbd8408800e6a02c9085ea6a444b2ab78891792eb57f49f4ade581431602207a5b3f18270f2ec0de58b07d6c274954aacb627eca381e568d937411feaf083401210222e18123552767a58da9f3749a4fd014fe991be3469d0ee01618080734ec6701ffffffff410da7b26546e5854949ff74456ac363a1e12cf934e1e3de8bdb2ff983a7faa000000000fc0047304402206e60f211d72c34c16be004e756ed490c5c79d376c479c146512c2487069781c602200473c8442b507fea1b7ee7274431698278c9893a8da1b6734ca444df7b2102aa0147304402200d844c231012bcc36a0774adf8677b948dd841838ae3ebb750ed497fc2a71314022073eace5173560c9f72bef661cbf80ea8f6594bb80bd4aa0c0d8eb96cb312cc6f014c6952210237a1e78baa7be5389c51f1836fb3b52c7163ea869281559c8ac94e69898793d42103ab2e94ae215cb3bdba9269588f32c8df33c2140a554149850e01aa18b2bea645210345e92ef8d7d03efce3878360b0fc57bb82d5d291e9e483c296f409165b80121b53aeffffffff0a4719b1bc1f41a02c8d1981bf7d5c6f5f1e15907d9b575fd867f980b1149daa0000000000ffffffff6eecf23655ed3b8140a3a175c4478ae94284e3b11c2d84aa8032cf195f85f1890000000000ffffffff01f04f010000000000160014bcbc428f81a3c209f316e03fc46751ccd294709b0000000247304402200e9082682885eacee1f8c5381aa022d709af7ce2b5d36d2392c6756cd80c28ac0220358b6b255401ffcaa0d593715b85245fbe9a525a0ebe64793a41d017e816341f0121031b6f543a2a7ddd2b1358a2b1bdbef666cb302904b53dfc2f066889e914e4bb5b040047304402206267cf7c180d2f1245955fbee57ae657cba0dc82e6a253d1b8ffbc3915af3df302203e2c1d241e8c152436d7fbc01b36beca1b98e98be990b03845c4d21a62b0d685014730440220278a80c5d9cf17b6e3486788dca63262407ab4999eb79521b92e18bb5a368ee002206139aabd54bf82e3482200e1c7c6940ef67045735198dcb6d2a99ab1828b4680016952210380204524e4cf427a5a5da5826b531bc327c869230118433c5ab503544d1c1a652103efe8c25a79d87030ca57d1a630afd214bd7058563dcb35aee31f82bda571955b210290d9f66da40f2c4962b20d5a1e3ad6a3694fdfc60fef4df1126a9d54984b9e0b53ae00000000
=>
11f36ca7c4840c2cd24dd58d061bd30ccad3a8e0885920dd6daca9c855372756
```









