# 3. bitcoin core の詳細-2

2025/05/19
Shigeichiro Yamasaki

## 各種トランザクションの構成を一連の流れで演習します

ubuntu での実施を前提にします．


1.  3 種類のoutput (P2PKH,  P2WPKH,  P2TR)を持つトランザクション TX1 をブロードキャストされている

P2SH, P2WSH の送金にはプログラミングが必要です

```
(UTXOの資金)--> TX1 -+-->0.0001 BTC VOUT:1 -->TX3(P2PKH) --> 0.00008 BTC
                    +-->0.0001 BTC VOUT:2 
                    +-->0.0001 BTC VOUT:3 -->TX5(P2WPKH)--> 0.00008 BTC
                    +-->0.0001 BTC VOUT:4 
                    +-->0.0001 BTC VOUT:5 -->TX7(P2TR)  --> 0.00008 BTC
                    +-->おつり
```

## 目次

* [シェル変数の復元](#restore)
* [アドレス情報の確認](#address)
* [6種類のUTXOの確認](#6UTXOs)
* [P2PKH](#p2pkh)
* P2WPKH
* P2TR

* [descriptor の確認](#IMPORT)

##  <a id="restore">シェル変数の復元</a>

前回の演習の最後で保存していたシェル変数のバックアップファイルをシェルに評価させて復元します．

以下は例です．

自分のバックアップファイルからシェル変数を復元してください


## <a id="address">アドレス情報の確認</a>

### P2PKHアドレス

```bash
bitcoin-core.cli -rpcwallet=bob getaddressinfo $P2PKH_ADDR
=>
{
  "address": "n2yA2WM4UUiYXEZ4TFWi8AXQT12Se7HyUT",
  "scriptPubKey": "76a914eb4f3ff2de050b88afbbe74df54187c06bf027b488ac",
  "ismine": true,
  "solvable": true,
  "desc": "pkh([9278fcb8/44h/1h/0h/0/0]03cfc732476361e280a4b2e5922e21484117d43e300a276dbf22610f303d8b1e78)#u9kxhv2p",
  "parent_desc": "pkh([9278fcb8/44h/1h/0h]tpubDDAxk27sMBmnVB3GA8NNSDJVmShUQz1pkDVsBpTPWe8omdwjRodgJaiRhnixnrr1Xpt7w45v1a1r4iomuktKCgJrXHmLq7sQQV9RtCoLYSo/0/*)#cjfc2gzy",
  "iswatchonly": false,
  "isscript": false,
  "iswitness": false,
  "pubkey": "03cfc732476361e280a4b2e5922e21484117d43e300a276dbf22610f303d8b1e78",
  "iscompressed": true,
  "ischange": false,
  "timestamp": 1747385736,
  "hdkeypath": "m/44h/1h/0h/0/0",
  "hdseedid": "0000000000000000000000000000000000000000",
  "hdmasterfingerprint": "9278fcb8",
  "labels": [
    "pkh_user"
  ]
}
```

### P2SHアドレス

```bash
bitcoin-core.cli -rpcwallet=bob getaddressinfo $P2SH_ADDR
=>
{
  "address": "2MsYJ1mnRt6TDVc7ise2rJv2u6MyuD5ZSQ3",
  "scriptPubKey": "a914033a6e8b41553b9df8eb52cdf233c84632c137c087",
  "ismine": false,
  "solvable": false,
  "iswatchonly": false,
  "isscript": true,
  "iswitness": false,
  "ischange": false,
  "labels": [
  ]
}

```



### P2WPKHアドレス

```bash
bitcoin-core.cli -rpcwallet=bob getaddressinfo $P2WPKH_ADDR
=>
{
  "address": "tb1q9z6g0m0c9aeq8kxrg469rx95a2m7wyc34u6yqy",
  "scriptPubKey": "001428b487edf82f7203d8c345745198b4eab7e71311",
  "ismine": true,
  "solvable": true,
  "desc": "wpkh([9278fcb8/84h/1h/0h/0/8]03a98979a15fe0399983813ceb98538e2c4ddd82de4e50aad099440db79394873b)#qd7g7kr7",
  "parent_desc": "wpkh([9278fcb8/84h/1h/0h]tpubDDhCsJ6XGQpV4ZcobSUHAv88MtVdeYCSW3R4wccKqLHeCTv2y23vzEg948dYybSFfJcsHnXL5D79oXG2Lm3phMG6SGmZXrG4PuNWfYhp8DJ/0/*)#g3xhechk",
  "iswatchonly": false,
  "isscript": false,
  "iswitness": true,
  "witness_version": 0,
  "witness_program": "28b487edf82f7203d8c345745198b4eab7e71311",
  "pubkey": "03a98979a15fe0399983813ceb98538e2c4ddd82de4e50aad099440db79394873b",
  "ischange": false,
  "timestamp": 1747385736,
  "hdkeypath": "m/84h/1h/0h/0/8",
  "hdseedid": "0000000000000000000000000000000000000000",
  "hdmasterfingerprint": "9278fcb8",
  "labels": [
    "wpkh_user"
  ]
}
```


### P2WSHアドレス

```bash
bitcoin-core.cli -rpcwallet=bob getaddressinfo $P2WSH_ADDR
=>
{
  "address": "tb1qmaz02v4u30ufhcf9vlqrmw0dh8wshxsl4y903qxn0gr0764gu2fq5h9zya",
  "scriptPubKey": "0020df44f532bc8bf89be12567c03db9edb9dd0b9a1fa90af880d37a06ff6aa8e292",
  "ismine": false,
  "solvable": false,
  "iswatchonly": false,
  "isscript": true,
  "iswitness": true,
  "witness_version": 0,
  "witness_program": "df44f532bc8bf89be12567c03db9edb9dd0b9a1fa90af880d37a06ff6aa8e292",
  "ischange": false,
  "labels": [
  ]
}

```


### P2TRアドレス

```bash
bitcoin-core.cli -rpcwallet=bob getaddressinfo $P2TR_ADDR
=>
{
  "address": "tb1pww0jg0400s8a7amgpr000jpfdvnjsvhggnucnxqlp63hurzn2vzq905hh9",
  "scriptPubKey": "5120739f243eaf7c0fdf776808def7c8296b272832e844f989981f0ea37e0c535304",
  "ismine": true,
  "solvable": true,
  "desc": "tr([9278fcb8/86h/1h/0h/0/0]feaa76c55882a824120543aaad3f1ad316bdb599423faf5ed07b4be8cf0ed029)#ulnv0ne5",
  "parent_desc": "tr([9278fcb8/86h/1h/0h]tpubDDiDqvaLLuAJ4X3az1dEUVif8TCj2wVvTBSJYTQpPV7PZmfmRgcvFHVustsWNbD6anoCyzRn4bVbiABBR3sZ28rE4kNCmdsKsXBwt8osNPA/0/*)#82nu0ehv",
  "iswatchonly": false,
  "isscript": true,
  "iswitness": true,
  "witness_version": 1,
  "witness_program": "739f243eaf7c0fdf776808def7c8296b272832e844f989981f0ea37e0c535304",
  "ischange": false,
  "timestamp": 1747385736,
  "hdkeypath": "m/86h/1h/0h/0/0",
  "hdseedid": "0000000000000000000000000000000000000000",
  "hdmasterfingerprint": "9278fcb8",
  "labels": [
    "tr_user"
  ]
}
```

## <a id="6UTXOs">6種類の UTXO の確認</a>


```bash
UTXOS=`bitcoin-core.cli -rpcwallet=bob listunspent`

echo $UTXOS
```

### UTXOを一つずつ確認

* 各UTXOの "desc" の値を確認
* descriptor 関数が pkh(), wpkh(), tr() のUTXOを見つける
* 見つかったらそのUTXOをシェル変数に代入する

発見の例

```bash
echo $UTXOS|jq '.[0].desc'
=>
"pkh([c4317781/44h/1h/0h/0/2]02f892126df2459ca403ee963b92e3fe25355780d4192be8569e1a544553068fcf)#7udsu0qd"
# pkh() 発見！ 
# アドレスを確認
echo $UTXOS|jq '.[0].address'
=>
n3ExacD1dFiMLL37u4j5YsR1SBcqi7qCFA
# P2PKHアドレスを確認
echo $P2PKH_ADDR
=>
n3ExacD1dFiMLL37u4j5YsR1SBcqi7qCFA
# 一致しているので インデックス0 がP2PKHのUTXO
```

* （この例では）インデックス 0 のUTXOをシェル変数 UTXO_P2PKH に代入
  
```bash
UTXO_PKH=`echo $UTXOS|jq '.[0]'`
```

```bash
echo $UTXOS|jq '.[1].desc'
=>
"wpkh([c4317781/84h/1h/0h/0/31]035701c8785279c4ca4eb9e792428404e609b2f6a07f2b7e13b781c2d02c752def)#glp2qarz"
# wpkh 発見！
# アドレスを確認
echo $UTXOS|jq '.[1].address'
=>
tb1q6zy2jxjry280wq64m2gvl9sfnvhvy4t3w05ljv
# P2WPKHアドレスを確認
echo $P2WPKH_ADDR
=>
tb1q6zy2jxjry280wq64m2gvl9sfnvhvy4t3w05ljv
# 一致しているので，インデックス1 がP2WPKHのUTXO
```

* （この例では）インデックス 1 のUTXOをシェル変数 UTXO_P2WPKH に代入

```bash
UTXO_WPKH=`echo $UTXOS|jq '.[1]'`
```

...


```bash
echo $UTXOS|jq '.[3].desc'
=>
"tr([9d671bb2/86h/1h/0h/0/0]73f542100a640353f56b497534da7c2f1aabd06aa3ded48017d566a82083e67a)#9m5msrfm"
# tr()発見！
# アドレスを確認
echo $UTXOS|jq '.[3].address'
=>
"tb1pn99nkklk2rdlnx7vsg8n9f90fjyyqyvfpeefn5efz56qr5c8hsns5yqwge"
echo $P2TR_ADDR
=>
"tb1pn99nkklk2rdlnx7vsg8n9f90fjyyqyvfpeefn5efz56qr5c8hsns5yqwge"
# 一致しているので，インデックス3 がP2TRのUTXO
```

* （この例では）インデックス 3 のUTXOをシェル変数 UTXO_P2TR に代入

```bash
UTXO_TR=`echo $UTXOS|jq '.[3]'`
```

## <a id="p2pkh">P2PKH </a>

### P2PKH タイプのUTXOの確認

トランザクションIDとVOUT と金額の確認

```bash
TXID_PKH=`echo $UTXO_PKH|jq -r .txid`

echo $TXID_PKH
=>
557adafc853f70a405a9e271ab4b5e8b308049ba18792361d2d82c0317271c33

VOUT_PKH=`echo $UTXO_PKH|jq -r .vout`

echo $VOUT_PKH
=>
0

AMOUNT_PKH=`echo $UTXO_PKH|jq -r .amount`

echo $AMOUNT_PKH
=>
0.00010000
```

* 送金先はTAROとします

```bash
echo $TARO
=>
tb1qd3la0q64a5qt5l4aka00jq495ry7d7gws84kf8
```

* 送金金額

FEE 0.00002
AMOUNTは 0.0001-0.00002 = 0.00008

### P2PKH トランザクションの作成

```bash
INPUT_PKH="[{\"txid\":\"$TXID_PKH\",\"vout\": $VOUT_PKH}]"
OUTPUT_PKH="[{\"$TARO\": 0.00008}]"
```

```bash
echo $INPUT_PKH
echo $OUTPUT_PKH
```

未署名のトランザクション

```bash
UNSIGNED_PKH_TX=`bitcoin-core.cli createrawtransaction "$INPUT_PKH" "$OUTPUT_PKH"`

echo $UNSIGNED_PKH_TX
=>
0200000001331c2717032cd8d261237918ba4980308b5e4bab71e2a905a4703f85fcda7a550000000000fdffffff0150460000000000001600146c7fd78355ed00ba7ebdb75ef902a5a0c9e6f90e00000000
```

### P2PKH トランザクションへの署名


```bash
SIGNED_PKH_TX=`bitcoin-core.cli -rpcwallet=bob signrawtransactionwithwallet $UNSIGNED_PKH_TX`

echo $SIGNED_PKH_TX
{ "hex": "0200000001331c2717032cd8d261237918ba4980308b5e4bab71e2a905a4703f85fcda7a55000000006a4730440220442e72ce91b90e30486abd8e5df854844bef208077f846ee3e8196994bafa5fd02202b7138c059d5aac1f3ff5ff732f0d97f2ca44dbb32b424a746da95c809f550ea012102f892126df2459ca403ee963b92e3fe25355780d4192be8569e1a544553068fcffdffffff0150460000000000001600146c7fd78355ed00ba7ebdb75ef902a5a0c9e6f90e00000000", "complete": true }
```

```bash
SIGNED_PKH_TX_HEX=`echo $SIGNED_PKH_TX| jq -r .hex`

echo $SIGNED_PKH_TX_HEX
=>
0200000001331c2717032cd8d261237918ba4980308b5e4bab71e2a905a4703f85fcda7a55000000006a4730440220442e72ce91b90e30486abd8e5df854844bef208077f846ee3e8196994bafa5fd02202b7138c059d5aac1f3ff5ff732f0d97f2ca44dbb32b424a746da95c809f550ea012102f892126df2459ca403ee963b92e3fe25355780d4192be8569e1a544553068fcffdffffff0150460000000000001600146c7fd78355ed00ba7ebdb75ef902a5a0c9e6f90e00000000
```

### 作成したPKH トランザクションの構造

```bash
bitcoin-core.cli decoderawtransaction $SIGNED_PKH_TX_HEX

=>
{
  "txid": "a00d9743c4191a725b094ebc94113791cf29f321abec3441c39271ef79833aed",
  "hash": "a00d9743c4191a725b094ebc94113791cf29f321abec3441c39271ef79833aed",
  "version": 2,
  "size": 188,
  "vsize": 188,
  "weight": 752,
  "locktime": 0,
  "vin": [
    {
      "txid": "557adafc853f70a405a9e271ab4b5e8b308049ba18792361d2d82c0317271c33",
      "vout": 0,
      "scriptSig": {
        "asm": "30440220442e72ce91b90e30486abd8e5df854844bef208077f846ee3e8196994bafa5fd02202b7138c059d5aac1f3ff5ff732f0d97f2ca44dbb32b424a746da95c809f550ea[ALL] 02f892126df2459ca403ee963b92e3fe25355780d4192be8569e1a544553068fcf",
        "hex": "4730440220442e72ce91b90e30486abd8e5df854844bef208077f846ee3e8196994bafa5fd02202b7138c059d5aac1f3ff5ff732f0d97f2ca44dbb32b424a746da95c809f550ea012102f892126df2459ca403ee963b92e3fe25355780d4192be8569e1a544553068fcf"
      },
      "sequence": 4294967293
    }
  ],
  "vout": [
    {
      "value": 0.00018000,
      "n": 0,
      "scriptPubKey": {
        "asm": "0 6c7fd78355ed00ba7ebdb75ef902a5a0c9e6f90e",
        "desc": "addr(tb1qd3la0q64a5qt5l4aka00jq495ry7d7gws84kf8)#nshaknc2",
        "hex": "00146c7fd78355ed00ba7ebdb75ef902a5a0c9e6f90e",
        "address": "tb1qd3la0q64a5qt5l4aka00jq495ry7d7gws84kf8",
        "type": "witness_v0_keyhash"
      }
    }
  ]
}
```

### 署名済のPKHトランザクションのブロードキャスト

```bash
bitcoin-core.cli -rpcwallet=bob sendrawtransaction $SIGNED_PKH_TX_HEX
=>
a00d9743c4191a725b094ebc94113791cf29f321abec3441c39271ef79833aed
```


## <a id="p2wpkh">P2WPKH </a>

### P2WPKH タイプのUTXOの確認


トランザクションIDとVOUT と金額の確認

```bash
TXID_WPKH=`echo $UTXO_WPKH|jq .txid`

echo $TXID_WPKH
=>
d7db641d8b53ae7f47992899e1519a14ff293d21c4ce4331ab2380f7256e8e45

VOUT_WPKH=`echo $UTXO_WPKH|jq -r .vout`

echo $VOUT_WPKH
=>
0

AMOUNT_WPKH=`echo $UTXO_WPKH|jq -r .amount`

echo $AMOUNT_WPKH
=>
0.00020000
```

* 送金先はTAROとします

```bash
echo $TARO
=>
tb1qd3la0q64a5qt5l4aka00jq495ry7d7gws84kf8
```

* 送金金額

FEE 0.00002
AMOUNTは 0.0002-0.00002 = 0.00018

### P2WPKH トランザクションの作成

```bash
INPUT_WPKH="[{\"txid\":$TXID_WPKH,\"vout\": $VOUT_WPKH}]"
OUTPUT_WPKH="[{\"$TARO\": 0.00018}]"
```

未署名のトランザクション

```bash
UNSIGNED_WPKH_TX=`bitcoin-core.cli createrawtransaction "$INPUT_WPKH" "$OUTPUT_WPKH"`

echo $UNSIGNED_WPKH_TX
=>
0200000001f69ebf429cd6a28a19e6991749dbbb667c777bebb49786d2d46a5c4e21e47d090500000000fdffffff0150460000000000001600146c7fd78355ed00ba7ebdb75ef902a5a0c9e6f90e00000000
```

### P2WPKH トランザクションへの署名


```bash
SIGNED_WPKH_TX=`bitcoin-core.cli -rpcwallet=bob signrawtransactionwithwallet $UNSIGNED_WPKH_TX`

echo $SIGNED_WPKH_TX
=>
{ "hex": "02000000000101f69ebf429cd6a28a19e6991749dbbb667c777bebb49786d2d46a5c4e21e47d090500000000fdffffff0150460000000000001600146c7fd78355ed00ba7ebdb75ef902a5a0c9e6f90e0247304402201fdc8f42855872782b6054d5c2eded11337170e6ee0b6511d55f8277111556b602200d4c749718fd18b07ab8b1ec8221cdebe3c212327bb179dac23c5cfa982bfa9c0121030c6ab4fbdd20cd51e14923c55e047911fdea3a709200cf915eff29491b5be2d300000000", "complete": true }
```

```bash
SIGNED_WPKH_TX_HEX=`echo $SIGNED_WPKH_TX| jq -r .hex`

echo $SIGNED_WPKH_TX_HEX
=>
02000000000101f69ebf429cd6a28a19e6991749dbbb667c777bebb49786d2d46a5c4e21e47d090500000000fdffffff0150460000000000001600146c7fd78355ed00ba7ebdb75ef902a5a0c9e6f90e0247304402201fdc8f42855872782b6054d5c2eded11337170e6ee0b6511d55f8277111556b602200d4c749718fd18b07ab8b1ec8221cdebe3c212327bb179dac23c5cfa982bfa9c0121030c6ab4fbdd20cd51e14923c55e047911fdea3a709200cf915eff29491b5be2d300000000
```

### 作成したPKH トランザクションの構造

```bash
bitcoin-core.cli decoderawtransaction $SIGNED_WPKH_TX_HEX

=>
{
  "txid": "3daadfb4f1470e2c8347262aacccffd93c02c43a4f3081c909f7040d08f6e837",
  "hash": "840a0873a0a534fdba3ee258f623d0dced0bdcadbcfeed390bc07f8b3f009b4f",
  "version": 2,
  "size": 191,
  "vsize": 110,
  "weight": 437,
  "locktime": 0,
  "vin": [
    {
      "txid": "097de4214e5c6ad4d28697b4eb7b777c66bbdb491799e6198aa2d69c42bf9ef6",
      "vout": 5,
      "scriptSig": {
        "asm": "",
        "hex": ""
      },
      "txinwitness": [
        "304402201fdc8f42855872782b6054d5c2eded11337170e6ee0b6511d55f8277111556b602200d4c749718fd18b07ab8b1ec8221cdebe3c212327bb179dac23c5cfa982bfa9c01",
        "030c6ab4fbdd20cd51e14923c55e047911fdea3a709200cf915eff29491b5be2d3"
      ],
      "sequence": 4294967293
    }
  ],
  "vout": [
    {
      "value": 0.00018000,
      "n": 0,
      "scriptPubKey": {
        "asm": "0 6c7fd78355ed00ba7ebdb75ef902a5a0c9e6f90e",
        "desc": "addr(tb1qd3la0q64a5qt5l4aka00jq495ry7d7gws84kf8)#nshaknc2",
        "hex": "00146c7fd78355ed00ba7ebdb75ef902a5a0c9e6f90e",
        "address": "tb1qd3la0q64a5qt5l4aka00jq495ry7d7gws84kf8",
        "type": "witness_v0_keyhash"
      }
    }
  ]
}
```

### 署名済のPKHトランザクションのブロードキャスト

```bash
bitcoin-core.cli -rpcwallet=bob sendrawtransaction $SIGNED_WPKH_TX_HEX
=>
3daadfb4f1470e2c8347262aacccffd93c02c43a4f3081c909f7040d08f6e837
```

## <a id="p2tr">P2TR</a>

### P2WPKH タイプのUTXOの確認


トランザクションIDとVOUT と金額の確認

```bash
TXID_TR=`echo $UTXO_TR|jq .txid`

echo $TXID_TR
=>
"0903ffacbb7f212d81902d54979409610dc4b2c594a66789f35866d14f4e3dc1"

VOUT_TR=`echo $UTXO_TR|jq -r .vout`

echo $VOUT_TR
=>
0

AMOUNT_TR=`echo $UTXO_TR|jq -r .amount`

echo $AMOUNT_TR
=>
0.00010000
```

* 送金先はTAROとします

```bash
echo $TARO
=>
tb1qd3la0q64a5qt5l4aka00jq495ry7d7gws84kf8
```

* 送金金額

FEE 0.00002
AMOUNTは 0.0001-0.00002 = 0.00008

### P2WPKH トランザクションの作成

```bash
INPUT_TR="[{\"txid\":$TXID_TR,\"vout\": $VOUT_TR}]"
OUTPUT_TR="[{\"$TARO\": 0.00008}]"
```

未署名のトランザクション

```bash
UNSIGNED_TR_TX=`bitcoin-core.cli -rpcwallet=bob createrawtransaction "$INPUT_TR" "$OUTPUT_TR"`

echo $UNSIGNED_TR_TX
=>
0200000001c13d4e4fd16658f38967a694c5b2c40d61099497542d90812d217fbbacff03090000000000fdffffff01803e0000000000001600146c7fd78355ed00ba7ebdb75ef902a5a0c9e6f90e00000000
```

### P2WPKH トランザクションへの署名


```bash
SIGNED_TR_TX=`bitcoin-core.cli -rpcwallet=bob signrawtransactionwithwallet $UNSIGNED_TR_TX`

echo $SIGNED_TR_TX
=>
{ "hex": "02000000000101c13d4e4fd16658f38967a694c5b2c40d61099497542d90812d217fbbacff03090000000000fdffffff01803e0000000000001600146c7fd78355ed00ba7ebdb75ef902a5a0c9e6f90e01401c35900ae2ac1999871d3635841a541e16191976671fc6c1e956b3f4f228680098df8e8a4ab2162204ffa04f13df3b679752403f688c62d69fc9f98353db678f00000000", "complete": true }
```

```bash
SIGNED_TR_TX_HEX=`echo $SIGNED_TR_TX| jq -r .hex`

echo $SIGNED_TR_TX_HEX
=>
02000000000101c13d4e4fd16658f38967a694c5b2c40d61099497542d90812d217fbbacff03090000000000fdffffff01803e0000000000001600146c7fd78355ed00ba7ebdb75ef902a5a0c9e6f90e01401c35900ae2ac1999871d3635841a541e16191976671fc6c1e956b3f4f228680098df8e8a4ab2162204ffa04f13df3b679752403f688c62d69fc9f98353db678f00000000
```

### 作成した P2TR トランザクションの構造

```bash
bitcoin-core.cli decoderawtransaction $SIGNED_TR_TX_HEX

=>
{
  "txid": "16264bd9f959698ca36d4444e23f22d0dea1af79dbf18609d56229a0c1360018",
  "hash": "8d896f3e30ae9603aa0c963bae69f2a10a0e252911e9da5c61f34102a2831c17",
  "version": 2,
  "size": 150,
  "vsize": 99,
  "weight": 396,
  "locktime": 0,
  "vin": [
    {
      "txid": "0903ffacbb7f212d81902d54979409610dc4b2c594a66789f35866d14f4e3dc1",
      "vout": 0,
      "scriptSig": {
        "asm": "",
        "hex": ""
      },
      "txinwitness": [
        "1c35900ae2ac1999871d3635841a541e16191976671fc6c1e956b3f4f228680098df8e8a4ab2162204ffa04f13df3b679752403f688c62d69fc9f98353db678f"
      ],
      "sequence": 4294967293
    }
  ],
  "vout": [
    {
      "value": 0.00018000,
      "n": 0,
      "scriptPubKey": {
        "asm": "0 6c7fd78355ed00ba7ebdb75ef902a5a0c9e6f90e",
        "desc": "addr(tb1qd3la0q64a5qt5l4aka00jq495ry7d7gws84kf8)#nshaknc2",
        "hex": "00146c7fd78355ed00ba7ebdb75ef902a5a0c9e6f90e",
        "address": "tb1qd3la0q64a5qt5l4aka00jq495ry7d7gws84kf8",
        "type": "witness_v0_keyhash"
      }
    }
  ]
}
```

### 署名済のPKHトランザクションのブロードキャスト

```bash
bitcoin-core.cli -rpcwallet=bob sendrawtransaction $SIGNED_TR_TX_HEX
=>
16264bd9f959698ca36d4444e23f22d0dea1af79dbf18609d56229a0c1360018
```

## <a id="IMPORT"> </a>descriptor の確認

### ワレットの確認

* ワレットの一覧


```bash
bitcoin-core.cli listwallets

```

### ワレットにインポート済の descriptor の確認

* ワレットに格納されている descriptor 確認

```bash
bitcoin-core.cli -rpcwallet=bob listdescriptors

=>
{
  "wallet_name": "bob",
  "descriptors": [
    {
      "desc": "pkh([9278fcb8/44h/1h/0h]tpubDDAxk27sMBmnVB3GA8NNSDJVmShUQz1pkDVsBpTPWe8omdwjRodgJaiRhnixnrr1Xpt7w45v1a1r4iomuktKCgJrXHmLq7sQQV9RtCoLYSo/0/*)#cjfc2gzy",
      "timestamp": 1747385736,
      "active": true,
      "internal": false,
      "range": [
        0,
        1000
      ],
      "next": 1,
      "next_index": 1
    },
    {
      "desc": "pkh([9278fcb8/44h/1h/0h]tpubDDAxk27sMBmnVB3GA8NNSDJVmShUQz1pkDVsBpTPWe8omdwjRodgJaiRhnixnrr1Xpt7w45v1a1r4iomuktKCgJrXHmLq7sQQV9RtCoLYSo/1/*)#fxvehaju",
      "timestamp": 1747385736,
      "active": true,
      "internal": true,
      "range": [
        0,
        999
      ],
      "next": 0,
      "next_index": 0
    },
    {
      "desc": "sh(wpkh([9278fcb8/49h/1h/0h]tpubDDMVifV3YMU49nvfs8uLv7MySw8JP1rAmwU5Ue6LbzLqZhSxsi5BwVB35Q3hxoB4mkAJHF5NBMtFqVdiyuh9dJLmTKwoUGcoCUFMZsKNCP3/0/*))#hs3a5t5p",
      "timestamp": 1747385736,
      "active": true,
      "internal": false,
      "range": [
        0,
        999
      ],
      "next": 0,
      "next_index": 0
    },
    {
      "desc": "sh(wpkh([9278fcb8/49h/1h/0h]tpubDDMVifV3YMU49nvfs8uLv7MySw8JP1rAmwU5Ue6LbzLqZhSxsi5BwVB35Q3hxoB4mkAJHF5NBMtFqVdiyuh9dJLmTKwoUGcoCUFMZsKNCP3/1/*))#z3ltv5p7",
      "timestamp": 1747385736,
      "active": true,
      "internal": true,
      "range": [
        0,
        999
      ],
      "next": 0,
      "next_index": 0
    },
    {
      "desc": "tr([9278fcb8/86h/1h/0h]tpubDDiDqvaLLuAJ4X3az1dEUVif8TCj2wVvTBSJYTQpPV7PZmfmRgcvFHVustsWNbD6anoCyzRn4bVbiABBR3sZ28rE4kNCmdsKsXBwt8osNPA/0/*)#82nu0ehv",
      "timestamp": 1747385736,
      "active": true,
      "internal": false,
      "range": [
        0,
        1000
      ],
      "next": 1,
      "next_index": 1
    },
    {
      "desc": "tr([9278fcb8/86h/1h/0h]tpubDDiDqvaLLuAJ4X3az1dEUVif8TCj2wVvTBSJYTQpPV7PZmfmRgcvFHVustsWNbD6anoCyzRn4bVbiABBR3sZ28rE4kNCmdsKsXBwt8osNPA/1/*)#k7kajv85",
      "timestamp": 1747385736,
      "active": true,
      "internal": true,
      "range": [
        0,
        999
      ],
      "next": 0,
      "next_index": 0
    },
    {
      "desc": "wpkh([9278fcb8/84h/1h/0h]tpubDDhCsJ6XGQpV4ZcobSUHAv88MtVdeYCSW3R4wccKqLHeCTv2y23vzEg948dYybSFfJcsHnXL5D79oXG2Lm3phMG6SGmZXrG4PuNWfYhp8DJ/0/*)#g3xhechk",
      "timestamp": 1747385736,
      "active": true,
      "internal": false,
      "range": [
        0,
        1008
      ],
      "next": 9,
      "next_index": 9
    },
    {
      "desc": "wpkh([9278fcb8/84h/1h/0h]tpubDDhCsJ6XGQpV4ZcobSUHAv88MtVdeYCSW3R4wccKqLHeCTv2y23vzEg948dYybSFfJcsHnXL5D79oXG2Lm3phMG6SGmZXrG4PuNWfYhp8DJ/1/*)#e9rkyd8w",
      "timestamp": 1747385736,
      "active": true,
      "internal": true,
      "range": [
        0,
        999
      ],
      "next": 0,
      "next_index": 0
    }
  ]
}

```


### importdescriptors コマンド

タイムスタンプにもとづいて過去のブロックチェーン内の descriptor の検索を行います．（あまり古いタイムスタンプを指定すると時間がかかります）

最初に（IBD開始前に）ブロックチェーンの起動パラメータで blockfilterindex=1 を指定しておけば，大幅に高速化されます．

* importdescriptors コマンドの引数

```
Arguments:
1. requests                                 (json array, required) Data to be imported
     [
       {                                    (json object)
         "desc": "str",                     (string, required) Descriptor to import.
         "active": bool,                    (boolean, optional, default=false) Set this descriptor to be the active descriptor for the corresponding output type/externality
         "range": n or [n,n],               (numeric or array, optional) If a ranged descriptor is used, this specifies the end or the range (in the form [begin,end]) to import
         "next_index": n,                   (numeric, optional) If a ranged descriptor is set to active, this specifies the next index to generate addresses from
         "timestamp": timestamp | "now",    (integer / string, required) Time from which to start rescanning the blockchain for this descriptor, in UNIX epoch time
                                            Use the string "now" to substitute the current synced blockchain time.
                                            "now" can be specified to bypass scanning, for outputs which are known to never have been used, and
                                            0 can be specified to scan the entire blockchain. Blocks up to 2 hours before the earliest timestamp
                                            of all descriptors being imported will be scanned as well as the mempool.
         "internal": bool,                  (boolean, optional, default=false) Whether matching outputs should be treated as not incoming payments (e.g. change)
         "label": "str",                    (string, optional, default="") Label to assign to the address, only allowed with internal=false. Disabled for ranged descriptors
       },
       ...
     ]

```

* UNIX時間の例

2024年1月１日0時０分０秒 → 1704034800

