# 3. bitcoin core の詳細-2

2025/06/05
Shigeichiro Yamasaki

## 各種トランザクションの構成を一連の流れで演習します

ubuntu での実施を前提にします．
MacOSX で実施する場合は，bitcoin-qt を実行した状態で，`bitcoin-core.cli` コマンドの代わりに `bitcoin-cli` コマンドを使用してください


1.  3 種類のoutput (P2PKH,  P2WPKH,  P2TR)を持つトランザクション TX1 をブロードキャストされている

P2SH, P2WSH の送金にはプログラミングが必要です

```
(UTXOの資金)--> TX1 -+-->0.0001 BTC VOUT:1 -->TX3(P2PKH) --> 0.00008 BTC
                    +-->0.0001 BTC VOUT:2 
                    +-->0.0001 BTC VOUT:3 -->TX5(P2WPKH)--> 0.00008 BTC
                    +-->0.0001 BTC VOUT:4 
                    +-->0.0001 BTC VOUT:5 -->TX7(P2TR)  --> 0.00008 BTC
                    +-->おつり
```

## 目次

* [シェル変数の復元](#restore)
* [アドレス情報の確認](#address)
* [6種類のUTXOの確認](#6UTXOs)
* [P2PKH](#p2pkh)
* P2WPKH
* P2TR
* [descriptor の確認](#IMPORT)

##  <a id="restore">シェル変数の復元</a>

[前回の演習](./2.bitcoin-core-details-1.md)  の最後で保存していたシェル変数のバックアップファイルをシェルに評価させて復元します．

自分のバックアップファイルからシェル変数を復元してください

## <a id="address">アドレス情報の確認</a>

### P2PKHアドレスの情報

確認例

```bash
bitcoin-core.cli getaddressinfo $P2PKH_ADDR
=>
{
  "address": "n4cxBqtUBoG8uM9DRGrqsiWFCfzkfjHVfa",
  "scriptPubKey": "76a914fd6d4ca68d15ae65ee7456afcd292f2ceba3787f88ac",
  "ismine": true,
  "solvable": true,
  "desc": "pkh([9278fcb8/44h/1h/0h/0/1]03486cad2186fc0cf8be14fb35e4c95a415d5396baacfb1776e1114791e7f44025)#zyxh7mv0",
  "parent_desc": "pkh([9278fcb8/44h/1h/0h]tpubDDAxk27sMBmnVB3GA8NNSDJVmShUQz1pkDVsBpTPWe8omdwjRodgJaiRhnixnrr1Xpt7w45v1a1r4iomuktKCgJrXHmLq7sQQV9RtCoLYSo/0/*)#cjfc2gzy",
  "iswatchonly": false,
  "isscript": false,
  "iswitness": false,
  "pubkey": "03486cad2186fc0cf8be14fb35e4c95a415d5396baacfb1776e1114791e7f44025",
  "iscompressed": true,
  "ischange": false,
  "timestamp": 1747385736,
  "hdkeypath": "m/44h/1h/0h/0/1",
  "hdseedid": "0000000000000000000000000000000000000000",
  "hdmasterfingerprint": "9278fcb8",
  "labels": [
    "pkh_user"
  ]
}
```

### P2SHアドレスの情報

```bash
bitcoin-core.cli getaddressinfo $P2SH_ADDR
=>
{
  "address": "2NB2VDzwnCg7MS1D4kqBVUgfkxjKZ5TF16c",
  "scriptPubKey": "a914c309934c0496e88931c2e15b939460d68838a28387",
  "ismine": false,
  "solvable": false,
  "iswatchonly": false,
  "isscript": true,
  "iswitness": false,
  "ischange": false,
  "labels": [
  ]
}

```

### P2WPKHアドレスの情報

```bash
bitcoin-core.cli getaddressinfo $P2WPKH_ADDR
=>
{
  "address": "tb1q0ccv3vygskxjj69hhktncn8zyhyextvwj87ser",
  "scriptPubKey": "00147e30c8b088858d2968b7bd973c4ce225c9932d8e",
  "ismine": true,
  "solvable": true,
  "desc": "wpkh([9278fcb8/84h/1h/0h/0/13]034c9391c2aa2c8688650c3e38b8e36022d452ebb3e42320be496439a960a55768)#7dkxfg04",
  "parent_desc": "wpkh([9278fcb8/84h/1h/0h]tpubDDhCsJ6XGQpV4ZcobSUHAv88MtVdeYCSW3R4wccKqLHeCTv2y23vzEg948dYybSFfJcsHnXL5D79oXG2Lm3phMG6SGmZXrG4PuNWfYhp8DJ/0/*)#g3xhechk",
  "iswatchonly": false,
  "isscript": false,
  "iswitness": true,
  "witness_version": 0,
  "witness_program": "7e30c8b088858d2968b7bd973c4ce225c9932d8e",
  "pubkey": "034c9391c2aa2c8688650c3e38b8e36022d452ebb3e42320be496439a960a55768",
  "ischange": false,
  "timestamp": 1747385736,
  "hdkeypath": "m/84h/1h/0h/0/13",
  "hdseedid": "0000000000000000000000000000000000000000",
  "hdmasterfingerprint": "9278fcb8",
  "labels": [
    "wpkh_user"
  ]
}
```

### P2WSHアドレスの情報

```bash
bitcoin-core.cli getaddressinfo $P2WSH_ADDR
=>
{
  "address": "tb1q9h2qm8d66zczmjvwjsngcv6ddnm9l35t6j7tj2punu3ucrgq6uaq2x3clm",
  "scriptPubKey": "00202dd40d9dbad0b02dc98e94268c334d6cf65fc68bd4bcb9283c9f23cc0d00d73a",
  "ismine": false,
  "solvable": false,
  "iswatchonly": false,
  "isscript": true,
  "iswitness": true,
  "witness_version": 0,
  "witness_program": "2dd40d9dbad0b02dc98e94268c334d6cf65fc68bd4bcb9283c9f23cc0d00d73a",
  "ischange": false,
  "labels": [
  ]
}
```

### P2TRアドレスの情報

```bash
bitcoin-core.cli getaddressinfo $P2TR_ADDR
=>
{
  "address": "tb1phf8j697ct88ry9j2gygpdr7w873y8f69hqpvs6zym2jg3httg20qwl7vgw",
  "scriptPubKey": "5120ba4f2d17d859ce32164a4110168fce3fa243a745b802c86844daa488dd6b429e",
  "ismine": true,
  "solvable": true,
  "desc": "tr([9278fcb8/86h/1h/0h/0/1]efb853fe923733368b9b9dea28459bfce5da1e648a860def38d60dc76f0fcd05)#drj2emgu",
  "parent_desc": "tr([9278fcb8/86h/1h/0h]tpubDDiDqvaLLuAJ4X3az1dEUVif8TCj2wVvTBSJYTQpPV7PZmfmRgcvFHVustsWNbD6anoCyzRn4bVbiABBR3sZ28rE4kNCmdsKsXBwt8osNPA/0/*)#82nu0ehv",
  "iswatchonly": false,
  "isscript": true,
  "iswitness": true,
  "witness_version": 1,
  "witness_program": "ba4f2d17d859ce32164a4110168fce3fa243a745b802c86844daa488dd6b429e",
  "ischange": false,
  "timestamp": 1747385736,
  "hdkeypath": "m/86h/1h/0h/0/1",
  "hdseedid": "0000000000000000000000000000000000000000",
  "hdmasterfingerprint": "9278fcb8",
  "labels": [
    "tr_user"
  ]
}
```

## <a id="6UTXOs">UTXO の確認</a>


```bash
UTXOS2=`bitcoin-core.cli listunspent`

echo $UTXOS2
# 確認例
[ { "txid": "3084d35690cdf25702000b4af622cfba85ac0519095973bcf70d6133bb3d4cab", "vout": 0, "address": "n2yA2WM4UUiYXEZ4TFWi8AXQT12Se7HyUT", "label": "pkh_user", "scriptPubKey": "76a914eb4f3ff2de050b88afbbe74df54187c06bf027b488ac", "amount": 0.00010000, "confirmations": 407, "spendable": true, "solvable": true, "desc": "pkh([9278fcb8/44h/1h/0h/0/0]03cfc732476361e280a4b2e5922e21484117d43e300a276dbf22610f303d8b1e78)#u9kxhv2p", "parent_descs": [ "pkh(tpubD6NzVbkrYhZ4XyV3UcGaHzzXH21ZToEr1Kx55UU3SVR6KTnvjJMP6gDSDo8Q4ZKX2KTkPnipXsEMAz4H5RhyvGbirEFxewpuswV9NAoy226/44h/1h/0h/0/*)#kt0esuzx" ], "safe": true }, { "txid": "3084d35690cdf25702000b4af622cfba85ac0519095973bcf70d6133bb3d4cab", "vout": 2, "address": "tb1q9z6g0m0c9aeq8kxrg469rx95a2m7wyc34u6yqy", "label": "wpkh_user", "scriptPubKey": "001428b487edf82f7203d8c345745198b4eab7e71311", "amount": 0.00010000, "confirmations": 407, "spendable": true, "solvable": true, "desc": "wpkh([9278fcb8/84h/1h/0h/0/8]03a98979a15fe0399983813ceb98538e2c4ddd82de4e50aad099440db79394873b)#qd7g7kr7", "parent_descs": [ "wpkh(tpubD6NzVbkrYhZ4XyV3UcGaHzzXH21ZToEr1Kx55UU3SVR6KTnvjJMP6gDSDo8Q4ZKX2KTkPnipXsEMAz4H5RhyvGbirEFxewpuswV9NAoy226/84h/1h/0h/0/*)#50e604cn" ], "safe": true }, { "txid": "3084d35690cdf25702000b4af622cfba85ac0519095973bcf70d6133bb3d4cab", "vout": 5, "address": "tb1qj8tnqvdj234228y546a54g7ykkeh0akh7y35k0", "label": "", "scriptPubKey": "001491d73031b2546aa51c94aebb4aa3c4b5b377f6d7", "amount": 0.00048000, "confirmations": 407, "spendable": true, "solvable": true, "desc": "wpkh([9278fcb8/84h/1h/0h/0/1]029f40c4fd7601a94f1d2c350fd6d18132f54844086a7e9bf43a5488685de44664)#34993jna", "parent_descs": [ "wpkh(tpubD6NzVbkrYhZ4XyV3UcGaHzzXH21ZToEr1Kx55UU3SVR6KTnvjJMP6gDSDo8Q4ZKX2KTkPnipXsEMAz4H5RhyvGbirEFxewpuswV9NAoy226/84h/1h/0h/0/*)#50e604cn" ], "safe": true }, { "txid": "a038af65a49bfdd738a26069650322a901cef119e049b9347d9109311747ad12", "vout": 0, "address": "tb1qk7l3xmngw3x5sd9w2egdf5yzdm939ezql5jvq2", "label": "BOB1", "scriptPubKey": "0014b7bf136e68744d4834ae5650d4d0826ecb12e440", "amount": 0.00500000, "confirmations": 55, "spendable": true, "solvable": true, "desc": "wpkh([9278fcb8/84h/1h/0h/0/9]02cb7815dcbdc707e71852ac7b5c17648b54fc14d068c9dd3ec67d3c4a47d74068)#m009cy63", "parent_descs": [ "wpkh(tpubD6NzVbkrYhZ4XyV3UcGaHzzXH21ZToEr1Kx55UU3SVR6KTnvjJMP6gDSDo8Q4ZKX2KTkPnipXsEMAz4H5RhyvGbirEFxewpuswV9NAoy226/84h/1h/0h/0/*)#50e604cn" ], "safe": true }, { "txid": "7da8a519a48aa705145c7b6f385cf9acbf3c3e8676c54f6f69fe46198b66c874", "vout": 1, "address": "tb1qezzhzk540k0clr8eelspcmae8w0pll4jft0s8x", "label": "BOB1", "scriptPubKey": "0014c885715a957d9f8f8cf9cfe01c6fb93b9e1ffeb2", "amount": 0.00500000, "confirmations": 409, "spendable": true, "solvable": true, "desc": "wpkh([9278fcb8/84h/1h/0h/0/4]0321711a085a72323f063f3fc9c41cf09da341ae10accacd0cc289c10d443fde63)#yj9fppnn", "parent_descs": [ "wpkh(tpubD6NzVbkrYhZ4XyV3UcGaHzzXH21ZToEr1Kx55UU3SVR6KTnvjJMP6gDSDo8Q4ZKX2KTkPnipXsEMAz4H5RhyvGbirEFxewpuswV9NAoy226/84h/1h/0h/0/*)#50e604cn" ], "safe": true }, { "txid": "3084d35690cdf25702000b4af622cfba85ac0519095973bcf70d6133bb3d4cab", "vout": 4, "address": "tb1pww0jg0400s8a7amgpr000jpfdvnjsvhggnucnxqlp63hurzn2vzq905hh9", "label": "tr_user", "scriptPubKey": "5120739f243eaf7c0fdf776808def7c8296b272832e844f989981f0ea37e0c535304", "amount": 0.00010000, "confirmations": 407, "spendable": true, "solvable": true, "desc": "tr([9278fcb8/86h/1h/0h/0/0]feaa76c55882a824120543aaad3f1ad316bdb599423faf5ed07b4be8cf0ed029)#ulnv0ne5", "parent_descs": [ "tr(tpubD6NzVbkrYhZ4XyV3UcGaHzzXH21ZToEr1Kx55UU3SVR6KTnvjJMP6gDSDo8Q4ZKX2KTkPnipXsEMAz4H5RhyvGbirEFxewpuswV9NAoy226/86h/1h/0h/0/*)#wd3qhccv" ], "safe": true } ]
```

### UTXOを一つずつ確認

* 各UTXOの "desc" の値を確認
* descriptor 関数が pkh(), wpkh(), tr() のUTXOを見つける
* 見つかったらそのUTXOをシェル変数に代入する

発見の例

```bash
echo $UTXOS2|jq '.[0].desc'
=>
"pkh([9278fcb8/44h/1h/0h/0/0]03cfc732476361e280a4b2e5922e21484117d43e300a276dbf22610f303d8b1e78)#u9kxhv2p"

# pkh() 発見！ 
# アドレスを確認
echo $UTXOS2|jq '.[0].address'
=>
"n2yA2WM4UUiYXEZ4TFWi8AXQT12Se7HyUT"

# P2PKHアドレスを確認
echo $P2PKH_ADDR
=>
n4cxBqtUBoG8uM9DRGrqsiWFCfzkfjHVfa
# 一致しているので インデックス0 がP2PKHのUTXO
```

* （この例では）インデックス 0 のUTXOをシェル変数 UTXO_P2PKH に代入
  
```bash
UTXO_PKH=`echo $UTXOS2|jq '.[0]'`
```

```bash
echo $UTXOS|jq '.[1].desc'
=>
"wpkh([9278fcb8/84h/1h/0h/0/8]03a98979a15fe0399983813ceb98538e2c4ddd82de4e50aad099440db79394873b)#qd7g7kr7"

# wpkh 発見！

# アドレスを確認
echo $UTXOS2|jq '.[1].address'
=>
"tb1q9z6g0m0c9aeq8kxrg469rx95a2m7wyc34u6yqy"
# P2WPKHアドレスを確認
echo $P2WPKH_ADDR
=>
tb1q0ccv3vygskxjj69hhktncn8zyhyextvwj87ser
# 一致しているので，インデックス1 がP2WPKHのUTXO
```

* （この例では）インデックス 1 のUTXOをシェル変数 UTXO_P2WPKH に代入

```bash
UTXO_WPKH=`echo $UTXOS2|jq '.[1]'`
```

他のインデックスも確認する 
...


```bash
echo $UTXOS2|jq '.[5].desc'
=>
"tr([2e6d8f73/86h/1h/0h/0/0]cb2fb20e68d20914f564800d83099a9e8c13e9a047e7ff252fb10f6a9fbfa635)#6464j3em"
# tr()発見！

# アドレスを確認
echo $UTXOS2|jq '.[5].address'
=>
"tb1pu98a025a5pxa2mykur4kneq9jx0uwf56lxm3rnyt0wmda5tau4fs3e8qq5"

echo $P2TR_ADDR
=>
tb1pu98a025a5pxa2mykur4kneq9jx0uwf56lxm3rnyt0wmda5tau4fs3e8qq5

# 一致しているので，インデックス5 がP2TRのUTXO
```

* （この例では）インデックス 5 のUTXOをシェル変数 UTXO_P2TR に代入

```bash
UTXO_P2TR=`echo $UTXOS2|jq '.[5]'`

echo $UTXO_P2TR
=>
{ "txid": "480db95dd83a2912d8d014b4f7a6369039747104d09462a266442af8d02013b0", "vout": 4, "address": "tb1pu98a025a5pxa2mykur4kneq9jx0uwf56lxm3rnyt0wmda5tau4fs3e8qq5", "label": "tr_user", "scriptPubKey": "5120e14fd7aa9da04dd56c96e0eb69e405919fc7269af9b711cc8b7bb6ded17de553", "amount": 0.00010000, "confirmations": 6, "spendable": true, "solvable": true, "desc": "tr([2e6d8f73/86h/1h/0h/0/0]cb2fb20e68d20914f564800d83099a9e8c13e9a047e7ff252fb10f6a9fbfa635)#6464j3em", "parent_descs": [ "tr(tpubD6NzVbkrYhZ4Y7hsC6x4CbroDXPTZfxgKB3X2vzzNvTCNifiSGT81cfiiFLWThtDu5tbXd3VcmyMryKYohDot2X2sS9VWxos1sRDQp6b3aq/86h/1h/0h/0/*)#vxs8y47z" ], "safe": true }
```

## <a id="p2pkh">P2PKH </a>

### P2PKH タイプのUTXOの確認

トランザクションIDとVOUT と金額の確認

```bash
TXID_PKH=`echo $UTXO_PKH|jq -r .txid`

echo $TXID_PKH
=>
480db95dd83a2912d8d014b4f7a6369039747104d09462a266442af8d02013b0

VOUT_PKH=`echo $UTXO_PKH|jq -r .vout`

echo $VOUT_PKH
=>
0

AMOUNT_PKH=`echo $UTXO_PKH|jq -r .amount`

echo $AMOUNT_PKH
=>
0.00010000
```

* 送金先はTAROとします

```bash
TARO=`bitcoin-core.cli getnewaddress`
echo $TARO
=>
tb1qmdqlnwmlp9usvlw06780y4vw5tcnnwr5ljff43
```

* 送金金額

FEE 0.00002
AMOUNTは 0.0001-0.00002 = 0.00008

### P2PKH トランザクションの作成

```bash
INPUT_PKH="[{\"txid\":\"$TXID_PKH\",\"vout\": $VOUT_PKH}]"
OUTPUT_PKH="[{\"$TARO\": 0.00008}]"
```

```bash
echo $INPUT_PKH
=>
[{"txid":"480db95dd83a2912d8d014b4f7a6369039747104d09462a266442af8d02013b0","vout": 0}]

echo $OUTPUT_PKH
=>
[{"tb1qmdqlnwmlp9usvlw06780y4vw5tcnnwr5ljff43": 0.00008}]
```

未署名のトランザクション

```bash
UNSIGNED_PKH_TX=`bitcoin-core.cli createrawtransaction "$INPUT_PKH" "$OUTPUT_PKH"`

echo $UNSIGNED_PKH_TX
=>
0200000001b01320d0f82a4466a26294d0047174399036a6f7b414d0d812293ad85db90d480000000000fdffffff01401f000000000000160014db41f9bb7f0979067dcfd78ef2558ea2f139b87400000000
```

### P2PKH トランザクションへの署名


```bash
SIGNED_PKH_TX=`bitcoin-core.cli signrawtransactionwithwallet $UNSIGNED_PKH_TX`

echo $SIGNED_PKH_TX
{ "hex": "0200000001b01320d0f82a4466a26294d0047174399036a6f7b414d0d812293ad85db90d48000000006a473044022079a58bd987578676008e88584307e87ebc27f9bc3ca1695234e8e0ac6276d58e0220409c463366d351a74b2c1ee5d0f2898b04e4663312a9e1bc2b1fbf0aa23396eb0121037728b201d8abb0016341ee343d944760b670abb613d1c88c3f64b324984c612ffdffffff01401f000000000000160014db41f9bb7f0979067dcfd78ef2558ea2f139b87400000000", "complete": true }
```

```bash
SIGNED_PKH_TX_HEX=`echo $SIGNED_PKH_TX| jq -r .hex`

echo $SIGNED_PKH_TX_HEX
=>
0200000001b01320d0f82a4466a26294d0047174399036a6f7b414d0d812293ad85db90d48000000006a473044022079a58bd987578676008e88584307e87ebc27f9bc3ca1695234e8e0ac6276d58e0220409c463366d351a74b2c1ee5d0f2898b04e4663312a9e1bc2b1fbf0aa23396eb0121037728b201d8abb0016341ee343d944760b670abb613d1c88c3f64b324984c612ffdffffff01401f000000000000160014db41f9bb7f0979067dcfd78ef2558ea2f139b87400000000
```

### 作成したPKH トランザクションの構造

```bash
bitcoin-core.cli decoderawtransaction $SIGNED_PKH_TX_HEX

=>
{
  "txid": "050f1afe8af565bd5c543665e29d6d059b4964cdad1349e5edde1454954e8b91",
  "hash": "050f1afe8af565bd5c543665e29d6d059b4964cdad1349e5edde1454954e8b91",
  "version": 2,
  "size": 188,
  "vsize": 188,
  "weight": 752,
  "locktime": 0,
  "vin": [
    {
      "txid": "480db95dd83a2912d8d014b4f7a6369039747104d09462a266442af8d02013b0",
      "vout": 0,
      "scriptSig": {
        "asm": "3044022079a58bd987578676008e88584307e87ebc27f9bc3ca1695234e8e0ac6276d58e0220409c463366d351a74b2c1ee5d0f2898b04e4663312a9e1bc2b1fbf0aa23396eb[ALL] 037728b201d8abb0016341ee343d944760b670abb613d1c88c3f64b324984c612f",
        "hex": "473044022079a58bd987578676008e88584307e87ebc27f9bc3ca1695234e8e0ac6276d58e0220409c463366d351a74b2c1ee5d0f2898b04e4663312a9e1bc2b1fbf0aa23396eb0121037728b201d8abb0016341ee343d944760b670abb613d1c88c3f64b324984c612f"
      },
      "sequence": 4294967293
    }
  ],
  "vout": [
    {
      "value": 0.00008000,
      "n": 0,
      "scriptPubKey": {
        "asm": "0 db41f9bb7f0979067dcfd78ef2558ea2f139b874",
        "desc": "addr(tb1qmdqlnwmlp9usvlw06780y4vw5tcnnwr5ljff43)#lmj56ze4",
        "hex": "0014db41f9bb7f0979067dcfd78ef2558ea2f139b874",
        "address": "tb1qmdqlnwmlp9usvlw06780y4vw5tcnnwr5ljff43",
        "type": "witness_v0_keyhash"
      }
    }
  ]
}
```

### 署名済のPKHトランザクションのブロードキャスト

```bash
bitcoin-core.cli sendrawtransaction $SIGNED_PKH_TX_HEX
=>
050f1afe8af565bd5c543665e29d6d059b4964cdad1349e5edde1454954e8b91
```

## <a id="p2wpkh">P2WPKH </a>

### P2WPKH タイプのUTXOの確認


トランザクションIDとVOUT と金額の確認

```bash
TXID_WPKH=`echo $UTXO_WPKH|jq .txid`

echo $TXID_WPKH
=>
"29f81cffcd5ad137bfcbd33f6134825714312dce3d4aad70cd5ef7a40e23ce3d"

VOUT_WPKH=`echo $UTXO_WPKH|jq -r .vout`

echo $VOUT_WPKH
=>
1

AMOUNT_WPKH=`echo $UTXO_WPKH|jq -r .amount`

echo $AMOUNT_WPKH
=>
0.00500000
```

* 送金先はTAROとします

```bash
echo $TARO
=>
tb1qmdqlnwmlp9usvlw06780y4vw5tcnnwr5ljff43
```

* 送金金額

FEE 0.00002
AMOUNTは 0.005-0.00002 = 0.00498

### P2WPKH トランザクションの作成

```bash
INPUT_WPKH="[{\"txid\":$TXID_WPKH,\"vout\": $VOUT_WPKH}]"
OUTPUT_WPKH="[{\"$TARO\": 0.00498}]"
```

未署名のトランザクション

```bash
UNSIGNED_WPKH_TX=`bitcoin-core.cli createrawtransaction "$INPUT_WPKH" "$OUTPUT_WPKH"`

echo $UNSIGNED_WPKH_TX
=>
02000000013dce230ea4f75ecd70ad4a3dce2d3114578234613fd3cbbf37d15acdff1cf8290100000000fdffffff015099070000000000160014db41f9bb7f0979067dcfd78ef2558ea2f139b87400000000
```

### P2WPKH トランザクションへの署名


```bash
SIGNED_WPKH_TX=`bitcoin-core.cli signrawtransactionwithwallet $UNSIGNED_WPKH_TX`

echo $SIGNED_WPKH_TX
=>
{ "hex": "020000000001013dce230ea4f75ecd70ad4a3dce2d3114578234613fd3cbbf37d15acdff1cf8290100000000fdffffff015099070000000000160014db41f9bb7f0979067dcfd78ef2558ea2f139b87402473044022046aad2fd69e0dfa7439e8e3a7090fa256b52c4f8ca28dc3f92ed1541dfe0deac022051dde0498bae9342f88dc4d65fa7500f716cba96fd4b7b78a99f85fb0ddeb291012102be848763190be1467af95398dd634303b366f6a1fe6bc5802da4daedcb692f9000000000", "complete": true }
```

```bash
SIGNED_WPKH_TX_HEX=`echo $SIGNED_WPKH_TX| jq -r .hex`

echo $SIGNED_WPKH_TX_HEX
=>
020000000001013dce230ea4f75ecd70ad4a3dce2d3114578234613fd3cbbf37d15acdff1cf8290100000000fdffffff015099070000000000160014db41f9bb7f0979067dcfd78ef2558ea2f139b87402473044022046aad2fd69e0dfa7439e8e3a7090fa256b52c4f8ca28dc3f92ed1541dfe0deac022051dde0498bae9342f88dc4d65fa7500f716cba96fd4b7b78a99f85fb0ddeb291012102be848763190be1467af95398dd634303b366f6a1fe6bc5802da4daedcb692f9000000000
```

### 作成した署名付き P2WPKH トランザクションの構造


```bash
bitcoin-core.cli decoderawtransaction $SIGNED_WPKH_TX_HEX

=>
{
  "txid": "09b3841e8b16d5c2fd15503bfc42fed713c57d6ac6117af8a721824a0d42d722",
  "hash": "c48af28226ab8ad89643c4333f7e3d9fe45739bfdb83b5793e03f421d34412cc",
  "version": 2,
  "size": 191,
  "vsize": 110,
  "weight": 437,
  "locktime": 0,
  "vin": [
    {
      "txid": "29f81cffcd5ad137bfcbd33f6134825714312dce3d4aad70cd5ef7a40e23ce3d",
      "vout": 1,
      "scriptSig": {
        "asm": "",
        "hex": ""
      },
      "txinwitness": [
        "3044022046aad2fd69e0dfa7439e8e3a7090fa256b52c4f8ca28dc3f92ed1541dfe0deac022051dde0498bae9342f88dc4d65fa7500f716cba96fd4b7b78a99f85fb0ddeb29101",
        "02be848763190be1467af95398dd634303b366f6a1fe6bc5802da4daedcb692f90"
      ],
      "sequence": 4294967293
    }
  ],
  "vout": [
    {
      "value": 0.00498000,
      "n": 0,
      "scriptPubKey": {
        "asm": "0 db41f9bb7f0979067dcfd78ef2558ea2f139b874",
        "desc": "addr(tb1qmdqlnwmlp9usvlw06780y4vw5tcnnwr5ljff43)#lmj56ze4",
        "hex": "0014db41f9bb7f0979067dcfd78ef2558ea2f139b874",
        "address": "tb1qmdqlnwmlp9usvlw06780y4vw5tcnnwr5ljff43",
        "type": "witness_v0_keyhash"
      }
    }
  ]
}
```


### 署名済のP2WPKHトランザクションのブロードキャスト

```bash
bitcoin-core.cli sendrawtransaction $SIGNED_WPKH_TX_HEX
=>
09b3841e8b16d5c2fd15503bfc42fed713c57d6ac6117af8a721824a0d42d722
```

## <a id="p2tr">P2TR</a>

### P2TR タイプのUTXOの確認


トランザクションIDとVOUT と金額の確認

```bash
TXID_TR=`echo $UTXO_TR|jq .txid`

echo $TXID_TR
=>
"480db95dd83a2912d8d014b4f7a6369039747104d09462a266442af8d02013b0"

VOUT_TR=`echo $UTXO_TR|jq -r .vout`

echo $VOUT_TR
=>
4

AMOUNT_TR=`echo $UTXO_TR|jq -r .amount`

echo $AMOUNT_TR
=>
0.00010000
```

* 送金先はTAROとします

```bash
echo $TARO
=>
tb1qmdqlnwmlp9usvlw06780y4vw5tcnnwr5ljff43
```

* 送金金額

FEE 0.00002
AMOUNTは 0.0001-0.00002 = 0.00008

### P2TR トランザクションの作成

```bash
INPUT_TR="[{\"txid\":$TXID_TR,\"vout\": $VOUT_TR}]"
OUTPUT_TR="[{\"$TARO\": 0.00008}]"
```

未署名のトランザクション

```bash
UNSIGNED_TR_TX=`bitcoin-core.cli createrawtransaction "$INPUT_TR" "$OUTPUT_TR"`

echo $UNSIGNED_TR_TX
=>
0200000001b01320d0f82a4466a26294d0047174399036a6f7b414d0d812293ad85db90d480400000000fdffffff01401f000000000000160014db41f9bb7f0979067dcfd78ef2558ea2f139b87400000000
```

### P2TR トランザクションへの署名


```bash
SIGNED_TR_TX=`bitcoin-core.cli signrawtransactionwithwallet $UNSIGNED_TR_TX`

echo $SIGNED_TR_TX
=>
{ "hex": "02000000000101b01320d0f82a4466a26294d0047174399036a6f7b414d0d812293ad85db90d480400000000fdffffff01401f000000000000160014db41f9bb7f0979067dcfd78ef2558ea2f139b8740140074a743c6b1fb7ac38297ca09b8809aa40bbc05e30f566418c61a2e2b5c6e88039b6467b5e723ad00483cf715b3014e3c1d23b48b7a2446db7eb253448ce929d00000000", "complete": true }
```

```bash
SIGNED_TR_TX_HEX=`echo $SIGNED_TR_TX| jq -r .hex`

echo $SIGNED_TR_TX_HEX
=>
02000000000101b01320d0f82a4466a26294d0047174399036a6f7b414d0d812293ad85db90d480400000000fdffffff01401f000000000000160014db41f9bb7f0979067dcfd78ef2558ea2f139b8740140074a743c6b1fb7ac38297ca09b8809aa40bbc05e30f566418c61a2e2b5c6e88039b6467b5e723ad00483cf715b3014e3c1d23b48b7a2446db7eb253448ce929d00000000
```

### 作成した署名付き P2TR トランザクションの構造

```bash
bitcoin-core.cli decoderawtransaction $SIGNED_TR_TX_HEX

=>
{
  "txid": "5ac6e5d503cfd6895fe5c1a8fa4ebde8289f0d65375e06f66f4c9415ada991be",
  "hash": "81be151635ed71f7806b2c85988d26cffce8864272e12242a95b12229b510803",
  "version": 2,
  "size": 150,
  "vsize": 99,
  "weight": 396,
  "locktime": 0,
  "vin": [
    {
      "txid": "480db95dd83a2912d8d014b4f7a6369039747104d09462a266442af8d02013b0",
      "vout": 4,
      "scriptSig": {
        "asm": "",
        "hex": ""
      },
      "txinwitness": [
        "074a743c6b1fb7ac38297ca09b8809aa40bbc05e30f566418c61a2e2b5c6e88039b6467b5e723ad00483cf715b3014e3c1d23b48b7a2446db7eb253448ce929d"
      ],
      "sequence": 4294967293
    }
  ],
  "vout": [
    {
      "value": 0.00008000,
      "n": 0,
      "scriptPubKey": {
        "asm": "0 db41f9bb7f0979067dcfd78ef2558ea2f139b874",
        "desc": "addr(tb1qmdqlnwmlp9usvlw06780y4vw5tcnnwr5ljff43)#lmj56ze4",
        "hex": "0014db41f9bb7f0979067dcfd78ef2558ea2f139b874",
        "address": "tb1qmdqlnwmlp9usvlw06780y4vw5tcnnwr5ljff43",
        "type": "witness_v0_keyhash"
      }
    }
  ]
}
```

### 署名済の P2TR ランザクションのブロードキャスト

```bash
bitcoin-core.cli sendrawtransaction $SIGNED_TR_TX_HEX
=>
5ac6e5d503cfd6895fe5c1a8fa4ebde8289f0d65375e06f66f4c9415ada991be
```

## <a id="IMPORT"> </a>descriptor の確認

### ワレットの確認

* ワレットの一覧


```bash
bitcoin-core.cli listwallets

=>
[
  "david"
]
```

### ワレットにインポート済の descriptor の確認

* ワレットに格納されている descriptor 確認

```bash
bitcoin-core.cli listdescriptors

=>
{
  "wallet_name": "david",
  "descriptors": [
    {
      "desc": "pkh([2e6d8f73/44h/1h/0h]tpubDCgZPvkTtsjMW2CRPAhzHMGG3H9QL1fqiQ4cdSmxyT4jAm3kEMhxF3x7Vyky8D7KDqJv6CXXzeLUi13p88XFzt1CfsNspbqKUdDUCcxmNUr/0/*)#eu80zu2r",
      "timestamp": 1748929537,
      "active": true,
      "internal": false,
      "range": [
        0,
        1000
      ],
      "next": 1,
      "next_index": 1
    },
    {
      "desc": "pkh([2e6d8f73/44h/1h/0h]tpubDCgZPvkTtsjMW2CRPAhzHMGG3H9QL1fqiQ4cdSmxyT4jAm3kEMhxF3x7Vyky8D7KDqJv6CXXzeLUi13p88XFzt1CfsNspbqKUdDUCcxmNUr/1/*)#ggzwlf6m",
      "timestamp": 1748929537,
      "active": true,
      "internal": true,
      "range": [
        0,
        999
      ],
      "next": 0,
      "next_index": 0
    },
    {
      "desc": "sh(wpkh([2e6d8f73/49h/1h/0h]tpubDCP7nSB5f3YbRZV4PSKfHKu1QBkftXZjDMZ5V85EQmEZBNAiiHWPWFiA8AmMLkez4My7QuPhtNNPCrsXFvgMFcy89wu89rp98aTGNwQJMk3/0/*))#80rqp2lr",
      "timestamp": 1748929537,
      "active": true,
      "internal": false,
      "range": [
        0,
        999
      ],
      "next": 0,
      "next_index": 0
    },
    {
      "desc": "sh(wpkh([2e6d8f73/49h/1h/0h]tpubDCP7nSB5f3YbRZV4PSKfHKu1QBkftXZjDMZ5V85EQmEZBNAiiHWPWFiA8AmMLkez4My7QuPhtNNPCrsXFvgMFcy89wu89rp98aTGNwQJMk3/1/*))#jwdke42u",
      "timestamp": 1748929537,
      "active": true,
      "internal": true,
      "range": [
        0,
        999
      ],
      "next": 0,
      "next_index": 0
    },
    {
      "desc": "tr([2e6d8f73/86h/1h/0h]tpubDDQAz27jd5gvxhC95dBN37B3v1qfgmebk9vySzHSdMKVhfBY6P7nrwmo1ALemdfjrSsPDBJMs12noW7UJdU5BmEpUM5G6trhNEkkjuaK1Zj/0/*)#2vh9cydf",
      "timestamp": 1748929537,
      "active": true,
      "internal": false,
      "range": [
        0,
        1000
      ],
      "next": 1,
      "next_index": 1
    },
    {
      "desc": "tr([2e6d8f73/86h/1h/0h]tpubDDQAz27jd5gvxhC95dBN37B3v1qfgmebk9vySzHSdMKVhfBY6P7nrwmo1ALemdfjrSsPDBJMs12noW7UJdU5BmEpUM5G6trhNEkkjuaK1Zj/1/*)#mcjy93a3",
      "timestamp": 1748929537,
      "active": true,
      "internal": true,
      "range": [
        0,
        999
      ],
      "next": 0,
      "next_index": 0
    },
    {
      "desc": "wpkh([2e6d8f73/84h/1h/0h]tpubDCxjvYe5Q4uAtEJBA2kQE4LZGcP6d8uWUQNLYAQtZrpRwFkzSUHiAPE4mJSBAPHDvysMxcZMKT7gVTazcNLCqAK6gyA7VBNdrbmcJGJoAfX/0/*)#6yagfqp3",
      "timestamp": 1748929537,
      "active": true,
      "internal": false,
      "range": [
        0,
        1006
      ],
      "next": 7,
      "next_index": 7
    },
    {
      "desc": "wpkh([2e6d8f73/84h/1h/0h]tpubDCxjvYe5Q4uAtEJBA2kQE4LZGcP6d8uWUQNLYAQtZrpRwFkzSUHiAPE4mJSBAPHDvysMxcZMKT7gVTazcNLCqAK6gyA7VBNdrbmcJGJoAfX/1/*)#tscf543f",
      "timestamp": 1748929537,
      "active": true,
      "internal": true,
      "range": [
        0,
        999
      ],
      "next": 0,
      "next_index": 0
    }
  ]
}

```

